:102CD800120100020000004005165F810000010299
:0C2CE80000010A0600020000004001008C
:102CF4000902200001010080F00904000002FF0025
:102D04000000070502020002000705860200020017
:102D14000902200001010080F00904000002FF0004
:102D2400000007050202400000070586024000007B
:102D3400040309040C03410043004300450053000D
:102D440026035500530042002D0041004900200095
:102D540020002000200020002000200000000000AF
:082D6400000000000000000067
:1022F8006080E000013F01010101010700030202C3
:1023080002020200F5F7F7F7F7F7F7F70000000009
:102318000000003F013F0101010101070205000023
:1023280000000000F6F7F7F7F7F7F7F700000000EE
:102338000000003F011301210139010700010001DC
:10234800000B0200FFFFFBFFFDFFFFF7003600F068
:102358000012003F010138010101010702020D00CE
:1023680000000000F2F7F7F7F7F7F7F700002D0085
:102378000000003F6024E08700000000000000002B
:102388000000000000000000000000000000000045
:1023980000000000000000000000000047E080E0AE
:1023A8008000F7AA4E006080E0AB013F0101010107
:1023B80001070003020202020200F5F7F7F7F7F738
:1023C800F7F7000000000000003F013F0101010194
:1023D80001070205000000000000F6F7F7F7F7F71D
:1023E800F7F7000000000000003F01130121013948
:1023F800010700010001000B0200FFFFFBFFFDFFCA
:10240800FFF7003600F0002D003F010138010101FF
:10241800010702020D0000000000F2F7F7F7F7F7D6
:10242800F7F700002D000000003F6024E1320000B3
:102438000000000000000000000000000000000094
:102448000000000000000000000000000000000084
:0C245800000047E12BE08000F7AA4E00D6
:103CA50090E60174AAF090E6F574FFF022F59B7595
:103CB5009DE4E4F59EFF2290E67BE090E67CF00F24
:013CC50022DC
:102BAE00123CA590E12BE090E6F3F090E12CE09042
:102BBE00E6C3F090E12DE090E6C1F090E12EE090BA
:102BCE00E6C2F090E130E090E6C0F090E131E090A6
:102BDE00E6F4F075AF0774E0F59A74AB123CB212DE
:102BEE003CBCBF80FA000000E490E6C4F000000098
:102BFE0090E6C5F090E132E090E6C6F090E133E069
:102C0E0090E6C7F090E134E090E6C8F090E135E050
:102C1E0090E6C9F090E136E090E6CAF090E137E038
:102C2E0090E6CBF090E138E090E6CCF090E139E020
:042C3E0090E6CDF05F
:012C4200226F
:102C4300123CA590E080E090E6F3F090E081E09004
:102C5300E6C3F090E082E090E6C1F090E083E0907C
:102C6300E6C2F090E085E090E6C0F090E086E09068
:102C7300E6F4F075AF0774E0F59A7400123CB212F3
:102C83003CBCBF80FA000000E490E6C4F000000002
:102C930090E6C5F090E087E090E6C6F090E088E02B
:102CA30090E6C7F090E089E090E6C8F090E08AE013
:102CB30090E6C9F090E08BE090E6CAF090E08CE0FB
:102CC30090E6CBF090E08DE090E6CCF090E08EE0E3
:042CD30090E6CDF0CA
:012CD70022DA
:0A3F12000001020203030404050588
:103AB300EC4EFEED4F2412F582743F3EF583E49302
:103AC300FF3395E0FEEF24A1FFEE34E68F82F5830A
:103AD3002290E6BCE0547EFF7E00E0D394807C001D
:013AE30022C0
:03000B000231E9D6
:1031E900C0E0C0F0C083C082C085C084C086758637
:1031F90000C0D075D000C000C004C005C006C0071B
:103209000564E564B406270518E51870020517AECC
:1032190017FF7C007D0A121356ED4C700E90E1A346
:10322900E004F0700690E1A2E004F0756400D007B4
:10323900D006D005D004D000D0D0D086D084D08597
:09324900D082D083D0F0D0E03235
:102DFF00E4F532F531F530F52FC219C216C218C2FB
:102E0F0017121D7F75672C7568D8756F2C7570EA52
:102E1F0075652C7566F4756D2D756E1475712D7540
:102E2F007234D2E843D82090E668E04409F090E687
:102E3F005CE0443DF0D2AFD20D123B1590E680E03E
:102E4F0054F7F0538EF8C2193017051224A6C21783
:102E5F00301929123EC25024C219123C3A201616BC
:102E6F0090E682E030E704E020E1EF90E682E03088
:102E7F00E604E020E0E4123B44123ED41229B8806D
:012E8F00C77B
:1024A60090E6B9E070030225571470030225AB24A9
:1024B600FE700302260524FB7003022551147003E7
:1024C60002254B1460731460762405600302263CD3
:1024D600123F6D400302264890E6BBE024FE6022D0
:1024E60014603324FD601114602224067048E567E9
:1024F60090E6B3F0E5688037E56F90E6B3F0E570F7
:10250600802DE56990E6B3F0E56A8023E56B90E6F9
:10251600B3F0E56C801990E6BAE0FF123B70AA06AC
:10252600A9077B01EA494B600DEE90E6B3F0EF9008
:10253600E6B4F0022648022641123F30022648122F
:102546003F26022648123603022648123F1C022660
:1025560048123F6F400302264890E6B8E0247F60A9
:10256600151460192402703AA216E43325E0FFA27E
:1025760018E4334F8018E490E740F08016123AD4FE
:1025860040047D0180027D00123AB3E0540190E7D9
:1025960040F0E4A3F090E68AF090E68B7402F00235
:1025A6002648022641123F71400302264890E6B8AB
:1025B600E024FE60162402600302264890E6BAE094
:1025C600B40105C21602264802264190E6BAE0701A
:1025D6002C123AD440047D0180027D00123AB3E009
:1025E60054FEF090E6BCE05480131313541FFFE032
:1025F600540F2F90E683F0E04420F08045803C1293
:102606003F73503E90E6B8E024FE601A2402703212
:1026160090E6BAE0B40104D216802790E6BAE0B498
:102626000202801E8015123AD440047D0180027D8C
:1026360000123AB38008120056500790E6A0E04414
:0926460001F090E6A0E04480F0F0
:01264F002268
:0300330002004E7A
:04004E0053D8EF3262
:02246400C11A9B
:103C150090E19EEFF0F5CB8FCDAF0590E19FEFF0F2
:103C2500F5CA8FCCE4F5C8758E19D2BDD2AFD2AD29
:053C3500D2CAF51F22B8
:0D00360090E19EE0FF90E19FE0FD023C158F
:083F3A00A21B921CD21BA21C69
:013F4200225C
:083F4300A21B921DC21BA21D6E
:013F4B002253
:033F6700AF1F2267
:033F6A00A21B2275
:103EE600AD07AC06C3E49DFBE49CFFEBFD023C156D
:05002E00C2CAC2AD22B0
:03002B00023D2370
:023D2300C0E0FE
:103D2500301B0E301A04051F8007D21A123F4CC2F1
:093D35001A300303123F4CC2CF07
:033D3E00D0E032A0
:030043000229008F
:030053000229007F
:10290000023C5F00023CE500023CC600023D0400C0
:102910000232BB0002393A00023F7500023F7600E6
:10292000023F7700023F7800023C8300022F1C0028
:1029300002365A00023F79000236B000023F7A00A8
:102940000230A000023F7600023F7B00023F7C0085
:102950000233ED00023F7D0002344600023F7E005C
:10296000023F7F00023F7600023F7600023F760082
:10297000023F8000023F8100023F8200023F83004D
:10298000023F8400023F8500023F8600023F87002D
:1029900002349F00023F88000234F800023F8900A1
:1029A00002355100023F8A000235AA00023F8B0027
:0829B000023F8C00023F8D0084
:103B440090E682E030E004E020E60B90E682E0308C
:103B5400E119E030E71590E680E04401F07F147E3F
:0C3B6400001237F290E680E054FEF022E0
:103C3A0090E682E044C0F090E681F04387010000FC
:043C4A000000002254
:103B1500300D0990E680E0440AF0800790E680E0E9
:103B25004408F07FDC7E051237F290E65D74FFF005
:0F3B350090E65FF05391EF90E680E054F7F022B6
:023B7000A907A3
:103B7200AE71AF728F828E83A3E064037017AD01C2
:103B820019ED7001228F828E83E07C002FFDEC3EC6
:093B9200FEAF0580DF7E007F001C
:013B9B002207
:1037F2008E378F3890E600E054187012E5382401B5
:10380200FFE43537C313F537EF13F538801590E62B
:1038120000E05418FFBF100BE53825E0F538E53716
:1038220033F537E5381538AE37700215374E600577
:06383200123C4E80EE2264
:103C4E007400F58690FDA57C05A3E582458370F989
:013C5E002243
:10198100253032625800253034580020213D200096
:101991000D004020504F535420002D2050415353EF
:1019A100200D002D204641494C200D00362D3136A9
:1019B1004100362D31364500322D31364100322D70
:1019C100313600322D31364500362D31364600365E
:1019D1002D36344D4100362D36344D4500322D36ED
:1019E100344D4100322D36344D00322D36344D45C3
:1019F10000362D33324100362D33324500322D333E
:101A0100324100322D333200322D33324500362D32
:101A110036344100362D36344500322D36344100FE
:101A2100322D363400322D36344500362D393641CB
:101A310000362D39364500322D39364100322D39E7
:101A41003600322D39364500362D313238410036D7
:101A51002D3132384500322D3132384100322D31AD
:101A6100323800322D31323845002D4F544845521D
:101A710000210054445F504F4C4C3A204750494696
:101A810054524947202620307838300D005F0056E7
:101A91004A756C20323420323031394030393A3194
:101AA100333A30340000475049464D6F6465536501
:101AB100743A0020434F4E54494E554F55530D0033
:101AC1002054430D002D2030784243205772697411
:101AD1006520002D205069636B47504946203D2009
:101AE10000436F6E74696E756F75732000544320E7
:101AF1004D6F646520002D20577269746520343064
:101B01003146203D203078002D2054436F756E748E
:101B1100203D203078002D204144435F436F6E7497
:101B2100696E756F75733D002D2043545252656186
:101B3100640D002D204354524D6F646520002D200B
:101B41004354524C6F6164200D002D204354524D7B
:101B51006F64654C6F616420002D2044494F5772BA
:101B6100697465416C6C3A002D2044494F5F5265A0
:101B71006164416C6C3A002D2044494F5F436F6EA4
:101B81006669677572653A002D204144435F53656C
:101B910074436F6E6669673A002D204144435F4785
:101BA1006574436F6E666967002D20307842463A4E
:101BB100476574496D6D656469617465200053748E
:101BC10061727420312041444320436F6E76657207
:101BD10073696F6E200054616B652032204144436C
:101BE1002C20667265736820646174612000546101
:101BF1006B652031204144432C20686973746F72F6
:101C01006963616C206461746120002D2053656CEF
:101C11006620546573743A002D2050415353002DB2
:101C2100204641494C002D2050726F62652043616E
:101C31006C3A002D20537570706F727465642000CA
:101C41002D20556E617661696C61626C65002D2095
:101C510057726974652043616C200D002E00207558
:101C61006E617661696C61626C652E002D20565241
:101C71005F4E4F5344504155544F002D20444F2047
:101C81004E4F542057414E54002D2056525F524121
:101C91004D20262056525F454550524F4D0D002D87
:101CA1002030784233204441434469726563742093
:101CB1000D002D2030784233204441434D756C7422
:101CC100694469726563743A20002D20444143449C
:101CD100697265637420526561643A0025332E315F
:101CE100662C2025332E3166207C2025332E31664B
:101CF1002C2025332E3166207C2025332E31662C75
:101D01002025332E3166207C2025332E31662C2070
:101D110025332E3166002D20444143536574426FB3
:101D210061726452616E6765002D2054445F537582
:101D31007370656E640D002D2054445F5265737598
:101D41006D650D002D2052657365740031206F752E
:101D510074003220696E6F757400455036696E6F7C
:101D610075740049424E004E3200706E3600656651
:0E1D71003200656636004646320046463600B1
:1024660041E19C0041E1C4FF41E19DFE41E1DD0007
:1024760041E1C70042E19A0200C106C101020C0017
:1024860000C107C109C103C10BC10541E19EFB4162
:0F249600E19F50C10402080000020A0000C100CB
:10209600142440F58274E73CF583EFF022E4F5451D
:1020A600AF45054574402FF582E434E7F58322E019
:1020B600FF0540E540AC3F22E490E68AF090E6BE9C
:1020C600E090E68BF02224A4F58274E13EF583E0ED
:1020D600FCA3E0FDA3E0FEA3E0227BFFE4F53C7554
:1020E6003D01227BFF753C01753D012290E6BAE079
:1020F60075F008A4FFA3E07C002FFFEC35F0FEE4AA
:102106002FF58274503EF583E022AD3C7AE77940A4
:102116007F40AB0722E090E740F0E490E68AF0903B
:10212600E68B22FF90E6BAE075F008A42403F58258
:10213600E5F03450F583EFF02290E65BF090E65A36
:10214600E04401F090E65974FFF090E658E0441040
:10215600F02290E6BCE0FF90E6BBE02275860053D5
:1021660091EF90E65D222538F538E53B3537F537B2
:10217600C3E53A953CF53AE539953BF5392290E6C3
:10218600BDE090E6BCFEE07C002400FFEC3E229021
:10219600401C7401F0E4F0904011F022E54275F025
:1021A60002A42444F9742D35F0227440253EF582AC
:1021B60074E7353DF58322C20890E1D9E0904011DD
:1021C600F022FE74402FF58274E73EF58322E490F8
:1021D600E1A2F0A3F0F517F5182290E671F090E66B
:1021E60072F075B4FF75B6FF2274E1F59A745AF56C
:1021F6009B74E7F59D74C0F59EE422904017E0902D
:10220600E740F0904018E090E741F0227B017AE148
:10221600795A22C3E53E953CE53D953B22E490E69E
:102226008AF090E6BEE022F583E0F8A3E0F9A3E0A9
:10223600FAA3E0FB228F4A8E498D488C4722AF4A8B
:10224600AE49AD48AC47227BFF753C01E4F53D2223
:1022560090E6047480F022FFAE45054574402E22B8
:102266007BFF7A19799122E53EAE3D780222E53868
:10227600253EF582E537353DF583225391EF90E60D
:102286005F227C007B002412F9EC3400FA227BFFEB
:10229600E4F53CF53D22F582E43440F583223EF533
:1022A60083E0FBED25E0FFEC3322142440F5827435
:1022B600E73CF583EF22F582E434E1F583227441AD
:1022C6002FF58274E73EF58322856A82856983A3AA
:1022D6007402F022856C82856B83A37407F022E575
:1022E60045AD46FCE4020FE09050037474F074B4FC
:0222F600F022D4
:05004600A21E9204223D
:1037A800200404E4FEFF2290E6A2E020E1F91222C0
:1037B80012123E62EF2401F54CE43EF54B1221EF64
:1037C800FFFEC3EF954CE54B6480F8EE648098509B
:1037D8000F90E67BE090E67CF00FBF00010E80E2E0
:0937E800E54C90E68FF0AE4BFFBA
:0137F10022B5
:1038BD008B488A49894A200404E4FEFF221238F31A
:1038CD008E518F5285484E85494F854A501222128E
:1038DD001237061238F3745A2FF58274E13EF583D0
:1038ED00E4F01237A822AB48AA49A94A123E622237
:103E8B00200404E4FEFF2290E15AEFF0E4A3F012C9
:033E9B0037A82223
:103D7D00200404E4FEFF22754BFF754C19754D812F
:0C3D8D008F4E12221212156E1237A8225F
:103D4100200404E4FEFF22754BFF754C19754D8765
:0E3D51008E4E8F4F12221212156E1237A822BC
:1032520090E685E02405F573200404E4FEFF22785D
:103262005A7CE17D011214F590E6A2E030E107906C
:06327200E685E0B573F2F1
:10327800122212123E62EF2401F577E43EF576122F
:1032880021EFF574F575C3E5759577E5766480F8F3
:10329800E574648098501290E67BE090E67CF00537
:1032A80075E57570E1057480DDE57790E68FF0AE21
:0232B80076FF9F
:0132BA0022F1
:1038FD0075440390E1DE7430F0E4A3F0A374031279
:10390D0039277F0F123DB590E1DE7438F0E4A3F056
:0A391D00A3041239277F0F023DB505
:10392700F07AE17BDEAD447F0E123DB57AE17BDEB6
:03393700AD44227A
:062FA5008F448D458B46B0
:102FAB002006061222E50230131222E5E54475F0E5
:102FBB0008A424A4F582E434E112222D120E5CE560
:102FCB004475F008A424A8F582E434E112222D12F2
:102FDB000D6B12223BE4FBFAF9F8120F6260094009
:102FEB0007E4FFFEFDFC800312224412223B7B0010
:102FFB007AFF797F7847120F62500A7F007EFF7D40
:10300B007F7C47800312224412223B12224412106F
:0A301B0019AD07AC06AF44023323E1
:043F5B00438002227B
:043F5F005380FD226C
:043F63006380022253
:103E9E001222560000007406F0000000E4F000004C
:023EAE000022F0
:103E2000C20B90E61474E0F000000090E61A7409EA
:073E3000F0000000023E9EBD
:103EB0001222560000007402F0000000E4F000003E
:023EC0000022DE
:10387B0090E61274A0F000000090E6187411F000AE
:10388B000000123EB090E6917480F0000000F00052
:10389B000000F0000000F000000090E6497482F098
:1038AB00000000F0000000F0000000F0000000023B
:0238BB003EB01D
:063F550012387B023E2041
:01005200228B
:103D5F00E516FE7C00E42515F50FEC3EF50E450F3C
:0E3D6F007007C28CC2A9C20C22D28CD2A9222B
:103AE4001220C390E6A0E020E1F9E4FF74422FF530
:103AF40082E434E7F583E0FEEF122288EE1213220B
:103B04000FBF03E890E740E0F515A3E0F516023D8A
:013B14005F51
:10282F0090E6B8E030E7621220A3E515F01220A67B
:10283F00E516F0E4F544E544C3940350207E007B95
:10284F000074122544F9EE3400FA1212DCFF7440C2
:10285F0025451220ADEFF00544054580D912225EC3
:10286F001220ADE518F0E51712225D1220ADEFF042
:10287F00A20CE43312225D1220ADEFF0C20C122035
:10288F00BE90E6A0E04480F0221220C390E6A0E0C4
:10289F0020E1F9C20C90E6BEE064056004E4F51196
:1028AF00221220A3E0F5151220A6E0F516E4F54458
:1028BF00E544C394035018744025451220ADE0FF42
:1028CF00E544122288EF1213220544054580E112D8
:1028DF003D5F90E6BAE0B4CE08A3E0B4AC031200BB
:0128EF005296
:0128F00022C5
:103E3700E5125403904014F0A3E513F0A3E514F042
:063E47001221D4D20C226E
:0F28F100D3E518950FE517950E4003123E3722D9
:103E4D00C20C1221D4C28CC2A9538EF75389F143EF
:053E5D008901023D5F38
:10397500E50945086019E50915097002150814C31C
:1039850094FFE508648094805018123F5F8013E52A
:1039950011600F7508057509FF123F5BE4F51112FB
:0839A50021D5300C037511015E
:0139AD0022F7
:0F3EF600D20812219575B3FF75B5FF1221E02296
:0D3F0500122195D208F5B3F5B51221E02286
:10000E0090401C7401F0E4F01221BDE4F5B3F5B597
:0D001E0090E671F090E672F0F5B4F5B622B0
:103DD1001221951221BD75B3FF75B5FF90E671747F
:0B3DE100FFF090E67274801221E722D0
:073B9C00904010F0123EF60C
:103BA300E4FEFD7801AF05EF08800103D8FDF5B110
:103BB3008DB08EA08E9090401BEEF00EEE70E40D53
:033BC300ED70E0C2
:013BC60022DC
:10311000E4F546F547AF477801EF08800103D8FD95
:10312000F5B18546A090401C7401F085904485B0AF
:1031300045E4F0E544B54606E5456547602B90E17A
:103140009D7401F0AF47123D7DAF46123D7D7BFF80
:103150007A19798C1238BDAF45123D7DAF44123DCE
:103160007D1222661238BD80060546E54670A6052A
:0E31700047E54770A090E19DE0B4FE02E4F058
:01317E00222E
:103A19007BFF7A1979931238BD7401123B9C7405A6
:103A2900123B9C123F0512311090E19DE07BFF7023
:103A3900067A19799B80047A1979A41238BD9040C5
:043A490010E4F02273
:062D6C008B3E8A3F894006
:102D7200E4F541754207123E628F431221127D0132
:102D82007F047E0012375890E740E04480902CE3A5
:102D9200F090E740E0B4010C1221A28982F583741D
:102DA2004FF005421221A28982F5837431F0054267
:102DB200E543254225E0902D44F0E4F541AF43EF91
:102DC2003395E0FEC3E5419FEE6480F8748098502D
:102DD2002BAB3EAA3FA9408541827583001212F5B2
:102DE200FDE5411221A4FAE54275F002A429F9EAAF
:0C2DF20035F08982F583EDF0054180C1C9
:012DFE0022B2
:103BC70090401374AAF0E064AA70197455F0E06489
:103BD700557011744FF0E0B44F0A7449F0E0B449DE
:073BE700037F00227F012291
:10317F00123BC7EF14601B04705A1221127D017F9E
:10318F00037E0012375890E740E0541F90E1C4F0DF
:10319F0080421221127D027FF67E1D12375890E772
:1031AF0040E0FF780208800123D8FDF53890E74111
:1031BF00E090E1C4F01221127D017F037E001237EF
:1031CF005890E740E0653860037F042290E740E0C5
:0931DF00541FFF2290E1C4E0FF3F
:0131E80022C4
:103E770090401AEDF090E1DDE53CF090E1C7E53DBB
:043E8700F0022D6CAC
:102758001221127D047FCC7E1D1237587F437E43A1
:102768007D417C4490E740E0F8A3E0F9A3E0FAA3B8
:10277800E0FBC31213B97068D2011221127D207FC9
:10278800D07E1D123758E4F544F545E545AE44784A
:1027980002C333CE33CED8F924401221CCE0FCA3B7
:1027A800E0FDA3E0FEA3E0FFC004C005C006C0072B
:1027B800E545AE447802C333CE33CED8F924A4F528
:1027C8008274E13EF583D007D006D005D0041213F9
:1027D800CA0545E545700205446408454470AC22C5
:1027E800C201E4F544F545E545AE447803C333CE6C
:1027F80033CED8F9FBAA0624A4F58274E13AF5830E
:102808001213D63F80000074A82BF58274E13AF5C4
:10281800831213D6000000000545E5457002054403
:062828006404454470C188
:01282E002287
:101D7F00E4F537C202904019F090E6017480F0123A
:101D8F00000390E678E04401F0E05410FFC4540FD4
:101D9F00445090E159F0E013E43390E1C6F090E63F
:101DAF00007410F0123E4D904019E4F090E610745C
:101DBF00A0F090E611F000000090E612F000000095
:101DCF00E490E613F000000090E61474E0F00000D9
:101DDF0000E490E615F01222560000007402F000A5
:101DEF0000007406F0000000E4F000000090E61818
:101DFF00F00000007411F000000090E61A7409F072
:101E0F0000000012317F90E1C4EFF0E0FF444090FA
:101E1F002CE2F0EF541FB420004003022031901E3B
:101E2F0034F8282873021E94021E9F021EAB021E56
:101E3F00B7021EC3021EE1021EED021EF9021F05AC
:101E4F00021F11021F1F021F2D021F3B021F4902FB
:101E5F001F57021F65021F73021F81021F8F021F70
:101E6F009D021FAB021FB9021FC6021FD3021FE044
:101E7F00021FED021FFA0220070220140220210286
:101E8F002031021ED37A1979AD12224DFD02202C7A
:101E9F007A1979B31222947D0102202C7A1979B91B
:101EAF0012224D7D0202202C7A1979BF1222947DC5
:101EBF000302202C7BFF7A1979C4E4F53CF53D7DB4
:101ECF000402202C7BFF7A1979CA12224F7D05025A
:101EDF00202C7A1979D01220E97D0802202C7A194A
:101EEF0079D71220E07D0902202C7A1979DE122091
:101EFF00E97D0A02202C7A1979E51220E07D0B0288
:101F0F00202C7BFF7A1979EB1220E27D0C02202C1A
:101F1F007BFF7A1979F21220EB7D1002202C7BFFC8
:101F2F007A1979F81220E27D1102202C7BFF7A19A1
:101F3F0079FE1220EB7D1202202C7BFF7A1A790496
:101F4F001220E27D1302202C7BFF7A1A79091220CE
:101F5F00E27D1402202C7BFF7A1A790F1220EB7D81
:101F6F001002202C7BFF7A1A79151220E27D1102C4
:101F7F00202C7BFF7A1A791B1220EB7D1202202C6A
:101F8F007BFF7A1A79211220E27D1302202C7BFF2E
:101F9F007A1A79261220E27D1402202C7BFF7A1AFE
:101FAF00792C1220EB7D1002202C7BFF7A1A7932CC
:101FBF001220E27D1180667BFF7A1A79381220EBAE
:101FCF007D1280597BFF7A1A793E1220E27D1380B1
:101FDF004C7BFF7A1A79431220E27D14803F7BFFFE
:101FEF007A1A79491220EB7D1080327BFF7A1A79A9
:101FFF00501220E27D1180257BFF7A1A795712202B
:10200F00EB7D1280187BFF7A1A795E1220E27D1326
:10201F00800B7BFF7A1A79641220E27D14123E77CF
:10202F0080097BFF7A1A796B122D6CE4FF74C82F2D
:10203F00F582E434E1F583E4F02F12229CE4F00FF3
:10204F00BF15EA90401DE4F0123A19C20D123DEC93
:10205F0090E6C37480F090E6C214F000000090E6A2
:10206F00E27402F043B202D21675110112000E9003
:10207F004019E4F090E65EE04438F0E044C4F074B8
:07208F000112213F02275856
:1029B800E58070047F0180027F00EF90E68030E0C0
:1029C80006E04408F08004E054F7F0123975300B43
:1029D8002D90401FE030E026C20B7BFF7A1A7972F7
:1029E8001238BD90401FE4F090E6F574FFF0C2097C
:1029F800122256E4F0000000123E9E123F63300B94
:102A080059E5BB30E7547BFF7A1A79741238BD0058
:102A1800000090E6AFE090E6B012218BFED3EF9471
:102A280000EE94004016D390E19BE09F90E19AE07D
:102A38009E400990E6487406F0000000123D417B74
:102A4800FF7A1A798E1238BD90E698E0FF123D7D24
:0D2A580090E699E0FF123D7DC20B0228F1CF
:102A6500E4FF90E6B8E020E703022B0B0F0F74405C
:102A750024011220AD740AF00F744024021220AD17
:102A8500E4F00F744024031220AD7415F00F744068
:102A950024041220AD7401F00F744024051220ADFA
:102AA5007402F00F744024061220ADE4F00F744058
:102AB50024071220AD7404F00F744024081220ADD1
:102AC500E4F00F744024091220ADE4F00F744024A3
:102AD5000A1220ADE4F00F7440240B1220ADE4F08F
:102AE5000F7440240C1220ADE4F00F7440240D1235
:102AF50020ADE4F00F7440240E1220ADE4F090E711
:062B050040EFF01220BEBB
:012B0B0022A7
:102B0C00E4FF9040117404F0A374F0F0A37401F08E
:102B1C00E490E6CEF000000090E6CFF000000090CC
:102B2C00E6D0F000000090E6D17420F000000075B3
:102B3C00BB06000000904019E4F01FEF600AE5BBF3
:102B4C0020E70500000080F2E4FDFCEDAE04780205
:102B5C00C333CE33CED8F92402F58274F81222A4F2
:102B6C001221C8EBF0EDAE047802C333CE33CED8CD
:102B7C00F92403F58274F81222A4FE1222C4EBF09D
:102B8C000DBD00010CED64104C70C0123E9E122164
:102B9C00BF90E1DAE0904012F090E1DBE09040135E
:012BAC00F038
:012BAD002205
:10338A00E4FF9040117404F0904013E4F090401E62
:10339A007481F0E490E6CEF000000090E6CFF000F1
:1033AA00000090E6D0F000000090E6BEE0C3139063
:1033BA00E6D1F075BB06000000904019E4F01FEF5B
:1033CA00600AE5BB20E70500000080F2E4FF90E612
:1033DA00BEE0FEEFC39E50081220AAE4F00F80EE72
:0333EA00023E9E02
:1030250090E6B8E030E74D90E6BFE0FE90E6BEE002
:10303500FDED4E7002803890E6BDE0705D90E6BC17
:10304500E0147056754EFF754F1A75509075510006
:1030550075521E7B017AE779411237067B017AE7C3
:103065007940123E62EF0490E740F090E6BEE090B2
:10307500E68BF02290E6BFE0FF90E6BEE04F601AD7
:1030850090E6BFE07014122184700FEF24BF700A20
:0A30950090E6BEE0B40503123AE431
:01309F00220E
:10005600E4F541F54275110190E6B9E01214170571
:10006600581005581105941204592004B22104BDF4
:100076002204CC2300C32E07A93507A33801E8398B
:1000860000C93C0D283F084A910A34A20A34A30A43
:1000960027A909F4AC00CFB20B66B301D4B60CF2B3
:1000A600B7087DBA08B9BB0230BC05C4BE07C5BFD8
:1000B60001D6C305C4D20106D400000D2D12282F87
:1000C600020D2F123025020D2F9040117414F012DC
:1000D60022EE90E6BCE0905002F090E6BDE0905033
:1000E60002F090E6BAE0905001F090E6BBE0905046
:1000F60001F0D20290E6587410F090E65A0208D346
:1001060090E6B8E020E71A90E6A0E020E1F990E753
:1001160040E0FF90E6BCE0FEE42E12229CEF0205D2
:100126008CE4F53FF540A20233FF1220B7700205BA
:100136003F1222B0F090E65C1220B57002053F1225
:10014600209690E65A1220B57002053F122096902E
:10015600E65B1220B57002053F12209690E6581213
:1001660020B57002053F12209690E6591220B57010
:1001760002053F12209690E65E1220B57002053FFA
:1001860012209690E65F1220B57002053F12209667
:10019600E4F53DF53E12226DC333CE33CED8F912C7
:1001A60020CCFF121019AD0712226DC333CE33CE09
:1001B600D8F92540FFE53F3E1221C8EDF0053EE5A2
:1001C6003E7002053D6408453D70CA020CED800C88
:1001D600122158FD90E6BAE0FB122FA5122B0C0255
:1001E600086E90E6B8E020E7307A1A79A7120D5A21
:1001F6007BFF60067A1A79B480047A1A79C11238BC
:10020600BD90E6BCE0600A146003020D2FD20D809B
:1002160002C20D123E06020D2F90E6BCE0FFE42F4F
:1002260012229CE090E74002058C90E6B8E030E7A9
:100236000302035FE4F5100412213F7A1A79C6120D
:100246000D50D39400400A1220BE90E6A0E020E1B3
:10025600F990E6BEE0C39404405090E740E030E2F7
:10026600297BFF7A1A79D41238BD90E743E07BFFE9
:1002760030E0067A1A79E280047A1A79EE1238BDED
:1002860090E743E013920D123E0690E740E030E11E
:10029600197BFF7A1A79F71238BD90E742E0FF1210
:1002A6003D7D90E742E090401FF090E6BEE0600A98
:1002B60090E740E020E0030203547BFF7A1B7909B4
:1002C6001238BD90E6BBE0FF123D7D90E6BAE0FF36
:1002D600123D7D90E6BDE0FF123D7D90E6BCE0FF5D
:1002E600123D7DE5BB30E766E5AC20E061122158A2
:1002F6004FFF90E6BDE04FFF90E6BAE04F7003D3A4
:100306008001C392097BFF7A1B79171238BDA209B7
:10031600E433FF123D7D90E6BBE090E6CEF00000B0
:100326000090E6BAE090E6CFF000000090E6BDE06F
:1003360090E6D0F0000000A209E433FF90E6BCE0AE
:100346004F90E6D1F000000075BB060000001222B7
:10035600661238BDD20B020D2FE4F53FF54090E64C
:10036600B01220B57002053F12209600000090E6FC
:10037600AF1220B57002053F12209600000090E6ED
:10038600991220B57002053F12209600000090E6F3
:10039600981220B57002053F122096000000E51065
:1003A6005401FF90E6F4E054FE4F1220B6700205A9
:1003B6003F12209600000090E6141220B570020548
:1003C6003F12209600000090E61A1220B570020532
:1003D6003F12209600000090E6351220B570020507
:1003E6003F12209600000090E6341220B5700205F8
:1003F6003F1220960000000540E540AE3F70020522
:100406003F1424401221CCE5ACF000000090E6A990
:100416001220B57002053F12209600000090E654A7
:100426001220B57002053F12209600000090E65596
:100436001220B57002053F122096000000300A0413
:100446007F0180027F001220B77002053F1222B0A2
:1004560002058C7A1B7929120D50B4020E90E6BB68
:10046600E0C4333354C0122129802690E6BEE064EE
:1004760003701E90E6BBE0FF7401A807088002C364
:1004860033D8FC25E044C01221291220F290E7421D
:10049600F01220F290E740F090E6BAE075F008A47A
:1004A600FFA3E01220FF90E7410208757A1B79341A
:1004B600120D3EF0020D2F7BFF7A1B793F1238BDDD
:1004C600E490E68B802490E6B8E030E703020D2F37
:1004D60090E6BFE070047F0180027F0090E6BEE0F8
:1004E6004F60347A1B794B120D3EF0122158C4131B
:1004F6001354037C005403FDE42DF582EC122138DD
:1005060090E6BD12215BC413135403FDE42DF5825E
:10051600EC122138020D2F1220BE90E6A0E020E159
:10052600F990E6BEE064046003020D2F1222EE90FD
:10053600E742E0905002F090E743E0905002F090DE
:10054600E740E0905001F090E741E0905001F00262
:100556000D2F90E6B8E020E7157BFF7A1B795A123B
:1005660038BD1220BE90E6A0E020E1F9803D7BFF79
:100576007A1B79691238BD904015E090E740F090FB
:100586004016E090E741F0E490E68A0208757BFFAA
:100596007A1B79781238BD1220BE90E6A0E020E1E1
:1005A600F990E742E05403904014F090E740E09061
:1005B6004015F090E741E0904016F0020D2F90E6CE
:1005C600B8E030E7030206F07BFF7A1B7989123820
:1005D600BDC2051220BE90E6A0E020E1F990E740FA
:1005E600E090E1C8F0904000F090E741E090E1C96A
:1005F600F0904001F090E742E090E1CAF0904002AE
:10060600F090E743E090E1CBF0904003F090E744B0
:10061600E090E1CCF0904004F090E745E090E1CD29
:10062600F0904005F090E746E090E1CEF09040066D
:10063600F090E747E090E1CFF0904007F090E74870
:10064600E090E1D0F0904008F090E749E090E1D1E9
:10065600F0904009F090E74AE090E1D2F090400A2D
:10066600F090E74BE090E1D3F090400BF090E74C30
:10067600E090E1D4F090400CF090E74DE090E1D5A9
:10068600F090400DF090E74EE090E1D6F090400EED
:10069600F090E74FE090E1D7F090400FF090E750F0
:1006A600E090E1D8F0904010F090E751E090E1D969
:1006B600F0904011F090E752E090E1DAF0904012AD
:1006C600F090E753E090E1DBF0904013F090E1C446
:1006D600E0541FD394045003020D2F90E754E0908A
:1006E600E1DCF090401DF0020D2F7BFF7A1B799A1A
:1006F6001238BD90E1C8E090E740F090E1C9E09083
:10070600E741F090E1CAE090E742F090E1CBE0905B
:10071600E743F090E1CCE090E744F090E1CDE09043
:10072600E745F090E1CEE090E746F090E1CFE0902B
:10073600E747F090E1D0E090E748F090E1D1E09013
:10074600E749F090E1D2E090E74AF090E1D3E090FB
:10075600E74BF090E1D4E090E74CF090E1D5E090E3
:10076600E74DF090E1D6E090E74EF090E1D7E090CB
:10077600E74FF090E1D8E090E750F090E1D9E090B3
:10078600E751F090E1DAE090E752F090E1DBE0909B
:10079600E753F090E1DCE090E75402087590E6F547
:1007A60074FFF090E6BCE0601090E6AFE090E6984B
:1007B600F090E6B0E090E699F0123E9E020D2F7B97
:1007C600FF7A1B79AA1238BD90E6BEE070277BFF40
:1007D6007A1B79BF1238BD904018E0FF123D7D901C
:1007E6004017E0FF123D7D1222661238BD90401977
:1007F600E4F0020D0590E6BEE064047BFF702D7AFE
:100806001B79D71238BD904019E4F01222019040AE
:1008160019E4F0904017E090E742F0904018E0901D
:10082600E743F090E68B7404F0020D2F7A1B79EF04
:100836001238BD12220190E68B7402F0904019E442
:10084600F0020D2F7BFF7A1C790C1238BD90E19DCA
:10085600E0FF90E740F0EF7BFF70067A1C79198085
:10086600047A1C7920120D3190E6BFE090E68AF0FA
:1008760090E6BEE0020D057BFF7A1C79271238BD93
:1008860090E1DDE0FFB4010890E74074BBF080081A
:1008960090E1C4E090E740F0EF7BFFB401067A1CDC
:1008A600793480047A1C7941120D3112212004F02A
:1008B600020D2F90E6B8E030E71990E6BEE0B401ED
:1008C6001290E7407401F0123A1990E68B7401F029
:1008D600020D2F7BFF2005107A1C794F1238BDD2EE
:1008E60005C20D123DEC80077A1C795D1238BD9069
:1008F600E1DDE0640160030209D6123DD190E740D4
:1009060074BBF090E6BBE0C313FFE5B154802FF54E
:10091600B1E090E6C4F090E6BAE090E6C5F01221A8
:100926008490E1A0F0A3EFF090E1A0E0FEA3E0FF49
:100936004E70030209E7E5BB30E7EDE5AB20E1E8E1
:1009460090E19AE0FCA3E0FDD3EF9DEE9C4022905F
:10095600E19AE0FAA3E0FBEA90E6D0F0000000EBB3
:1009660090E6D1F000000090E156ECF0A3EDF080A7
:100976002790E1A0E0FCA3E0FDEC90E6D0F00000BB
:1009860000ED90E6D1F000000090E1A0E0FFA3E0CA
:1009960090E156CFF0A3EFF0E4F5BB000000E5BB15
:1009A60020E7030080F8000000000090E156E0FE1A
:1009B600A3E0FFC390E1A1E09FF090E1A0E09EF0EC
:1009C600E5B1547F04FFE5B154802FF5B102092E3D
:1009D6007BFF7A1C795F1238BD90E1C4E090E74056
:1009E600F012000E90E6BFE0122224020D057BFFF6
:1009F6007A1C796D1238BD7BFF7A1C797C1238BD62
:100A060090E6B5E054FEF090E6BFE01220BF90E617
:100A1600BBE090E6B3F090E6BAE090E6B4F0020DE3
:100A26002F90E1C67401F090E159E04401F07BFF9C
:100A36007A1C798A1238BD90E6BAE0753700F53827
:100A4600A3E0FEEE423790E6BEE0753900F53AA324
:100A5600E0FEEE423990E6B8E064C06003020B07A0
:100A6600E53A45397003020D2F90E6A0E020E1F942
:100A7600C3E53A9440E5399400500885393B853AF8
:100A86003C8006753B00753C4090E6B9E064A37077
:100A96004090E6BCE0B4011BA3E0701790E6BBE013
:100AA60030E71090E7407403F0A37401F0A37407D5
:100AB600F08042E4F53DF53E1222195038122274B8
:100AC600E0FF1221B0EFF0053EE53E70EB053D80FC
:100AD600E7E4F53DF53E12221950101221B074CD0F
:100AE600F0053EE53E70EF053D80EB122110AF3874
:100AF600AE37123758122120E53CF012216C020A5B
:100B06006690E6B8E064406003020D2FE53A453989
:100B16007003020D2F122120F090E6A0E020E1F9EB
:100B260090E68BE0753B00F53C90E6B9E0B4A31E79
:100B3600E4F53DF53E122219501E1221B0E0FF12D7
:100B46002274EFF0053EE53E70EB053D80E712218D
:100B560010AF38AE371239E4E53C12216C020B12A5
:0A0B660090E6B8E030E703020C153A
:100B700090E6BDE030E60312275890E6BDE030E78E
:100B800004C2068004A201920690E6BEE0701B7BC0
:100B9000FF7A1C79A01238BD1220C3122158FD9093
:100BA000E6BAE0FB122FA5020D2F7BFF7A1C79B36A
:100BB0001238BD1220BE90E6A0E020E1F9E4F53D38
:100BC000F53E90E740E0F543E5437003020D2FC387
:100BD000E53E9404E53D94004003020D2FE54330CB
:100BE000E023AF3EC007E53E25E0FFE53D33FE7460
:100BF000422FF58274E73EF583E0FD1222C4E0FB4C
:100C0000D007122FA5053EE53E7002053DE543C322
:050C100013F54380B361
:100C15007A1C79CB120D5A6076754BFF754C1C7595
:100C25004DDD90E1A41220D5F5518E508D4F8C4E9F
:100C3500A31220D5F5558E548D538C52A31220D571
:100C4500F5598E588D578C56A31220D5F55D8E5CBF
:100C55008D5B8C5AA31220D5F5618E608D5F8C5EFD
:100C6500A31220D5F5658E648D638C62A31220D501
:100C7500F5698E688D678C66A31220D5F56D8E6C2F
:100C85008D6B8C6A7B017AE7794012156E8059A2CB
:100C950001E43390E740F0A206E433A3F0E4A3F0C7
:100CA500A3F0F53DF53E12226DC333CE33CED8F910
:100CB5001220CCFFC004C005C006C00712226DC3B8
:100CC50033CE33CED8F92444F58274E73EF583D08C
:100CD50007D006D005D0041213CA053EE53E7002C2
:100CE500053D6408453D70BE12222380137BFF7AC3
:100CF5001D79171238BD90E6B8E030E709122223B6
:100D050090E68BF0802490E6BEE0D394004005E0A9
:100D150090E68BF090E19CE0448090401EF0123804
:0B0D2500FD8007122A658002D322C364
:100D3000221238BD7BFF7A1979911238BD227BFFD0
:100D40001238BDE490E68BF090E6BBE090500322B1
:100D50007BFF1238BD90E6BEE0227BFF1238BD90CB
:040D6000E6BCE022EB
:103EC2007BFF7A1D792A1238BD7F017E001237F2FC
:023ED200D322F9
:103ED4007F017E001237F27BFF7A1D79381238BDDC
:023EE400D322E7
:023F6D00D3225D
:1036030090E680E030E72100000090E6247402F0A9
:10361300000000E490E625F0000000D20790E19A54
:103623007402F0A3E4F0801F000000E490E624F0AD
:1036330000000090E6257440F0000000C20790E10E
:103643009AE4F0A37440F090E6BAE090E1C5F0127A
:0736530022661238BDD322EC
:0A3F1C0090E1C512211B04F0D3222E
:0A3F260090E6BAE090E158F0D322D3
:0A3F300090E15812211B04F0D32287
:023F6F00D3225B
:023F7100D32259
:023F7300D32257
:103C5F00C0E0C083C082C085C084C086758600D294
:103C6F00171221657401F0D086D084D085D082D010
:043C7F0083D0E032DC
:103CC600C0E0C083C082C085C084C08612216274F1
:0F3CD60004F0D086D084D085D082D083D0E03265
:103CE500C0E0C083C082C085C084C08612216274D2
:0F3CF50002F0D086D084D085D082D083D0E03248
:1032BB00C0E0C0F0C083C082C085C084C086758664
:1032CB0000C0D075D000C000C001C002C003C00454
:1032DB00C005C006C007856D69856E6A1222CF8551
:1032EB00656B85666C1222DA1221657410F07BFF18
:1032FB007A1D7945123252D007D006D005D004D0B2
:10330B0003D002D001D000D0D0D086D084D085D0CD
:08331B0082D083D0F0D0E03233
:103D0400C0E0C083C082C085C084C08612216274B2
:0F3D140008F0D086D084D085D082D083D0E03222
:10393A00C0E0C083C082C085C084C08675860090FE
:10394A00E680E030E71285656985666A1222CF85CE
:10395A006D6B856E6C1222DA1221657420F0D086A6
:0B396A00D084D085D082D083D0E03222
:013F75003219
:013F76003218
:013F77003217
:013F78003216
:103C8300C0E0C083C082C085C084C0867586001230
:103C930022817404F0D086D084D085D082D083D0A2
:023CA300E0320D
:102F1C00C0E0C0F0C083C082C085C084C086758606
:102F2C0000C0D075D000C000C001C002C003C004F6
:062F3C00C005C006C0073D
:102F420090E68DE0FF90E6A2E020E127E4FEEEC3EA
:102F52009F501B74802EF582E434E7F583E0FD7404
:102F6200C02EF582E434E7F583EDF00E80E090E6C2
:102F72008FEFF07BFF7A1D794D123252122281744B
:022F820008F055
:102F8400D007D006D005D004D003D002D001D000A1
:102F9400D0D0D086D084D085D082D083D0F0D0E079
:012FA40032FA
:10365A00C0E0C0F0C083C082C085C084C0867586C1
:10366A0000C0D075D000C000C001C002C003C004B1
:10367A00C005C006C0077BFF7A1D79531232521269
:10368A0022817410F0D007D006D005D004D003D020
:10369A0002D001D000D0D0D086D084D085D082D0BC
:0636AA0083D0F0D0E032F5
:013F79003215
:1036B000C0E0C0F0C083C082C085C084C08675866B
:1036C00000C0D075D000C000C001C002C003C0045B
:1036D000C005C006C0077BFF7A1D795B123252120B
:1036E00022817440F0D007D006D005D004D003D09A
:1036F00002D001D000D0D0D086D084D085D082D066
:0637000083D0F0D0E0329E
:013F7A003214
:1030A000C0E0C0F0C083C082C085C084C086758681
:1030B00000C0D075D000C000C001C002C003C00471
:0630C000C005C006C007B8
:1030C6005391EF75100190E659E0F524300205C2E0
:1030D600021221BF7BFF7A1D796412325290E659A3
:0930E60074FFF090E65B7401F048
:1030EF00D007D006D005D004D003D002D001D00035
:1030FF00D0D0D086D084D085D082D083D0F0D0E00D
:01310F00328D
:013F7B003213
:013F7C003212
:1033ED00C0E0C0F0C083C082C085C084C086758631
:1033FD0000C0D075D000C000C001C002C003C00421
:10340D00C005C006C0075391EF90E65B7410F07BCA
:10341D00FF7A1D7968123252D007D006D005D0043C
:10342D00D003D002D001D000D0D0D086D084D085AA
:09343D00D082D083D0F0D0E0323F
:013F7D003211
:10344600C0E0C0F0C083C082C085C084C0867586D7
:1034560000C0D075D000C000C001C002C003C004C7
:10346600C005C006C0075391EF90E65B7440F07B41
:10347600FF7A1D796B123252D007D006D005D004E0
:10348600D003D002D001D000D0D0D086D084D08551
:09349600D082D083D0F0D0E032E6
:013F7E003210
:013F7F00320F
:013F8000320E
:013F8100320D
:013F8200320C
:013F8300320B
:013F8400320A
:013F85003209
:013F86003208
:013F87003207
:10349F00C0E0C0F0C083C082C085C084C08675867E
:1034AF0000C0D075D000C000C001C002C003C0046E
:1034BF00C005C006C0075391EF90E6517402F07B30
:1034CF00FF7A1D796F123252D007D006D005D00483
:1034DF00D003D002D001D000D0D0D086D084D085F8
:0934EF00D082D083D0F0D0E0328D
:013F88003206
:1034F800C0E0C0F0C083C082C085C084C086758625
:1035080000C0D075D000C000C001C002C003C00414
:10351800C005C006C0075391EF90E6557402F07BD2
:10352800FF7A1D7973123252D007D006D005D00425
:10353800D003D002D001D000D0D0D086D084D0859E
:09354800D082D083D0F0D0E03233
:013F89003205
:10355100C0E0C0F0C083C082C085C084C0867586CB
:1035610000C0D075D000C000C001C002C003C004BB
:10357100C005C006C0075391EF90E6517401F07B7E
:10358100FF7A1D7977123252D007D006D005D004C8
:10359100D003D002D001D000D0D0D086D084D08545
:0935A100D082D083D0F0D0E032DA
:013F8A003204
:1035AA00C0E0C0F0C083C082C085C084C086758672
:1035BA0000C0D075D000C000C001C002C003C00462
:1035CA00C005C006C0075391EF90E6557401F07B21
:1035DA00FF7A1D797B123252D007D006D005D0046B
:1035EA00D003D002D001D000D0D0D086D084D085EC
:0935FA00D082D083D0F0D0E03281
:013F8B003203
:013F8C003202
:013F8D003201
:06383800AB07AA06AC0577
:10383E00E4FD90E1C6E0600B7E000DEE24DE122268
:10384E00BCEAF0AE050D74DE2E1222BCEBF0AF0515
:10385E000D74DE2F1222BCECF090E159E0FF7AE1FC
:0D386E007BDE123DB590E159E0FF0239AE5E
:0A39E4008E448F458D468A478B48BC
:1039EE00E4F549E549C3954650200545E545AE4405
:1039FE007002054414FFE5482549F582E43547F584
:0A3A0E0083E0FD123838054980D925
:013A1800228B
:0A3758008E468F478D488A498B4A40
:10376200E4FDF54B90E1C6E06012E546FF7E000DF8
:10377200EE24DEF582E434E1F583EFF0AE050D745C
:10378200DE2EF582E434E1F583E547F090E159E07D
:10379200FF7AE17BDE123DB590E159E0FFAB4AAA28
:0637A20049AD48023D990B
:103DEC00A20D920A90401F300A07E4F0122C438077
:0A3DFC00067402F0122BAE023E9E88
:103E0600A20D920A90401F300A07E4F0122C43805C
:0A3E1600067402F0122BAE023E9E6D
:10332300EFC3940250047E0E80027E0FAB06EF546F
:1033330001FE90E67AE04401F0C2E990E678E044C9
:1033430080F0EB25E090E679F090E678E030E0F964
:10335300EE441890E679F090E678E030E0F9EC90EE
:10336300E679F090E678E030E0F9ED90E679F090D8
:10337300E678E04440F090E678E030E0F990E678D3
:06338300E020E6F9D2E9AA
:013389002221
:093F4C00050DE50D7002050C22C3
:08000300E4F51ED2E9D2AF22A0
:1039AE0090E678E020E6F9C2E990E678E04480F00F
:1039BE00EF25E090E679F090E678E030E0F990E6D9
:1039CE0078E04440F090E678E020E6F990E678E082
:0639DE0030E1D6D2E9221F
:103A8100A90790E678E020E6F9E51E702390E67834
:103A9100E04480F0E925E090E679F08D19AF03A9C3
:103AA10007751A018A1B891CE4F51D751E01D322B5
:023AB100C3222E
:103A4D00A90790E678E020E6F9E51E702590E67866
:103A5D00E04480F0E925E0440190E679F08D19AF5E
:103A6D0003A907751A018A1B891CE4F51D751E0330
:043A7D00D322C3226B
:03004B000226503A
:10265000C0E0C083C082C085C084C086758600C0CB
:10266000D075D000C000C001C002C003C006C007C2
:1026700090E678E030E206751E0602273A90E6788A
:10268000E020E10CE51E64026006751E0702273A91
:10269000E51E24FE605F14603624FE700302272BC3
:1026A00024FC70030227372408600302273AAB1A80
:1026B000AA1BA91CAF1D051D8F827583001212F580
:1026C00090E679F0E51D65197070751E05806B90B8
:1026D000E679E0AB1AAA1BA91CAE1D8E8275830099
:1026E000121334751E02E5196401704E90E678E00D
:1026F0004420F08045E51924FEB51D0790E678E0FA
:102700004420F0E51914B51D0A90E678E04440F045
:10271000751E0090E679E0AB1AAA1BA91CAE1D8EAF
:1027200082758300121334051D800F90E678E04413
:1027300040F0751E008003751E005391DFD007D056
:1027400006D003D002D001D000D0D0D086D084D023
:0827500085D082D083D0E03275
:103D9900123A4DE51E24FA600E146006240770F3EA
:0C3DA900D322E4F51ED322E4F51ED32241
:103DB500123A81E51E24FA600E146006240770F39A
:0C3DC500D322E4F51ED322E4F51ED32225
:100D6400021085E86480F8E933E83360110460F028
:100D7400ED33EC337009E8FCE9FDEAFEEBFF2204F5
:100D840060DED3EB9FEA9EE99DE8C2E78CF0C2F7F0
:100D940095F0400CE8CCF8E9CDF9EACEFAEBCFFBBC
:100DA40012105085D0F05804700320D5B3E80470B5
:100DB400075002B2D502108F92D5EC0460F7E4CC50
:100DC400C0E0C398F8603B94186008400DD0E0FB85
:100DD400021067E4FBFAC9FC8028E830E406E4C9A1
:100DE400FBE4CAFCE830E305E4C9CACBFCE85407D9
:100DF4006010F8C3E913F9EA13FAEB13FBEC13FCE4
:100E0400D8F130F52FC3E49CFCEF9BFFEE9AFEED86
:100E140099FDD0E0FBEF4E4D4C701222DB03021023
:100E24008CEC2CFCEF33FFEE33FEED33FDED30E7BD
:100E3400EB021067EF2BFFEE3AFEED39FDD0E0FB3D
:100E440050130BBB000302108FED13FDEE13FEEFE6
:080E540013FFEC13FC02106710
:100E5C00EC4D6011E8497017ED33EC3304600DE490
:100E6C00FCFFFEFD22E933E8330470F80210851212
:100E7C00105058046009E4CC248150062850090213
:100E8C00108F28400302108CC0E0EB4A7044B980EC
:100E9C0006D0E0FB02107BEF4E701CBD8008EBFF10
:100EAC00EAFEE9FD80EBE98DF0A4FEE5F0020F45CA
:100EBC00E9CDF9EAFEEBFFEF89F0A4FCE5F0CE8971
:100ECC00F0A42EFFE435F0CD89F0A42DFEE435F02E
:100EDC008067EF4E7005BD80D780C3EF8BF0A4AC5C
:100EEC00F0EE8BF0A42CFCE435F0F8EF8AF0A42C97
:100EFC00E5F038FCE433CB8DF0A42CFCE5F03BF8AA
:100F0C00EE8AF0A42CFCE5F038F8E433CF89F0A499
:100F1C002CFCE5F038CF3400CE89F0A42FFFE5F09F
:100F2C003EFEE433C98DF0A42EFEE5F039CD8AF0F7
:100F3C00A42FFFE5F03EFEE43DFD33D0E0FB50076F
:100F4C000BBB000F02108FEC2CFCEF33FFEE33FECB
:060F5C00ED33FD021067F9
:100F620074F8CC6480CCC86480C8F58204604FC336
:100F7200EB9FF5F0EA9E42F0E99D42F0E89C45F0D5
:100F8200603C501DE5825FFFE582D313CB5BCBF45F
:100F92002B5582FB50280ABA002409B90020088088
:100FA2001DE5825BFBE582D313CF5FCFF4C3132F22
:100FB2005582FF50090EBE00050DBD00010CC3EBAA
:100FC2009FF5F0EA9E42F0E99D42F0E89C45F06010
:090FD20007CC4820E701B3EC2232
:100FDB0075F020800E75F010800575F0087D007E91
:100FEB00007F003392D530D5031213ABEC33401096
:100FFB00EF33FFEE33FEED33FDEC33FCD5F0ED229A
:0E100B00E5F0247EA2D513CC92E7CDCEFF22D5
:10101900EDD2E7CD33EC3392D524814006E4FFFECF
:10102900FDFC22FCE4CFCECDCC24E0501174FF802E
:10103900EDC3CC13CCCD13CDCE13CECF13CF0470CB
:07104900F030D5DE0213AB0D
:10151200E55F244BF8E6055F227848301402784BE9
:10152200E475F0011214070212DC200DEB7F2ED2BB
:101532000D8018EF540F2490D43440D4FF30110B97
:10154200EF24BFB41A0050032461FFE56060021566
:10155200600563E5637002056230140D7848E47536
:10156200F001121407EF021322023BEE7403D214AD
:101572008003E4C214F55F8B488A49894AE4F56026
:10158200F562F563E56060077F2012154D80F57501
:1015920061FFC20EC20DC20FC210C212C213C21527
:1015A20012151BFF700D3014057F0012155EAF631C
:1015B200AE6222B4255FC2D5C21112151BFF24D020
:1015C200B40A00501A75F00A786030D50508B6FFE3
:1015D2000106C6A426F620D5047002D21080D924B2
:1015E200CFB41A00EF5004C2E5D21102184BD20E4A
:1015F20080C6D20D80C0D20F80BCD2D580BAD212A2
:1016020080B47F2012154D200F077401B560004091
:10161200F1121512FF12154D021586D215D2138042
:1016220095121512FB121512FA121512F94A4B7085
:101632000679427A197BFF200F2EE560602A7E0030
:101642008E827583001212F560060EEE656170F0EF
:10165200C2D5EBC0E0EAC0E0E9C0E0EE1218ABD0C0
:10166200E0F9D0E0FAD0E0FB1212DCFF60AAEBC096
:10167200E0EAC0E0E9C0E012154DD0E02401F9D063
:10168200E03400FAD0E0FBE5610460DCD561D9808A
:1016920087D20F80A212188E60F7E56170010412E2
:1016A200109AA961600DE561600914F5611219359E
:1016B200EF60F3EA30E702F404C3995077EAF425C5
:1016C200610430E701E404F561800D12188E60C1F7
:1016D200EA0561256112109AEA785EF630E701E4C4
:1016E200256104D56104201201141218ABE4C0E094
:1016F200121935785EE6601320E70714F6121535E5
:10170200802204F6D0E014C0E07F00121535E561B6
:10171200600712152C1561800B30120312152CD0A4
:10172200E0021586D0E00480C512188E60A0E56143
:101732000412109A785EEAF6E56120120260010452
:0517420024041218ABA5
:1017470074FF04C0E0121935121535E56120120245
:10175700600312152CD0E0B561E87F4512153F787C
:101767005EE67F2B30E7047F2DF404C0E012154DB1
:10177700D0E075F00A84C0F0121536D0E0121536A5
:10178700021586791080027908C213C2158008D223
:10179700D5790A8004790AC2D5E561047002F5613A
:1017A700E4FAFDFEFF121512FC7B08200E1312153A
:1017B70012FD7B10300D0A121512FE121512FF7B57
:1017C70020EC3382D592D55013C3E4300D069FFF2A
:1017D700E49EFEE4200E039DFDE49CFCE4CBF8C2EE
:1017E7000EEC700CCFCECDCCE824F8F870F3801750
:1017F700C3EF33FFEE33FEED33FDEC33FCEB33FB8E
:10180700994002FB0FD8E9EB300E05F8D0E0C44849
:10181700B20EC0E00AEC4D4E4F78207B0070C2EA52
:10182700B5610040BCC0E01218ADD0F0D0E0200E8A
:1018370004C4C0E0C4B20EC0F0121536D0F0D5F023
:10184700EB021586121417162353178A5815F44CF2
:1018570015F042178E4F17964417964916094317E6
:101867009C5516CD46172B4516974719625015F804
:101877002D15FC2E161F2B160023161D20194B2A7B
:1018870015B84800001617E561B4FF037561061225
:101897001512FC121512FD121512FE121512FF7801
:1018A700570210C9790AA2D5201014301209B910AD
:1018B700020404B9080104A2D52013025001042030
:1018C7000F68920FB560005034C0E07F20301019C8
:1018D7007F30A20F72137212500F121904C20FC277
:1018E70013C212C2157F30800F301203E9C0E01215
:1018F700154D301203D0E0F9D0E0B560CC301217A7
:101907007F30B9100C12154D7F583011077F788042
:1019170003B9080312154D300F057F2D02154D7FB2
:10192700202015F87F2B2013F322920F80CF7F0002
:10193700B4070050052457F8E6FF22286E756C6C33
:101947002900D20E121512300EF8C20E786030D56B
:101957000108F60215B82D504349581215122403F1
:10196700B405004001E490195D9312153E743A12D4
:0A197700153ED21075600402178AB5
:10105000E9D2E7C933E833F892D5EDD2E7CD33ECE6
:0710600033FC5002B2D5225F
:10106700EC30E7100FBF000C0EBE00080DBD0004EA
:101077000BEB6014A2D5EB13FCED92E7FD2274FF96
:10108700FCFDFEFF22E480F8A2D574FF13FC7D80EF
:03109700E480EF03
:10109A00F920E72824F950037907E4F42402FB181D
:1010AA00DBFDE624FB5014E9600DE4F618E604F6CD
:0F10BA00B40A08E4F6D9F57401F60A22C2D52269
:1010C900ED33EC3392D5FA602AB4FF33EDC2E77BF6
:1010D900FF60067A1079EEE4227A1079F720D504B8
:1010E9007A1079F2224E614E002B494E46002D4965
:1010F9004E4600E47A08F608DAFC7B00740722E819
:10110900C0E0ECC0E0EDC0E0EEC0E0EFC0E0EA75A1
:10111900F010A4CAABF075F04DA42BFBE435F0FC3C
:10112900EA2410FAEB34C5FBEC34D9FCEDC2E7FF35
:1011390075F056A4F42411C5F0F434C58FF0A42A2F
:10114900E5F03BE43CF620E71412129CD0E0FFD016
:10115900E0FED0E0FDD0E0FC1211CF8014F40412BF
:10116900129CD0E0FFD0E0FED0E0FDD0E0FC120EF2
:101179005CD0E0F8E6FAEDD2E7CD33EC332482FB1C
:10118900E4C3CF33CFCE33CECD33CD33DBF37B07BF
:1011990075F00A846004F6081B0AE5F0F6088FF07A
:1011A900740AA4FFACF08EF0740AA42CFEACF050C3
:1011B900010C8DF0740AA42CFDE435F0F608DBDE91
:0311C90074072286
:1011CC0002108FEC5D046005E85904700302108571
:1011DC00121050580460F6EC4860F2EC7004FDFEFE
:1011EC00FF22C860DB2481C85009C39860025006F6
:1011FC0002108C9850CAF582E9294B4A7005AB82D3
:10120C0002107B75F0007C1A7880C3EF9BEE9AED90
:10121C0099400DC3EF9BFFEE9AFEED99FDE842F06D
:10122C00DC23ACF0D0E0FFD0E0FED0E0FDAB8220C0
:10123C00E7101BEB60BAEC2CFCEF33FFEE33FEED4A
:10124C0033FD021067E803F830E705C0F075F000D5
:10125C00EF2FFFEE33FEED33FD40B830E7C280AA2E
:10126C003F8000004120000042C80000447A00008A
:10127C00461C400047C35000497424004B1896800C
:10128C004CBEBC205A0E1BCA6753C21C749DC5AE03
:10129C00FB60065407601C23231212CAEB543860FF
:1012AC00091212B61212C5120E5CECF8EDF9EEFA38
:1012BC00EFCB22EB1212C580F1543803241C901290
:1012CC006CFE93FC0EEE93FD0EEE930ECE93FF226E
:03000000022E903D
:0C2E9000787FE4F6D8FD758177022ED71C
:1012DC00BB010689828A83E0225002E722BBFE0210
:0912EC00E32289828A83E4932243
:1012F500BB010CE58229F582E5833AF583E02250AE
:1013050006E92582F8E622BBFE06E92582F8E222F7
:0D131500E58229F582E5833AF583E4932211
:10132200BB010689828A83F0225002F722BBFE01AA
:02133200F322A4
:10133400F8BB010DE58229F582E5833AF583E8F0EF
:10134400225006E92582C8F622BBFE05E92582C89B
:02135400F22283
:10135600BC000BBE0029EF8DF084FFADF022E4CC7B
:10136600F875F008EF2FFFEE33FEEC33FCEE9DEC44
:10137600984005FCEE9DFE0FD5F0E9E4CEFD22ED8A
:10138600F8F5F0EE8420D21CFEADF075F008EF2FD4
:10139600FFED33FD4007985006D5F0F222C398FDC5
:0513A6000FD5F0EA2262
:0E13AB00C3E49FFFE49EFEE49DFDE49CFC2253
:1013B900EB9FF5F0EA9E42F0E99D42F0E89C45F08A
:0113C9002201
:0C13CA00ECF0A3EDF0A3EEF0A3EFF02296
:1013D600A8828583F0D083D0821213ED1213ED120A
:1013E60013ED1213EDE473E493A3C583C5F0C5832F
:1013F600C8C582C8F0A3C583C5F0C583C8C582C861
:0114060022C3
:10140700FAE6FB0808E6F925F0F618E6CA3AF622E6
:10141700D083D082F8E4937012740193700DA3A364
:1014270093F8740193F5828883E473740293686078
:06143700EFA3A3A380DF78
:103BEE00EFB40A07740D123BF9740A309811A899B4
:103BFE00B8130CC2983098FDA899C298B811F63037
:073C0E0099FDC299F599220E
:103706008B4B8A4C894DE4F553F554E5521552AE70
:1037160051700215514E6033AB4EAA4FA95012128A
:10372600DCFFAB4BAA4CA94D0554E554AC537002D3
:10373600055314F5828C83EF121334EF60CD7401B8
:103746002550F550E4354FF54F80C0AB4BAA4CA938
:023756004D2202
:103E6200E4FFFE1212DC600C0FEF70010E09E97024
:053E7200F20A80EF22BE
:10143D00E709F60870FA8046E709F20870FA803E6F
:10144D0088828C83E709F0A370FA8074E309F608AB
:10145D0070FA806CE309F20870FA806488828C83DC
:10146D00E309F0A370FA805889828A83E0A3F60815
:10147D0070FA804C89828A83E0A3F20870FA80406A
:10148D0080D280FA80C680D4805180F2802780106F
:10149D0080A680EA809A80A880DA80E280CA8027C0
:1014AD0088848C8589828A83E493A30586F0A305BD
:1014BD008670F5800B89828A83E493A3F60870F910
:1014CD00ECFAA9F0EDFB2288848C8589828A83E071
:1014DD00A30586F0A3058670F680E589828A83E4EC
:1014ED0093A3F20870F980D888F0ED2402B40400BB
:1014FD0050CEF582EB2402B4040050C42323458260
:05150D002390148D7312
:102E9C00022DFFE493A3F8E493A34003F68001F220
:102EAC0008DFF48029E493A3F85407240CC8C33337
:102EBC00C4540F4420C8834004F456800146F6DF06
:102ECC00E4800B01020408102040809022F8E47E7C
:102EDC00019360BCA3FF543F30E509541FFEE493FB
:102EEC00A360010ECF54C025E060A840B8E493A3C2
:102EFC00FAE493A3F8E493A3C8C582C8CAC583CAED
:102F0C00F0A3C8C582C8CAC583CADFE9DEE780BEA4
:0124A5000036
:00000001FF
