:1008F1000012010002000000400516024000000144
:100901000200010A0600020000004001000902196C
:100911000001010080320904000001FF000003070B
:1009210005020200020009021900010100803209DA
:1009310004000001FF00000307050202400000045B
:100941000309040C03410043004300450053001810
:10095100035500530042002D004400410031003294
:10096100002D00380041000C0344004100430020E9
:0B097100004400610074006100000001
:03000000020200F9
:1002000090E6007412F0750800750900750B007512
:100210000A00750C00750D00750E00750F007581D4
:100220005F7A007B007C007D007E0075B00075B5B4
:100230000F7580FF75B20675B37FD296D282D2B3A6
:10024000C295743690C003F07582007490F074010A
:10025000F0D295C2B3C0E0D2B39040007480F0C237
:10026000B3D0E0D290D293D292D291C2927E027158
:10027000DAC2937E0271DAC2907E0271DAC2917E96
:100280000271DAD2927E0271DAD2937E0271DAD2F0
:10029000907E0271DAD2917E0271DAC2900090E60D
:1002A000047480F00090E6047400F00090E604749A
:1002B00002F00090E6047404F00090E6047406F086
:1002C0000090E6047408F00090E6047400F00090DA
:1002D000E69074FFF00090E69174FFF090E68B7466
:1002E000FFF090E6A07480F090E6B57401F090E61F
:1002F00080E020E10BD2E3D2E1F075F000D5F0FD13
:1003000090E680E0C2E3F0E50FA2E5500271D42050
:10031000B70BE509B4010675080075090090E6A35E
:10032000E020E202E17190E65DE030E204E4D2E236
:10033000F020E00930E604E4D2E6F080CAE4D2E03E
:10034000F090E6A0E04480F090E6B9E0B406030245
:100350000860B40A0261E1B40B0261E1B409026110
:10036000E1B40802807BB401028076B4003C90E6E0
:10037000B8E0B4801890E7407402F0A37400F090E5
:10038000E68A7400F090E68B7402F08054B4811316
:100390007400F0A3F090E68A7400F090E68B74028B
:1003A000F0803EB4820280398037B4B0028034B429
:1003B000B1028138B4B2028154B4B3028165B4B4DD
:1003C0000281E9B4B50281EBB4A20281EDB4CC02A2
:1003D000A1016107A280B3929422DCFEDDFCDEFA6B
:1003E00022A10B90E6BAE0C0E030E717C0E0D2B33C
:1003F0009040007480F0C2B3D0E0750900D291D271
:1004000093D292D0E0C0E030E600D0E0C0E030E02F
:1004100017D2949040007401D2B3F0750901C2B3B1
:10042000E50FA2B492E0F50FD0E0C0E0A2E5E50F41
:1004300092E5F50FD0E0A10B90E6BCE0F50A90E65E
:10044000BDE0F50B90E6BBE05407F50D12082175F1
:100450000801A10B90E6BCE0C5F090E6BDE0C5F058
:10046000120807A10B758600D294D2B39080107445
:1004700001F090E6BEE0B4001F90E6BBE0F500900E
:10048000E6BAE0F50190E6BCE023F582758380E5ED
:1004900001F0A3E500F0804390E68B74FFF090E656
:1004A000A0E05402B400F775858075840090E740A1
:1004B000E0A38006A3A305840584B40002801CC3C6
:1004C0001350F1C0E0E00586F00586A30584E00541
:1004D00086F00586A30584D0E080DF908012F0903E
:1004E00080107400F0C2B380228020801E90E6B895
:1004F000E0B4C004B1198013B44004D142800C8030
:100500000A90E6BCE0A2E09281800090E68A440076
:10051000F090E68B447FF0610790E6BEE0F9B4000E
:10052000012290E6BAE0FAA3E0FBC0E0C082C083FB
:1005300090E678E0D2E7F0D083D082D0E090E67900
:1005400074A2F0C0E0C082C08390E678E030E0FCA6
:10055000A2E1D083D082D0E0EBF0C0E0C082C083C3
:1005600090E678E030E0FCA2E1D083D082D0E0EAEF
:0D057000F0C0E0C082C08390E678E030E08B
:10057D00FCA2E1D083D082D0E090E740AA8278003F
:10058D00C0E0C082C08390E678E0D2E7F0D083D09F
:10059D0082D0E090E67974A3F0C0E0C082C0839071
:1005AD00E678E030E0FCA2E1D083D082D0E0E0B983
:1005BD000113C0E0C082C08390E678E0D2E5F0D0B0
:1005CD0083D082D0E0C0E0C082C08390E678E03076
:1005DD00E0FCA2E1D083D082D0E0E9C398C0E0B4C2
:1005ED000213C0E0C082C08390E678E0D2E5F0D07F
:1005FD0083D082D0E0B40113C0E0C082C08390E606
:10060D0078E0D2E6F0D083D082D0E090E679E09029
:10061D00E7408A82F0080AD0E0B401A990E68BE9A0
:10062D00F0C0E0C083C08290E678E020E6FCD08286
:10063D00D083D0E02290E6BEE0F9B4001922C0E0EC
:10064D00C082C08390E678E0D2E6F0E020E6FCD0F0
:10065D0083D082D0E02290E68B74FFF090E6A0E08C
:10066D005402B400F790E6BAE0FAA3E0FBC0E0C094
:10067D0082C08390E678E0D2E7F0D083D082D0E0DC
:10068D0090E67974A2F0C0E0C082C08390E678E075
:10069D0030E0FCA2E1D083D082D0E0EBF0C0E0C02E
:1006AD0082C08390E678E030E0FCA2E1D083D08276
:1006BD00D0E0EAF0C0E0C082C08390E678E030E0A0
:1006CD00FCA2E1D083D082D0E090E7407A00E582B1
:1006DD002AF582E090E679F0C0E0C082C08390E612
:1006ED0078E030E0FCA2E1D083D082D0E00A19E9B5
:1006FD00B400DBC0E0C082C08390E678E0D2E6F0C3
:10070D00E020E6FCD083D082D0E0C0E0C082C08380
:10071D0090E678E0D2E7F0D083D082D0E090E67911
:10072D0074A2F0C0E0C082C08390E678E030E0FCB7
:10073D00A2E1D083D082D0E0C0E0C082C08390E639
:10074D0078E0D2E6F0E020E6FCD083D082D0E0C0A5
:10075D00E0C082C08390E678E0A2E1D083D082D061
:10076D00E050A722E50820E0028019B29190E691B1
:10077D00E0F990E690E0F8B40006E9B400028004D8
:10078D00F1A1B2920090E69074FFF00090E69174A2
:10079D00FFF06107E50B543F4440F5F0AA0AE92547
:1007AD000AF50AE8350B543FF50B75860090F000FD
:1007BD0085F0858A8409D902801CE0A30586F0A303
:1007CD00E58530E70D758540E50D045407F50D12EF
:1007DD0008210586D9E408D802801EE0A30586F01D
:1007ED00A3E58530E70D758540E50D045407F50D3E
:1007FD001208210586D9E4D8E222D2B3C295C0E011
:10080D00743690C003F0758200D0E0F0E5F0F0D2C0
:10081D0095C2B322C0E0E50D1392B01392B11392BD
:10082D00B2E50DB40021E50EB4071CE50930E01763
:10083D00E50F30B70EA2B4400520E00780F430E09C
:10084D000280EF92E0F50F850D0ED0E0D291D2939C
:10085D00D2922290E6BBE0B4010F90E6B37408F09B
:10086D0090E6B474F2F0020307B4020F90E6B3748D
:10087D0009F090E6B4740EF0020307B4020F90E68F
:10088D00B37409F090E6B47427F0020307B403398A
:10089D0090E6BAE0B4000E90E6B37409F090E6B4B9
:1008AD007440F08035B4010E90E6B37409F090E613
:1008BD00B47444F08024B4020E90E6B37409F09041
:1008CD00E6B47450F080138011B4060E90E6B37444
:1008DD0009F090E6B47404F0800090E6A0E0448046
:0408ED00F00203070B
:00000001FF
