:0A0AF30000010202030304040505DC
:10061100E4F52DF52CF52BF52AC20AC207C209C251
:1006210008120CB07E0C7F008E448F45754C0C7502
:100631004D1275420C75431C754A0C754B3C754E39
:100641000C754F6AEE54E07003020757752E007562
:100651002F808E308F31C374AE9FFF740C9ECF24D8
:1006610002CF3400FEE48F298E28F527F526F525E3
:10067100F524F523F522AF29AE28AD27AC26AB250D
:10068100AA24A923A822C3120DA35026E52F2525AC
:10069100F582E52E3524F58374CDF0E5252401F5A9
:1006A10025E43524F524E43523F523E43522F52228
:1006B10080C4E4F525F524F523F522AF29AE28AD54
:1006C10027AC26AB25AA24A923A822C3120DA35027
:1006D10033E5312525F582E5303524F583E0FFE565
:1006E1002F2525F582E52E3524F583EFF0E5252428
:1006F10001F525E43524F524E43523F523E43522F9
:10070100F52280B7852E44852F4574002480FF741F
:100711000C34FFFEC3E54D9FF54DE54C9EF54CC3F2
:10072100E5479FF547E5469EF546C3E5499FF549EF
:10073100E5489EF548C3E5439FF543E5429EF542F2
:10074100C3E54B9FF54BE54A9EF54AC3E54F9FF53F
:100751004FE54E9EF54ED2E843D82090E668E0443E
:1007610009F090E65CE0443DF0D2AF90E680E020F5
:10077100E105D20B12100F90E680E054F7F0538E92
:10078100F8C20A3008051203ECC208300A29121116
:10079100BB5024C20A12109620071690E682E03060
:1007A100E704E020E1EF90E682E030E604E020E0BB
:0C07B100E412103E1211BD120DDA80C7D8
:1003EC0090E6B9E0700302049D14700302051A2410
:1003FC00FE700302059D24FB700302049714700326
:10040C00020491146073146076240560030205FDE8
:10041C001211BF400302060990E6BBE024FE6022E5
:10042C0014603324FD601114602224067048E544E6
:10043C0090E6B3F0E5458037E54C90E6B3F0E54D3A
:10044C00802DE54690E6B3F0E5478023E54890E63D
:10045C00B3F0E549801990E6BAE0FF12106AAA06DB
:10046C00A9077B01EA494B600DEE90E6B3F0EF90E3
:10047C00E6B4F002060902060212117F0206091206
:10048C00119F0206091210BB02060912116D020619
:10049C00091211C1400302060990E6B8E0247F60FE
:1004AC001514601924027063A207E43325E0FFA23F
:1004BC0009E4334F8041E490E740F0803F90E6BC84
:1004CC00E0547EFF7E00E0D394807C0040047D01EC
:1004DC0080027D00EC4EFEED4F24F3F582740A3E53
:1004EC00F583E493FF3395E0FEEF24A1FFEE34E6B1
:1004FC008F82F583E0540190E740F0E4A3F090E69E
:10050C008AF090E68B7402F00206090206021211C0
:10051C00C3400302060990E6B8E024FE60162402EC
:10052C00600302060990E6BAE0B40105C2070206B0
:10053C000902060290E6BAE0705590E6BCE0547EE3
:10054C00FF7E00E0D394807C0040047D0180027D1E
:10055C0000EC4EFEED4F24F3F582740A3EF583E475
:10056C0093FF3395E0FEEF24A1FFEE34E68F82F586
:10057C0083E054FEF090E6BCE05480131313541F38
:10058C00FFE0540F2F90E683F0E04420F0806E8063
:10059C00651211C5506790E6B8E024FE601A24027B
:1005AC00705B90E6BAE0B40104D207805090E6BAD2
:1005BC00E0B402028047803E90E6BCE0547EFF7EB1
:1005CC0000E0D394807C0040047D0180027D00EC2F
:1005DC004EFEED4F24F3F582740A3EF583E493FF4F
:1005EC003395E0FEEF24A1FFEE34E68F82F5838095
:1005FC0008120080500790E6A0E04401F090E6A0BD
:04060C00E04480F056
:0106100022C7
:030033000211B403
:0411B40053D8EF32EB
:1008C500608028000101010101010107000000000D
:1008D50000000000070707070707070700000000DB
:1008E5000000003F010101010101010700000000B6
:1008F50000000000070707070707070700000000BB
:100905000000003F8F0107010101010701000302FB
:10091500020202000701070707070707F200F200B6
:100925000000003F0F010F01010101070102050051
:10093500000000000706070707070707F000F0009B
:100945000000003F60242887000000000000000030
:100955000000000000000000000000000000000092
:10096500000000000000000000000000472880E0B3
:06097500000007BA4E006D
:1009AC0090E60174BAF090E6F574FFF0902880E0C0
:1009BC0090E6F3F0902881E090E6C3F0902882E076
:1009CC0090E6C1F0902883E090E6C2F0902885E094
:1009DC0090E6C0F0902886E090E6F4F075AF0774CE
:1009EC0028F59A7400F59B759DE4E4F59EFF90E65E
:1009FC007BE090E67CF00FBF80F4E490E671F0F5BC
:100A0C00B490E672E0547FF053B67F000000E4909F
:100A1C00E6C4F000000090E6C5F0902887E090E670
:100A2C00C6F0902888E090E6C7F0902889E090E620
:100A3C00C8F090288AE090E6C9F090288BE090E608
:100A4C00CAF090288CE090E6CBF090288DE090E6F0
:0A0A5C00CCF090288EE090E6CDF07B
:010A6600226D
:100C00001201000200000040051668800000010289
:100C100000010A0600020000004001000902200055
:100C200001010080320904000002FF0000000705F6
:100C300002020002000705860200020009022E00DF
:100C400001010080320904000004FF0000000705D4
:100C5000020240000007050402400000070586026A
:100C60004000000705880240000014030000000057
:100C700000000000000000000000000000000C0365
:100C80004100430043004500530024035500530036
:100C900042002D0041004F002D0041005200420053
:100CA0003100000000000000000000000000000013
:10097B00C100C103C101C105C184C182020D0000C8
:10098B004228AE00004128AD000214000001110006
:10099B00010B570116080118034228AB0000C106D2
:0211BB00D3223D
:0211BD00D3223B
:0211BF00D32239
:1010BB0000000090E6247402F0000000E490E625A6
:0E10CB00F0000000D20390E6BAE0F51AD3223E
:10116D0090E740E51AF0E490E68AF090E68B04F003
:02117D00D3227B
:08119F0090E6BAE0F50AD32244
:10117F0090E740E50AF0E490E68AF090E68B04F001
:02118F00D32269
:0211C100D32237
:0211C300D32235
:0211C500D32233
:0511AF00C284D284227D
:030AFD00AFB12274
:0311B8008FB122D2
:100CB0001211A790E678E05410FFC4540F4450F589
:100CC0000C13E433F51B90E600E054E74410F00009
:100CD000000090E61274A0F0000000E490E613F02B
:100CE00000000090E61474E0F0000000E490E615C7
:100CF000F090E6047480F00000007402F000000040
:100D00007406F0000000E4F000000090E618F00027
:100D100000007411F000000090E61A7409F0000061
:100D2000001209ACE490E672F090E671F000000069
:100D300090E6D204F000000090E6E204F0D2071240
:100D400011AF75B2FA75B403C2865380FD90E6F513
:040D500074FFF0221A
:100DDA00200146E5BB30E741E5AB20E13C000000DD
:100DEA0090E690E0FC00000090E691E0FD00000033
:100DFA00ECC313FCED13FDEC90E6D0F0000000AF5D
:100E0A0005EF90E6D1F0000000E4F5BB000000E534
:100E1A00BB30E7030080F80000E58070047F0180A2
:100E2A00027F00EF90E68030E005E04408F022E01F
:030E3A0054F7F07A
:010E3D002292
:0D11910090E6F4E030E303D38001C3920B3D
:01119E00222E
:10008000E4F532F53390E6B9E0120DB4017D1001CC
:10009000A21101271201171301C73401D83501D865
:1000A0003601D2380263A20263A300D4B703EABBCD
:1000B00003EABC0219BD00BDD4000003E890E7408C
:1000C000E5AAF090E6A3E090E741F090E6A5E09085
:1000D000E742804F90E6B8E030E71E90E7407402B8
:1000E000F090E6F4E030E3047F0180027F0090E7C7
:1000F00041EFF0E490E68A802A90E6A0E020E1F962
:1001000090E6BCE014600804701AC2850201BC12BB
:100110001191C2850201BCE5A0540390E740F0E4D0
:1001200090E68AF00201BCE490E68AF090E6BEE038
:1001300090E68BF090E6A0E020E1F990E742E01332
:1001400092A030A00543B60F800353B6F090E7426B
:10015000E030E103D38001C392A130A10543B6F0A2
:10016000800353B60F90E741E0C454F0FF90E7409E
:10017000E0540F4FFF1211B8C2870203EA90E6BEA7
:10018000E090E68BF090E6A0E020E1F990E741E016
:10019000C454F0FF90E740E0540F4FFF1211B80233
:1001A00003EA120AFD90E740EFF0E0C4540FA3F019
:1001B00090E740E0540FF0E490E68AF090E6BEE06D
:1001C00090E68BF00203EAD20690E68B7401F0020F
:1001D00003EA90E6F574FFF0C2061211AF90E60450
:1001E0007480F00000007402F00000007406F0005B
:1001F0000000E4F000000090E6917480F000000040
:10020000F0000000F0000000F0000000E490E68A3A
:10021000F090E68B04F00203EAE490E68AF090E6C0
:10022000BEE090E68BF090E6A0E020E1F990E74098
:10023000E030E004C283802190E741E09028ABF0F9
:1002400090E742E09028ACF0E04402F07A287BABE3
:100250007D027F171210F5D28390E6A0E04480F073
:100260000203EA90E6BAE0753400F535A3E0FEEE4D
:10027000423490E6BEE0753600F537A3E0FEEE426C
:100280003690E6B8E064C06003020351E5374536B6
:1002900070030203EA90E6A0E020E1F9C3E5379499
:1002A00040E5369400500885363885373980067524
:1002B000380075394090E6B9E0B4A336E4F53AF574
:1002C0003BC3E53B9539E53A95385060E535253B2C
:1002D000F582E534353AF583E0FF7440253BF5823D
:1002E00074E7353AF583EFF0053BE53B70D3053A0B
:1002F00080CFE4F53AF53BC3E53B9539E53A9538CF
:1003000050197440253BF58274E7353AF58374CD76
:10031000F0053BE53B70E0053A80DCAD397AE779E2
:10032000407F40AB07AF35AE34120BB8E490E68A9D
:10033000F090E68BE539F02535F535E5383534F5BF
:1003400034C3E5379539F537E5369538F536020289
:100350008C90E6B8E0644060030203EAE537453676
:1003600070030203EAE490E68AF090E68BF090E6F0
:10037000A0E020E1F990E68BE0753800F53990E6D1
:10038000B9E0B4A336E4F53AF53BC3E53B9539E56E
:100390003A953850377440253BF58274E7353AF585
:1003A00083E0FFE535253BF582E534353AF583EF0B
:1003B000F0053BE53B70D3053A80CFAD397AE7795C
:1003C000407F40AB07AF35AE34120F74E5392535A9
:1003D000F535E5383534F534C3E5379539F537E586
:0B03E000369538F53602035CD322C3CB
:0103EB0022EF
:10111100C0E0C083C082D2085391EF90E65D7401B4
:08112100F0D082D083D0E0324F
:10114100C0E0C083C0825391EF90E65D7404F0D09B
:0611510082D083D0E032E1
:10115700C0E0C083C0825391EF90E65D7402F0D087
:0611670082D083D0E032CB
:100F0800C0E0C083C082854A46854B4785478285B5
:100F18004683A37402F08542488543498549828502
:100F28004883A37407F05391EF90E65D7410F0D0F6
:060F380082D083D0E032FC
:10112900C0E0C083C082D20A5391EF90E65D740893
:08113900F0D082D083D0E03237
:100ECB00C0E0C083C08290E680E030E720854246D8
:100EDB00854347854782854683A37402F0854A483C
:100EEB00854B49854982854883A37407F05391EF5D
:0D0EFB0090E65D7420F0D082D083D0E0320C
:0111C70032F5
:0111C80032F4
:0111C90032F3
:0111CA0032F2
:0111CB0032F1
:0111CC0032F0
:0111CD0032EF
:0111CE0032EE
:0111CF0032ED
:0111D00032EC
:0111D10032EB
:0111D20032EA
:0111D30032E9
:0111D40032E8
:0111D50032E7
:0111D60032E6
:0111D70032E5
:0111D80032E4
:0111D90032E3
:0111DA0032E2
:0111DB0032E1
:0111DC0032E0
:0111DD0032DF
:0111DE0032DE
:0111DF0032DD
:0111E00032DC
:0111E10032DB
:0111E20032DA
:0111E30032D9
:0111E40032D8
:0111E50032D7
:0111E60032D6
:0111E70032D5
:0111E80032D4
:0111E90032D3
:0111EA0032D2
:060E3E00AB07AA06AC059B
:100E4400E4FDE51B600F7E000DEE24B0F582E43472
:100E540028F583EAF0AE050D74B02EF582E434284B
:100E6400F583EBF0AF050D74B02FF582E43428F56B
:100E740083ECF07A287BB0AF0C1210F5AF0C020FA4
:010E84003E2F
:0A0F74008E3C8F3D8D3E8A3F8B407E
:100F7E00E4F541E541C3953E5020053DE53DAE3CCF
:100F8E007002053C14FFE5402541F582E4353FF53E
:0A0F9E0083E0FD120E3E054180D9EC
:010FA8002226
:0A0BB8008E3C8F3D8D3E8A3F8B403E
:100BC200E4FDF541E51B6012E53CFF7E000DEE24DD
:100BD200B0F582E43428F583EFF0AE050D74B02E43
:100BE200F582E43428F583E53DF07A287BB0AF0C3A
:0E0BF2001210F5AB40AA3FAD3EAF0C0210D979
:03004300020B00AD
:03005300020B009D
:100B000002111100021157000211410002112900C7
:100B1000020F0800020ECB000211C7000211C8002C
:100B20000211C9000211CA000211CB000211CC004F
:100B30000211CD000211CE000211CF000211D0002F
:100B40000211D1000211C8000211D2000211D3001B
:100B50000211D4000211D5000211D6000211D700F3
:100B60000211D8000211C8000211C8000211C80009
:100B70000211D9000211DA000211DB000211DC00BF
:100B80000211DD000211DE000211DF000211E0009F
:100B90000211E1000211E2000211E3000211E4007F
:100BA0000211E5000211E6000211E7000211E8005F
:080BB0000211E9000211EA0044
:10103E0090E682E030E004E020E60B90E682E030BD
:10104E00E119E030E71590E680E04401F07F147E70
:0C105E0000120E8590E680E054FEF022A7
:1010960090E682E044C0F090E681F04387010000CC
:0410A6000000002224
:10100F00300B0990E680E0440AF0800790E680E01C
:10101F004408F07FDC7E05120E8590E65D74FFF0CC
:0F102F0090E65FF05391EF90E680E054F7F022E7
:0811A700E4F555D2E9D2AF22B4
:100F3E0090E678E020E6F9C2E990E678E04480F0A9
:100F4E00EF25E090E679F090E678E030E0F990E673
:100F5E0078E04440F090E678E020E6F990E678E01C
:060F6E0030E1D6D2E922B9
:100FDD00A90790E678E020E6F9E555702390E678CC
:100FED00E04480F0E925E090E679F08D50AF03A95B
:100FFD00077551018A528953E4F554755501D32271
:02100D00C322FC
:100FA900A90790E678E020E6F9E555702590E678FE
:100FB900E04480F0E925E0440190E679F08D50AFF6
:100FC90003A9077551018A528953E4F554755503EC
:040FD900D322C3223A
:03004B000207BDEC
:1007BD00C0E0C083C082C085C084C086758600C07D
:1007CD00D075D000C000C001C002C003C006C00774
:1007DD0090E678E030E2067555060208A790E678B7
:1007ED00E020E10CE555640260067555070208A787
:1007FD00E55524FE605F14603624FE7003020898F0
:10080D0024FC70030208A4240860030208A7AB515E
:10081D00AA52A953AF5405548F82758300120D54FB
:10082D0090E679F0E55465507070755505806B90C4
:10083D00E679E0AB51AA52A953AE548E827583006E
:10084D00120D81755502E5506401704E90E678E009
:10085D004420F08045E55024FEB5540790E678E03D
:10086D004420F0E55014B5540A90E678E04440F089
:10087D0075550090E679E0AB51AA52A953AE548E4E
:10088D0082758300120D810554800F90E678E04447
:10089D0040F075550080037555005391DFD007D09A
:1008AD0006D003D002D001D000D0D0D086D084D0D5
:0808BD0085D082D083D0E03227
:02106A00A907D4
:10106C00AE4EAF4F8F828E83A3E064037017AD0139
:10107C0019ED7001228F828E83E07C002FFDEC3EF7
:09108C00FEAF0580DF7E007F004D
:011095002238
:1010D900120FA9E55524FA600E146006240770F36F
:0C10E900D322E4F555D322E4F555D322C0
:1010F500120FDDE55524FA600E146006240770F31F
:0C110500D322E4F555D322E4F555D322A3
:100E85008E328F3390E600E054187012E53324015A
:100E9500FFE43532C313F532EF13F533801590E6D1
:100EA50000E05418FFBF100BE53325E0F533E532BC
:100EB50033F532E5331533AE32700215324E600527
:060EC5001210AA80EE22CB
:1010AA007400F58690FDA57C05A3E582458370F959
:0110BA002213
:03000000020A678A
:0C0A6700787FE4F6D8FD758155020AAED8
:100D5400BB010CE58229F582E5833AF583E0225054
:100D640006E92582F8E622BBFE06E92582F8E2229E
:0D0D7400E58229F582E5833AF583E49322B8
:100D8100F8BB010DE58229F582E5833AF583E8F0A8
:100D9100225006E92582C8F622BBFE05E92582C854
:020DA100F2223C
:100DA300EB9FF5F0EA9E42F0E99D42F0E89C45F0A6
:010DB300221D
:100DB400D083D082F8E4937012740193700DA3A3CE
:100DC40093F8740193F5828883E4737402936860E2
:060DD400EFA3A3A380DFE2
:100A7300020611E493A3F8E493A34003F68001F282
:100A830008DFF48029E493A3F85407240CC8C33384
:100A9300C4540F4420C8834004F456800146F6DF53
:100AA300E4800B01020408102040809008C5E47E16
:100AB300019360BCA3FF543F30E509541FFEE49348
:100AC300A360010ECF54C025E060A840B8E493A30F
:100AD300FAE493A3F8E493A3C8C582C8CAC583CA3A
:100AE300F0A3C8C582C8CAC583CADFE9DEE780BEF2
:0109AB00004B
:00000001FF
