:101190001201000200000040051636800100010225
:1011A00000010A06000200000040010009022000C0
:1011B000010100A0FA0904000002FF000000070579
:1011C0000202000200070586020002000902200058
:1011D000010100A0FA0904000002FF000000070559
:1011E00001024000000705810240000014030000D6
:1011F00000000000000000000000000000000000EF
:1012000026034100430043004500530020004900ED
:101210002F004F002000500072006F006400750026
:101220006300740073001C0355005300420050001B
:101230002D00490049003800490044004F003400A7
:10124000410000008081828384858687A0A1A2A3BB
:10125000A4A5A6A7C0D0C0E0EF9012449390126B53
:10126000F0ED9012449390126DF0A2009200D0E045
:10127000D0D022C0D0C0E0EF9012449390128AF0F8
:10128000ED9012449390128DF0A200B39200D0E042
:03129000D0D02299
:101F2500555342502D49493849444F344100504991
:101F3500434F2D49493849444F3441005553425088
:071F45002D49493845520007
:0400460043B1402260
:04004E0053B1BF22C9
:0422210043B1402263
:0722140053B1FD43B10222AA
:101EFE00EF5407FE7401A806088002C333D8FCFE17
:101F0E00EF131313541FF533ED6005EE428080047A
:071F1E00EEF45280022214D0
:101E7A00EF54F824F8600824087006AE808002AE99
:101E8A00A0EF5407FF7401A807088002C333D8FCE7
:0B1E9A005206EE60047F0180027F0012
:011EA500221A
:0D003600E5801202B5900001E5A00202C7AE
:0B21E70012026F78B3F6F5800222149C
:01004A002293
:01005200228B
:101A69007AE779407F40AB077D017F037E00121939
:101A7900D690E740E0B4D0037436F090E740E090A8
:101A8900119AF090E740E024C9600B0470107BFFC5
:101A99007A1F7925800E7BFF7A1F793380067BFFB9
:0A1AA9007A1F794112192502221458
:012243002278
:012244002277
:101F4C00785CE66003121715785EE6600312179E44
:101F5C007870E6600312187078B2E660087871E663
:061F6C006003121AF922C5
:0800030078B376FF0876FF22B6
:10211A0078B3E6F5807590FF75B2FF75B3FF75B1B8
:05212A001475B6FF2250
:102181008F248D25300603021254AD25AF2412127F
:022191007322B7
:012245002276
:012246002275
:06221B0078B5E6F5802213
:05002E0078B576FF2209
:1007200090E6BEE0FFC313F52BE4F52CD204120DC6
:10073000D65003020A0E90E6B9E024D0604414605B
:1007400041248F7003020A07147003020A0724E48D
:10075000606224AD6003020A0C90E6BEE0D3940010
:100760005003020A0EE090E68BF090E6A0E020E154
:10077000F990E740E0F580122214E490E68AF00256
:100780000A0E90E740E580F0A3E590F0A3E5A0F025
:10079000A3E5B0F0E5B130E0047F0180027F009076
:1007A000E6BAEFF090E7457469F0E4A3F0A3F0A394
:1007B000F00209F243878053B1F353B1FB759830CF
:0B07C000752D0C152DE52D600280F852
:0307CB00759830EE
:0B07CE00752D0C152DE52D600280F844
:0307D900759830E0
:0B07DC00752D0C152DE52D600280F836
:0307E700759830D2
:0B07EA00752D0C152DE52D600280F828
:0307F500759830C4
:0B07F800752D0C152DE52D600280F81A
:1008030043B104E52CC3952B40030208CC53B1F349
:03081300759830A5
:0B081600752D0C152DE52D600280F8FB
:0308210075983097
:0B082400752D0C152DE52D600280F8ED
:03082F0075983089
:0B083200752D0C152DE52D600280F8DF
:10083D00E599C413135403FF7440252CF582E43459
:08084D00E7F583EFF075983028
:0B085500752D0C152DE52D600280F8BC
:1008600085992AE52AC413135403FF7441252CF5F6
:1008700082E434E7F583EFF0E52A25E025E0FF7414
:1008800040252CF582E434E7F583E04FFF744025E2
:0D0890002CF582E434E7F583EFF075983025
:0B089D00752D0C152DE52D600280F874
:1008A80085992A7441252CF582E434E7F583E0FF25
:1008B800E52A25E025E0FEEF4EF043B104052C05BE
:0D08C8002C02080643B10853B1FB759830AF
:0B08D500752D0C152DE52D600280F83C
:0308E000759830D8
:0B08E300752D0C152DE52D600280F82E
:0308EE00759830CA
:0B08F100752D0C152DE52D600280F820
:0308FC00759830BC
:0B08FF00752D0C152DE52D600280F812
:03090A00759830AD
:0B090D00752D0C152DE52D600280F803
:1009180043B104E4F52CE52CC3952B40030209F1FF
:0909280043B10853B1FB7598308E
:0B093100752D0C152DE52D600280F8DF
:03093C007598307B
:0B093F00752D0C152DE52D600280F8D1
:03094A007598306D
:0B094D00752D0C152DE52D600280F8C3
:10095800E599C413135403FFE52B252C2440F58295
:0A096800E434E7F583EFF0759830F2
:0B097200752D0C152DE52D600280F89E
:10097D0085992AE52AC413135403FFE52B252CFE74
:10098D002441F582E434E7F583EFF074402EF582CF
:10099D00E434E7F583E0FFE52A25E025E0FEEF4EA0
:1009AD00FFE52B252C2440F582E434E7F583EFF0A9
:0309BD00759830FA
:0B09C000752D0C152DE52D600280F850
:1009CB0085992AE52B252C2441F582E434E7F58320
:1009DB00E0FFE52A25E025E0FEEF4EF043B10405EC
:1009EB002C052C02091EE490E68AF090E6BEE090FE
:1009FB00E68BF090E6A0E04480F08007120C358087
:040A0B0002D322C32D
:010A0F0022C4
:1020BA00564D617920313520323031394031323A4A
:0B20CA0031353A353600000000000000
:10214400021520D102080000010F01010C01010A4F
:04215400010112FF74
:10212F007859E6FF700418E660077858E6FD02203C
:05213F001512223422FC
:101FD7007E007F617D007B007A00795612039F782F
:0F1FE70056760AE408F612000312211A02000EC1
:102069007D021219CE7856E6B40A0408E660030226
:0B2079001FD77D611219CE12211A2220
:10000E007856760AE408F67A007B567D617F017E8B
:0D001E001F121D4D7D617F007E1F022231EB
:1013800012212F90E6BEE0F53E754002E53E605723
:10139000C394405005853E3F8003753F40E490E68E
:1013A0008AF090E68BE53FF090E6A0E020E1F9E4DA
:1013B000F53DE53DC3953F50257440253DF582E45C
:1013C00034E7F583E0FFAE400540EE7C007B00246F
:1013D00056F9EC3400FAEF1202B5053D80D4C3E5AE
:0A13E0003E953FF53E80A502212F47
:1014B80090E6B8E030E745E4F534F533E533C39416
:1014C8000250247E007B0074B32533F9EE3400FA11
:1014D80012026FFF74402534F582E434E7F583EF98
:1014E800F00533053480D5E490E68AF090E6BEE056
:1014F80090E68BF090E6A0E04480F02290E6BEE013
:1015080090E68BF090E6A0E020E1F990E6BEE0647A
:10151800026003C20422E4F533F534E533C39402D0
:10152800502474402534F582E434E7F583E0FFE580
:10153800337C007B0024B3F9EC3400FAEF1202B5D7
:101548000533053480D590E6BAE0B4CE08A3E0B4FC
:05155800AC0312000EBF
:01155D00226B
:0F21D800D3E518950EE517950D40031221B72298
:012247002274
:101F9700785BE6FE18E67C002400F50EEC3EF50DB6
:101FA700450E7007C28CC2A9C20522D28CD2A922C3
:012248002273
:101B3B0090E6BEE090E68BF090E6A0E020E1F9E4C1
:101B4B00FF74422FF582E434E7F583E0FEEF7C006F
:101B5B007B0024B5F9EC3400FAEE1202B50FBF028C
:0F1B6B00E090E740E0785AF6A3E008F6021F97F3
:1021B70012221BE490281AF0A3F0F517F518D205A0
:0121C70022F5
:101FB700C205E490281AF0A3F0F517F518C28CC2F1
:101FC700A9538EF75389F1438901122248021F97BB
:101BB900E50945086019E50915097002150814C3F6
:101BC90094FFE50864809480501E12004E801930FD
:101BD90004167508057509FF120046C204E4902829
:0D1BE9001AF0A3F0F517F518300502D2042C
:011BF60022CC
:100F530090E6B8E020E703021005E4F534785AE69A
:100F6300FFAE34053474402EF582E434E7F583EFA5
:100F7300F008E6FFAE34053474402EF582E434E71E
:100F8300F583EFF0E4F533E533C3940250247E0098
:100F93007B0074B52533F9EE3400FA12026FFF7447
:100FA300402534F582E434E7F583EFF00533053467
:100FB30080D5AE34053474402EF582E434E7F583EE
:100FC300E518F0E517FFAE34053474402EF582E4DE
:100FD30034E7F583EFF0A205E433FFAE3405347450
:100FE300402EF582E434E7F583EFF0C205E490E6A2
:100FF3008AF090E6BEE090E68BF090E6A0E04480B5
:10100300F02290E6BEE090E68BF090E6A0E020E1CF
:10101300F9C20590E6BEE064046003C20422E4F56D
:1010230034AF34053474402FF582E434E7F583E0BC
:10103300785AF6AF34053474402FF582E434E7F57B
:1010430083E008F6E4F533E533C394025024744097
:101053002534F582E434E7F583E0FFE5337C007B58
:101063000024B5F9EC3400FAEF1202B50533053468
:1010730080D5121F9790E6BAE0B4CE08A3E0B4ACD3
:041083000312000E46
:011087002246
:04222500750F01220E
:1018080012212F90E6BEE0F53EE4F540E53E605734
:10181800C394405005853E3F8003753F40E490E601
:101828008AF090E68BE53FF090E6A0E020E1F9E44D
:10183800F53DE53DC3953F50257440253DF582E4CF
:1018480034E7F583E0FFAE400540EE7C007B0024E2
:1018580071F9EC3400FAEF1202B5053D80D4C3E506
:071868003E953FF53E80A50F
:01186F002256
:101AF900150FE50F703B7871E6F50F122245E4F5F5
:101B090021E521C378B2965025E52125E02472F814
:101B1900E6F522E52125E02473F8E6F523547FFD57
:101B2900E523339206AF22122181052180D31222A7
:011B39004665
:011B3A002288
:1020840090E6BEE090E68BF090E6A0E020E1F990C7
:0B209400E740E0785CF6A3E008F622CD
:10171500150CE50C600302179D785CE6F50C7B0162
:101725007A28791C120036E4FFFE741C2EF582E43B
:101735003428F583E0FD74002EF582E43428F58322
:10174500E06DF97D01E4FCECC394085045E95D606A
:101755002974022FF582E43428F583E014F074022D
:101765002FF582E43428F583E0701F74002EF5828E
:10177500E43428F583E06DF08000785DE6FB7402C3
:101785002FF582E43428F583EBF00CED25E0FD0F11
:0817950080B50EEE64027092B3
:01179D002229
:1020ED0090E6BEE090E68BF090E6A0E020E1F9905E
:0720FD00E740E0785EF622E7
:101C7000E4F513FF74122FF582E43428F583E0FEB7
:101C800074182FF582E43428F583EEF074122FF5E2
:101C900082E43428F583E0FE74162FF582E43428BC
:081CA000F583EEF00FBF02CC4A
:011CA8002219
:10179E00150AE50A7063785EE6F50A7B017A287908
:1017AE0012120036E4FF74182FF582E43428F58304
:1017BE00C083C082E0FE74122FF582E43428F583D4
:1017CE00E0FDEE5DD082D083F074162FF582E43406
:1017DE0028F583C083C082E0FE74122FF582E434B4
:1017EE0028F583E0FDEE4DD082D083F00FBF02B618
:0917FE00E513C394FF500205132A
:0118070022BE
:042229007512FF2209
:10187000E4F5210512F521E521C37870965042E583
:101880002125E02461F8E6C395125018E52125E0F2
:101890002460F8E6FE547FFFEE30E7047D00801AF6
:1018A0007D018016E52125E02460F8E6FE547FFFE7
:1018B000EE30E7047D0180027D00121EFE052180CE
:0A18C000B6E512785F667002F512BB
:0118CA0022FB
:101DB60090E6BEE090E68BF090E6A0E020E1F9E444
:101DC600FF74402FF582E434E7F583E0FEEF7C00F4
:101DD6007B00245FF9EC3400FAEE1202B50FBF1255
:011DE600E01C
:011DE70022D9
:04155E008E3D8F3EF1
:10156200E4F53FE53E6402453D700C90E741F0E54D
:101572003E153E7002153DE53E6401453D701690F4
:10158200E7407461F090E6BEE090E68BF0E53E1530
:101592003E7002153DE53E453D605D90E6A0E020CF
:1015A200E1F9C3E53E9440E53D94005004AD3E8030
:1015B200027D40E4FFEFC39D5025AE3F053FEE752F
:1015C20083007B002456F9E5833400FA12026FFE91
:1015D20074402FF582E434E7F583EEF00F80D6E411
:1015E20090E68AF090E68BEDF0FFC3E53E9FF53E74
:0815F200E53D9400F53D809DEC
:0115FA0022CE
:1003CB0090E6B8E030E76390E6BFE0FE90E6BEE073
:1003DB00FDEDFF4E7002804D90E6BDE0FD90E6BC5A
:1003EB00E04D700302155E90E6BDE0600302071F4F
:1003FB0090E6BCE014600302071F7540FF754120B7
:10040B007542BA75430075441E7B017AE779411238
:10041B00197C7B017AE77940122159EF0490E74070
:10042B00F090E6BEE090E68BF02290E6BFE0FF9006
:10043B00E6BEE04F706D90E6BDE0704B90E6BCE021
:10044B0024EF6023249F603024FD603224F360335B
:10045B002472703390E6BAE064CE702BA3E064ACE8
:10046B00702512000E802090E6BAE0B4CE19A3E0FE
:10047B00B4AC14121FD7800FE47870F68009751294
:10048B00FF8004E478B2F690E6BDE064806003027E
:10049B00071F90E6BCE06401600302071F90E6BAF9
:1004AB0002056890E6BFE0600302071F90E6BDE01F
:1004BB00FE90E6BCE07C002400FFEC3EFEEF8EF0ED
:1004CB0012037205160020051600210516002205E1
:1004DB00160023054B002F05710041057F005105C8
:1004EB008D005305AC006105BA006305D900710599
:1004FB00E700730606007406470081065500830665
:10050B0074008406B580010000071F90E6BEE0B4BE
:10051B005F0312138090E6BCE030E00312211A90C7
:10052B00E6BCE020E10302071F90E6BAE064CE6070
:10053B000302071FA3E064AC600302071F02000E57
:10054B0090E6BEE06402600302071FE090E68BF0CA
:10055B0090E6A0E020E1F912212F90E740E07858D7
:10056B00F6A3E002071A90E6BEE0640460030207FC
:10057B001F021B3B90E6BEE06402600302071F02F2
:10058B00208490E6BEE06401600302071FE090E662
:10059B008BF090E6A0E020E1F990E740E0785CF684
:1005AB002290E6BEE06401600302071F0220ED907B
:1005BB00E6BEE06401600302071FE090E68BF0905B
:1005CB00E6A0E020E1F990E740E0785EF62290E6C5
:1005DB00BEE06412600302071F021DB690E6BEE088
:1005EB006401600302071FE090E68BF090E6A0E049
:1005FB0020E1F990E740E0785FF62290E6BEE064F8
:10060B0002600302071F7870E6C3940840030207D9
:10061B001FE090E68BF090E6A0E020E1F990E74038
:10062B00E0FF7870E6FE25E0245EF8A607A3E0FF66
:10063B00EE25E0245FF8A6077870062290E6BEE070
:10064B006442600302071F02180890E6BEE06401D3
:10065B00600302071FE090E68BF090E6A0E020E13C
:10066B00F990E740E07871F62290E6BEE064026014
:10067B000302071F78B2E6C39420400302071FE072
:10068B0090E68BF090E6A0E020E1F990E740E0FFE8
:10069B0078B2E6FE25E02470F8A607A3E0FFEE256E
:1006AB00E02471F8A60778B2062290E6BEE090E649
:1006BB008BF090E6A0E020E1F990E6BEE0640470D8
:0106CB0053DB
:1006CC0090E740E0FCA3E0FDA3E0FEA3E0F5368E4E
:1006DC00358D348C33FBAA35A934A8337F007E1BAF
:1006EC007D377C4B1201518F3A8E398D388C37AB5C
:1006FC003AAA39A938A837E4FFFE7D807C4712005E
:10070C00591201EE8E3B8F3CEF7858F6E53B08F61C
:03071C0012212F78
:01071F0022B7
:10209F0090E6047480F00000007402F000000074F9
:0B20AF0006F0000000E4F0000000223A
:012249002272
:101B7A00E4F52A7AE779407F40AB077D087FF87E53
:101B8A001D1219D6E4F52A7440252AF582E434E7B1
:101B9A00F583E0FDE52A75F002A424EEF974113507
:0E1BAA00F08982F583EDF0052AE52AB408D90A
:011BB800220A
:101C340090E678E05410FFC4540F4450F51013E4B8
:101C440033F514438E2012004A12220C121B7A120E
:101C54001A69D200122069121FB7122225121C70B1
:0C1C640012222912212F12004E02005201
:10216E00122243121BB91221D890E680E054F7F0E8
:03217E00022244F6
:061925008B2A8A2B892C9D
:10192B00E4F52D1221598F2EE52E25E0240290127D
:10193B0026F0E4F52DAF2EEF3395E0FEC3E52D9F9A
:10194B00EE6480F87480985027AB2AAA2BA92C85BB
:10195B002D82758300120288FDE52D75F002A424FB
:10196B0028F9741235F08982F583EDF0052D80C5C9
:01197B002249
:061A1E008E438F44AC056D
:101A2400E4FDE5146012E543FF7E000DEE2516F596
:101A340082E43515F583EFF0AE050DE5162EF5823B
:101A4400E43515F583E544F0AF050DE5162FF58271
:101A5400E43515F583ECF0AB16AA15AF1012204D42
:051A6400AF10021D1788
:03223100021A1E70
:0A1D4D008E3D8F3E8D3F8A408B4192
:101D5700E4F542E542C3953F5020053EE53EAE3DE2
:101D67007002053D14FFE5412542F582E43540F553
:0A1D770083E0FD122231054280D9FD
:011D8100223F
:0819CE007A007B567F017E1FA9
:0A19D6008E3B8F3C8D3D8A3E8B3F17
:1019E000E4FDF540E5146012E53BFF7E000DEE25B9
:1019F00016F582E43515F583EFF0AE050DE5162EEC
:101A0000F582E43515F583E53CF0AB16AA15AF1069
:0E1A100012204DAB3FAA3EAD3DAF100220317B
:100C350090E6BAE0753300F534A3E0FEEE4233905A
:100C4500E6BEE0753500F536A3E0FEEE423590E6EA
:100C5500B8E064C06003020D42E536453570030215
:100C65000DD590E6A0E020E1F9C3E5369440E535E1
:100C750094005008853537853638800675370075F8
:100C8500384090E6B9E064A3705890E6BCE0B40142
:100C95001BA3E0701790E6BBE030E71090E74074C7
:100CA50003F0A37401F0A37403F0806CE4F539F547
:100CB5003AC3E53A9538E5399537505CE534253A38
:100CC500F582E5333539F583E0FF7440253AF58241
:100CD50074E73539F583EFF0053AE53A70D3053910
:100CE50080CFE4F539F53AC3E53A9538E5399537D6
:100CF50050197440253AF58274E73539F58374CD7A
:100D0500F0053AE53A70E0053980DCAD387AE77BE5
:100D150040AF34AE331219D6E490E68AF090E68BF4
:100D2500E538F02534F534E5373533F533C3E536A5
:100D35009538F536E5359537F535020C5E90E6B80C
:100D4500E064406003020DD5E53645357003020DBC
:100D5500D5E490E68AF090E68BF090E6A0E020E1FD
:100D6500F990E68BE0753700F53890E6B9E0B4A365
:100D750036E4F539F53AC3E53A9538E5399537500E
:100D8500337440253AF58274E73539F583E0FFE59C
:100D950034253AF582E5333539F583EFF0053AE543
:100DA5003A70D3053980CFAD387AE77B40AF34AEA2
:100DB50033121D4DE5382534F534E5373533F53334
:100DC500C3E5369538F536E5359537F535020D4DDC
:010DD50022FB
:02223700C322C0
:02223900D322AE
:02223B00D322AC
:0821FC0090E6BAE0F50BD322D6
:1021930090E740E50BF0E490E68AF090E68B04F0DC
:0221A300D32245
:0822040090E6BAE0F511D322C7
:1021A50090E740E511F0E490E68AF090E68B04F0C4
:0221B500D32233
:02223D00D322AA
:02223F00D322A8
:02224100D322A6
:10129300E4FF90E6B8E020E70302137F0F0F7440EA
:1012A3002401F582E434E7F583740AF00F744024D3
:1012B30002F582E434E7F583E4F00F74402403F588
:1012C30082E434E7F583E4F00F74402404F582E408
:1012D30034E7F583E4F00F74402405F582E434E742
:1012E300F5837402F00F74402406F582E434E7F5C5
:1012F30083E4F00F74402407F582E434E7F583E4D4
:10130300F00F74402408F582E434E7F58374FFF0AA
:101313000F74402409F582E434E7F58374FFF00F7A
:101323007440240AF582E434E7F5837408F00F74FB
:1013330040240BF582E434E7F5837420F00F744006
:10134300240CF582E434E7F583740BF00F74402426
:101353000DF582E434E7F5837403F00F7440240E33
:10136300F582E434E7F5837401F090E740EFF0E4AD
:0C13730090E68AF090E6BEE090E68BF079
:01137F00224B
:100DD60090E6B9E012034C0E1D100E1D110E6114A3
:100DE6000F15150E0B280E052E0DFF3C0E173F0E88
:100DF60011A20E11A300000F4F1203CB020F5112C6
:100E06000F53020F511214B8020F51120C35020F74
:100E160051121293020F5190E6B8E030E70C7B01B5
:100E26007AE77940120036020F3990E6BEE070107C
:100E360090E6BCE0FF90E6BAE0FD121EFE020F51FE
:100E460090E6BEE090E68BF090E6A0E020E1F97B2C
:100E5600017AE779401221E7020F51C2AF90E748C5
:100E6600E513F0E4F5137B017AE77946120036E4E0
:100E7600F52F7412252FF582E43428F583E0FF74EC
:100E860040252FF582E434E7F583EFF0052FE52FB3
:100E9600B402DF90E6BCE06027E4F52F7418252F36
:100EA600F582E43428F583E0F4FF7442252FF582B9
:100EB600E434E7F583EFF0052FE52FB402DE802456
:100EC600E4F52F7418252FF582E43428F583E0FF26
:100ED6007442252FF582E434E7F583EFF0052FE51C
:100EE6002FB402DFE4F52F7416252FF582E434289B
:100EF600F583E0FF7444252FF582E434E7F583EFAC
:100F0600F0052FE52FB402DF121C70D2AF8024E467
:100F1600F52F7400252FF582E43428F583E0FF745D
:100F260040252FF582E434E7F583EFF0052FE52F12
:100F3600B402DFE490E68AF090E6BEE090E68BF03D
:0C0F460090E6A0E04480F08002C322D3BB
:010F5200227C
:101FF600C0E0C083C08290E6B5E04401F0D2015350
:0F20060091EF90E65D7401F0D082D083D0E0328C
:1013EA00C0E0C083C0825391EF90E65D7404F0D0F0
:0613FA0082D083D0E03236
:10210400C0E0C083C0825391EF90E65D7402F0D0CA
:0621140082D083D0E0320E
:101CA900C0E0C083C08290E680E030E70E85484CF2
:101CB90085494D85504E85514F800C85504C855135
:101CC9004D85484E85494F5391EF90E65D7410F06C
:071CD900D082D083D0E0327D
:1020D500C0E0C083C082D2035391EF90E65D7408DF
:0820E500F0D082D083D0E0327C
:101CE000C0E0C083C08290E680E030E70E85484CBB
:101CF00085494D85504E85514F800C85504C8551FE
:101D00004D85484E85494F5391EF90E65D7420F024
:071D1000D082D083D0E03245
:01224A003261
:01224B003260
:01224C00325F
:01224D00325E
:01224E00325D
:01224F00325C
:01225000325B
:01225100325A
:012252003259
:012253003258
:012254003257
:012255003256
:012256003255
:012257003254
:012258003253
:012259003252
:01225A003251
:01225B003250
:01225C00324F
:01225D00324E
:01225E00324D
:01225F00324C
:01226000324B
:01226100324A
:012262003249
:012263003248
:012264003247
:012265003246
:012266003245
:012267003244
:012268003243
:012269003242
:01226A003241
:01226B003240
:01226C00323F
:01226D00323E
:0A21F20000010202030304040505C6
:03000B000218CB0D
:1018CB00C0E0C0F0C083C082C0D075D000C000C0E3
:1018DB0004C005C006C0070547E547B40627051831
:1018EB00E51870020517AE17FF7C007D0A1202E99E
:1018FB00ED4C700E90281BE004F0700690281AE057
:10190B0004F0754700D007D006D005D004D000D026
:0A191B00D0D082D083D0F0D0E032AB
:1015FB00E4F529F528F527F526C203C200C202C27D
:10160B0001121C34754A11754B907552117553A20A
:10161B007548117549AC7550117551CC75541175D0
:10162B0055ECD2E843D82090E668E04409F090E608
:10163B005CE0443DF0D2AFD207121E4B90E680E047
:10164B0054F7F0C203300105120A10C2013003290E
:10165B001222375024C203121F7220001690E6820A
:10166B00E030E704E020E1EF90E682E030E604E0D2
:0E167B0020E0E4121EA612223912216E80C752
:100A100090E6B9E07003020AC1147003020B3E2491
:100A2000FE7003020BC124FB7003020ABB147003A7
:100A3000020AB514607314607624056003020C2169
:100A400012223B4003020C2D90E6BBE024FE602204
:100A500014603324FD601114602224067048E54AB6
:100A600090E6B3F0E54B8037E55290E6B3F0E553FE
:100A7000802DE54C90E6B3F0E54D8023E54E90E601
:100A8000B3F0E54F801990E6BAE0FF121ED2AA0635
:100A9000A9077B01EA494B600DEE90E6B3F0EF90B9
:100AA000E6B4F0020C2D020C261221A5020C2D1228
:100AB0002204020C2D1221FC020C2D122193020C97
:100AC0002D12223D4003020C2D90E6B8E0247F60F9
:100AD0001514601924027063A200E43325E0FFA21C
:100AE00002E4334F8041E490E740F0803F90E6BC61
:100AF000E0547EFF7E00E0D394807C0040047D01C2
:100B000080027D00EC4EFEED4F24F2F58274213E12
:100B1000F583E493FF3395E0FEEF24A1FFEE34E686
:100B20008F82F583E0540190E740F0E4A3F090E673
:100B30008AF090E68B7402F0020C2D020C26122231
:100B40003F4003020C2D90E6B8E024FE601624021C
:100B50006003020C2D90E6BAE0B40105C200020C5D
:100B60002D020C2690E6BAE0705590E6BCE0547E6B
:100B7000FF7E00E0D394807C0040047D0180027DF4
:100B800000EC4EFEED4F24F2F58274213EF583E435
:100B900093FF3395E0FEEF24A1FFEE34E68F82F55C
:100BA00083E054FEF090E6BCE05480131313541F0E
:100BB000FFE0540F2F90E683F0E04420F0806E8039
:100BC00065122241506790E6B8E024FE601A2402C4
:100BD000705B90E6BAE0B40104D200805090E6BAAF
:100BE000E0B402028047803E90E6BCE0547EFF7E87
:100BF00000E0D394807C0040047D0180027D00EC05
:100C00004EFEED4F24F2F58274213EF583E493FF0E
:100C10003395E0FEEF24A1FFEE34E68F82F583806A
:100C200008120720500790E6A0E04401F090E6A0EB
:040C3000E04480F02C
:010C3400229D
:0300330002222D79
:04222D0053D8EF3261
:10201500E4F5C8E58E54074438F58E8FCB8FCDAFE8
:0C202500058FCA8FCCD2BDD2ADD2CA222A
:101E1A00AB07AA06A905A8047F007E1B7D377C4B69
:101E2A00120151AB07AA06A905A804E4FFFE7D80AA
:101E3A007C471200591201EEAD07AC06AF0402202E
:011E4A001582
:1021C800AD07AC06C3E49DFBE49CFFEBFD022015C4
:03223400C2CA22F9
:03002B00021BF7BE
:101BF700C0E0C0F0C083C082C0D075D000C000C0B4
:101C070001C002C003C004C005C006C007121F4CB4
:101C1700C2CFD007D006D005D004D003D002D00160
:0D1C2700D000D0D0D082D083D0F0D0E032F9
:03004300021400A4
:0300530002140094
:10140000021FF600022104000213EA000220D500A8
:10141000021CA900021CE00002224A0002224B002A
:1014200002224C0002224D0002224E0002224F00F6
:1014300002225000022251000222520002225300D6
:101440000222540002224B000222550002225600C2
:1014500002225700022258000222590002225A009A
:1014600002225B0002224B0002224B0002224B00B0
:1014700002225C0002225D0002225E0002225F0066
:101480000222600002226100022262000222630046
:101490000222640002226500022266000222670026
:1014A000022268000222690002226A0002226B0006
:0814B00002226C0002226D0013
:101EA60090E682E030E004E020E60B90E682E03047
:101EB600E119E030E71590E680E04401F07F147EFA
:0C1EC60000121AB390E680E054FEF022F7
:101F720090E682E044C0F090E681F04387010000E1
:041F82000000002239
:101E4B0030070990E680E0440AF0800790E680E0D6
:101E5B004408F07FDC7E05121AB390E65D74FFF048
:0F1E6B0090E65FF05391EF90E680E054F7F0229D
:08220C00E4F51ED2E9D2AF2275
:101D170090E678E020E6F9C2E990E678E04480F0C2
:101D2700EF25E090E679F090E678E030E0F990E68C
:101D370078E04440F090E678E020E6F990E678E035
:061D470030E1D6D2E922D2
:101DE800A90790E678E020E6F9E51E702390E678EA
:101DF800E04480F0E925E090E679F08D19AF03A979
:101E080007751A018A1B891CE4F51D751E01D3226A
:021E1800C322E3
:101D8200A90790E678E020E6F9E51E702590E6784E
:101D9200E04480F0E925E0440190E679F08D19AF46
:101DA20003A907751A018A1B891CE4F51D751E0318
:041DB200D322C32253
:03004B0002108818
:10108800C0E0C083C082C085C084C086758600C0A9
:10109800D075D000C000C001C002C003C006C007A0
:1010A80090E678E030E206751E0602117290E67846
:1010B800E020E10CE51E64026006751E070211724D
:1010C800E51E24FE605F14603624FE70030211637F
:1010D80024FC700302116F24086003021172AB1A1A
:1010E800AA1BA91CAF1D051D8F82758300120288DB
:1010F80090E679F0E51D65197070751E05806B9096
:10110800E679E0AB1AAA1BA91CAE1D8E8275830076
:101118001202C7751E02E5196401704E90E678E068
:101128004420F08045E51924FEB51D0790E678E0D7
:101138004420F0E51914B51D0A90E678E04440F023
:10114800751E0090E679E0AB1AAA1BA91CAE1D8E8D
:10115800827583001202C7051D800F90E678E0446F
:1011680040F0751E008003751E005391DFD007D034
:1011780006D003D002D001D000D0D0D086D084D001
:0811880085D082D083D0E03253
:021ED200A9075E
:101ED400AE54AF558F828E83A3E064037017AD01B7
:101EE40019ED7001228F828E83E07C002FFDEC3E81
:091EF400FEAF0580DF7E007F00D7
:011EFD0022C2
:10203100121D82E51E24FA600E146006240770F357
:0C204100D322E4F51ED322E4F51ED322C6
:10204D00121DE8E51E24FA600E146006240770F3D5
:0C205D00D322E4F51ED322E4F51ED322AA
:101AB3008E2A8F2B90E600E054187012E52B240138
:101AC300FFE4352AC313F52AEF13F52B801590E6AF
:101AD30000E05418FFBF100BE52B25E0F52BE52A9A
:101AE30033F52AE52B152BAE2A7002152A4E600515
:061AF300121F8680EE22A6
:101F86007400F58690FDA57C05A3E582458370F96E
:011F96002228
:1000560002025AE86480F8E933E83360110460F07C
:10006600ED33EC337009E8FCE9FDEAFEEBFF220410
:1000760060DED3EB9FEA9EE99DE8C2E78CF0C2F70B
:1000860095F0400CE8CCF8E9CDF9EACEFAEBCFFBD7
:1000960012022585D0F05804700320D5B3E8047009
:1000A600075002B2D502026492D5EC0460F7E4CCA4
:1000B600C0E0C398F8603B94186008400DD0E0FBA0
:1000C60002023CE4FBFAC9FC8028E830E406E4C9F5
:1000D600FBE4CAFCE830E305E4C9CACBFCE85407F4
:1000E6006010F8C3E913F9EA13FAEB13FBEC13FCFF
:1000F600D8F130F52FC3E49CFCEF9BFFEE9AFEEDA2
:1001060099FDD0E0FBEF4E4D4C701222DB0302024C
:1001160061EC2CFCEF33FFEE33FEED33FDED30E703
:10012600EB02023CEF2BFFEE3AFEED39FDD0E0FB91
:1001360050130BBB0003020264ED13FDEE13FEEF3A
:0801460013FFEC13FC02023C64
:10014E00020264EC5D046005E85904700302025A71
:10015E00120225580460F6EC4860F2EC7004FDFEC5
:10016E00FF22C860DB2481C85009C3986002500684
:10017E000202619850CAF582E9294B4A7005AB829A
:10018E0002025075F0007C1A7880C3EF9BEE9AED58
:10019E0099400DC3EF9BFFEE9AFEED99FDE842F0FC
:1001AE00DC23ACF0D0E0FFD0E0FED0E0FDAB82204F
:1001BE00E7101BEB60BAEC2CFCEF33FFEE33FEEDD9
:1001CE0033FD02023CE803F830E705C0F075F0009D
:1001DE00EF2FFFEE33FEED33FD40B830E7C280AABD
:1001EE00EDD2E7CD33EC3392D524814006E4FFFE09
:1001FE00FDFC22FCE4CFCECDCC24E0501174FF8068
:10020E00EDC3CC13CCCD13CDCE13CECF13CF047004
:07021E00F030D5DE02033EC3
:10022500E9D2E7C933E833F892D5EDD2E7CD33EC1F
:0702350033FC5002B2D52298
:10023C00EC30E7100FBF000C0EBE00080DBD000423
:10024C000BEB6014A2D5EB13FCED92E7FD2274FFCF
:10025C00FCFDFEFF22E480F8A2D574FF13FC7D8028
:03026C00E480EF3C
:030000000216895C
:0C168900787FE4F6D8FD7581B60216D01B
:10026F00BB010689828A83E0225002E722BBFE028D
:09027F00E32289828A83E49322C0
:10028800BB010CE58229F582E5833AF583E022502B
:1002980006E92582F8E622BBFE06E92582F8E22275
:0D02A800E58229F582E5833AF583E493228F
:1002B500BB010689828A83F0225002F722BBFE0128
:0202C500F32222
:1002C700F8BB010DE58229F582E5833AF583E8F06D
:1002D700225006E92582C8F622BBFE05E92582C819
:0202E700F22201
:1002E900BC000BBE0029EF8DF084FFADF022E4CCF9
:1002F900F875F008EF2FFFEE33FEEC33FCEE9DECC2
:10030900984005FCEE9DFE0FD5F0E9E4CEFD22ED07
:10031900F8F5F0EE8420D21CFEADF075F008EF2F51
:10032900FFED33FD4007985006D5F0F222C398FD42
:050339000FD5F0EA22DF
:0E033E00C3E49FFFE49EFEE49DFDE49CFC22D0
:10034C00D083D082F8E4937012740193700DA3A340
:10035C0093F8740193F5828883E473740293686054
:06036C00EFA3A3A380DF54
:10037200D083D082F8E4937012740193700DA3A31A
:1003820093F8740193F5828883E473740293B5F051
:0D039200067403936860E9A3A3A3A380D8B9
:10197C008B3D8A3E893FE4F545F546E5441544AE7A
:10198C0043700215434E6033AB40AA41A942120288
:10199C006FFFAB3DAA3EA93F0546E546AC4570023C
:1019AC00054514F5828C83EF1202C7EF60CD7401EC
:1019BC002542F542E43541F54180C0AB3DAA3EA934
:0219CC003F22B8
:10215900E4FFFE12026F600C0FEF70010E09E970C7
:05216900F20A80EF22E4
:10039F00EF4E6012EF60010EEDBB010B89828A8375
:1003AF00F0A3DFFCDEFA2289F05007F709DFFCA982
:0C03BF00F022BBFEFCF309DFFCA9F022D9
:101695000215FBE493A3F8E493A34003F68001F25B
:1016A50008DFF48029E493A3F85407240CC8C33356
:1016B500C4540F4420C8834004F456800146F6DF25
:1016C500E4800B0102040810204080902144E47E50
:1016D500019360BCA3FF543F30E509541FFEE4931A
:1016E500A360010ECF54C025E060A840B8E493A3E1
:1016F500FAE493A3F8E493A3C8C582C8CAC583CA0C
:10170500F0A3C8C582C8CAC583CADFE9DEE780BEC3
:012158000086
:00000001FF
