:100E5F006080E000010101010101010700000000B5
:100E6F00000000000707070707070707000000003B
:100E7F000000003F01010101010101070000000016
:100E8F00000000000707070707070707000000001B
:100E9F000000003F8F01070101010107010003025C
:100EAF00020202000701070707070707F200F20017
:100EBF000000003F0F010F010101010701020500B2
:100ECF00000000000706070707070707F000F000FC
:100EDF000000003F6024E0870000000000000000D9
:100EEF0000000000000000000000000000000000F3
:100EFF0000000000000000000000000047E080E05C
:060F0F00000007BA4E00CD
:1010020090E60174BAF090E6F574FFF090E080E0AB
:1010120090E6F3F090E081E090E6C3F090E082E0A9
:1010220090E6C1F090E083E090E6C2F090E085E0C7
:1010320090E6C0F090E086E090E6F4F075AF0774B9
:10104200E0F59A7400F59B759DE4E4F59EFF90E649
:101052007BE090E67CF00FBF80F4E490E671F0F55F
:10106200B490E672E0547FF053B67F000000E49043
:10107200E6C4F000000090E6C5F090E087E090E65C
:10108200C6F090E088E090E6C7F090E089E090E654
:10109200C8F090E08AE090E6C9F090E08BE090E63C
:1010A200CAF090E08CE090E6CBF090E08DE090E624
:0A10B200CCF090E08EE090E6CDF067
:0110BC002211
:101300001201000200000040051680810000010269
:1013100000010A060002000000400100090220004E
:1013200001010080320904000002FF0000000705EF
:1013300002020002000705860200020009022000E6
:1013400001010080320904000002FF0000000705CF
:1013500002020002000705860200020014030000DA
:10136000000000000000000000000000000000007D
:101370000C0341004300430045005300180355008F
:10138000530042002D0041004900310036002D007D
:1013900032004100000000000000000000000000DA
:0213A00000004B
:080F150042E0AB0000011F00E7
:10215B0090E6BFE090E68AF090E6BEE090E68BF06A
:01216B002251
:0400460053B1FB2295
:04004E0043B1042294
:0900360012003F12003F12003FCE
:04003F0063B1042283
:0400560053B1F72289
:0421D90043B10822E4
:1020FA0090E6047480F00000007406F0000000E42A
:05210A00F000000022BE
:101F6E00AFB11221D9E4FE0EBE64FC53B1FD43B1F4
:0F1F7E000290E6487486F0F0F0F01220FA8FB16E
:011F8D002231
:101EB000D212300D0D90E6F4E030E306E030E4029B
:101EC000C2123012101221D990E6F4E020E3091278
:081ED000003F02003F12005622
:011ED80022E7
:0721C40053B1FE43B10122FB
:01002A0022B3
:01004A002293
:10187400E5BB30E727E51F7023E5AC20E04200001C
:101884000090E6D07402F0000000E490E6D1F0008D
:101894000000751F0175BB0600000022E5BB30E7A0
:1018A4001FE51FB4011A00000090E6AFE064026077
:1018B4000690E6B0E0600690E6487406F0E4F51F92
:0118C4002201
:0921900012003612003602003F75
:1017D000EF14601B14602914603724037043ED205C
:1017E000E0047F0180027F00EF24FFB392A422ED8A
:1017F00020E0047F0180027F00EF24FFB392A52246
:10180000ED20E0047F0180027F00EF24FFB392A669
:1018100022ED20E0047F0180027F00EF24FFB392DD
:02182000A722FD
:1010BD00EF14601B14601C14601D24FB601D146074
:1010CD001E14601F146020240B7022A2A4801AA28B
:1010DD00A58016A2A68012A2A7800EA2A0800AA2A9
:1010ED00A18006A2A28002A2A3E433FF227F0022E8
:1019EE00120277FF20E0047E0180027E00EE24FFCB
:1019FE00B392A4EF20E1047F0180027F00EF24FF69
:101A0E00B392A5120277FF20E2047E0180027E00CF
:101A1E00EE24FFB392A6EF20E3047F0180027F0045
:071A2E00EF24FFB392A72291
:10213700E5A0C4540F1202BDE5A0540F90000102A0
:0221470002CFC5
:101E5A0090E0B3E060031215AA90E0B5E0600312C7
:101E6A0018C590E0C7E0600312191190E109E0601B
:0B1E7A000990E0C8E0600312195C2230
:1016C70090E600E054E74410F012100290E601E0C3
:1016D70054BFF0E490E671F000000090E6D204F009
:1016E70000000090E6E204F01221D975B2FE75B44D
:1016F700F075B67F1221D9120046C28112217C9063
:10170700E61474E0F0C20D121EB01220FA90E61A29
:091717007409F01220FA021F6EA1
:01005200228B
:0721CB008F518D528B53224E
:0721D2008F5B8D5C8B5D2229
:01005A002283
:0122000022BB
:0122010022BA
:05002E008F238D242248
:0122020022B9
:0122030022B8
:1017200090E6B8E030E727E4F520A2829200A28498
:101730009201A285920290E740E520F0A2839200F8
:10174000A2869201A2879202A3F012215B221221AB
:101750005B90E6A0E020E1F990E740E0139282E0A0
:10176000A2E19284E0A2E29285A3E0139283E0A238
:09177000E19286E0A2E2928722D8
:101AF50090E6B8E030E7147B017AE77940122137A8
:101B050012215B90E6A0E04480F02290E6BEE0D38F
:101B150094004015E090E68BF090E6A0E020E1F916
:0A1B25007B017AE779401219EE22E5
:100D7100120B545003020E5D90E6B9E024CC24FD21
:100D8100501F247B602E24FE601124EC600D24C0D2
:100D91006003020E5B121AF5020E5D121720020E9D
:100DA1005D121F6E1220FAE490E68AF090E68B0441
:100DB100F0020E5D90E6BBE06410705290E6BAE07E
:100DC10030E0031220FA90E6BAE030E103121F6E20
:100DD10090E6BAE030E2031220FA90E6BAE030E49D
:100DE1000DE030E303D38001C3920D121EB090E6F3
:100DF100BAE030E5031220FA90E6BAE030E60312D9
:100E01001F6E90E6BAE030E7451220FA804090E686
:100E1100BAE024FE602514601324F3602214600AF2
:100E210014602314600624127024800BC20D121E5C
:100E3100B0121F6E1220FAD20D8006D20E800FC2A0
:100E41000D121EB08008C20D121EB0121F6E1221AB
:0E0E51005B90E6A0E04480F08002D322C32232
:0A217C0053917F43E80843F808225E
:0421DD0053917F2279
:03005B00021DD4AF
:101DD400C0E0C083C082C085C084C086758600C050
:101DE400D053917F90E6F4E0A2E3B3720C920CD04E
:0E1DF400D0D086D084D085D082D083D0E0328B
:1020AE00564D617920303420323032304031323A60
:0B20BE0035363A323900000000000007
:100F1D00021520C502080000010F01010C01010A94
:040F2D00010112FFAD
:1008CE00E0FFAE2F052F74402EF582E434E7F5835A
:1008DE0022E490E68AF090E6BEE090E68BF022905D
:1008EE00E740F0E490E68AF090E68B22E0FE74207A
:1008FE002FF582E434E1F583E022FF7442252AF5D8
:10090E0082E434E7F583EFF0052AE52A22FF7E0024
:10091E000DEE2516F582E43515F58322252FF52FDC
:10092E00E532352EF52EC3E5319533F531E53095AB
:10093E0032F5302274402535F58274E73534F5836F
:10094E00227586005391EF90E65D22240C7C007B8D
:10095E0001F9EC22E490E128F0A3F0F517F5182246
:10096E007426252AF582E434E1F58322EE25E0246F
:10097E00B7F582E434E0F583E0FD547FFFED227499
:10098E00102FF582E434E1F58322740E2EF582E405
:10099E0034E1F583E0227D617AE07BAD7F017E1F3D
:1009AE002290E6BEE064022290E6BEE0640122C31D
:1009BE00E5359533E53495322274242FF582E434EF
:1009CE00E1F58322F583EFF090E741E0FFEE25E0BD
:1009DE0022E52F2535F582E52E3534F58322854324
:1009EE0047854448854B49854C4A22854B47854C63
:1009FE004885434985444A2290E6A0E04480F0228F
:100A0E00AD337AE77B40AF2FAE2E2290E0AD740A65
:100A1E00F0E4A3F0227C007B01F9EC2290E6BEE02C
:0A0A2E006404227B017AE77940227C
:1020C90090E0B0E0FF700690E0AFE0600890E0AF0C
:0920D900E0FD02000E1221F122CB
:102042007E007F617D007B017AE079AD1203A712E9
:0B2052000A1912005A12005202214924
:101F8E007D021209A6121B6990E0ADE0B40A04A30B
:101F9E00E060030220421209A4121B6912005222B1
:10214900120A191209A4121C467D617F007E1F0222
:0221590010FD77
:10160D001220C990E6BEE0F539753B02E539604B15
:10161D00C39440500585393A8003753A401208F15C
:10162D00E53AF090E6A0E020E1F9E4F538E538C3BD
:10163D00953A501E744025381208D7E0FFAE3B0591
:10164D003BEE24AD12095B34E0FAEF1202BD053812
:0E165D0080DBC3E539953AF53980B10220C92A
:1014BC0090E6B8E030E733E4F52FF52EE52EC39433
:1014CC000250207E007B01740A252EF9EE34E1FADD
:1014DC00120277FF7440252F1208D7EFF0052E0566
:1014EC002F80D91208DF120A06221208E490E6A017
:1014FC00E020E1F91209AF6003C20F22E4F52EF5EA
:10150C002FE52EC39402501D7440252F1208D7E0EE
:10151C00FFE52E240A120A2334E1FAEF1202BD056C
:10152C002E052F80DC90E6BAE0B4CE08A3E0B4AC74
:04153C00031221492C
:011540002288
:0F12F100D3E518950EE517950D400312219922AC
:0122040022B7
:101F4B0090E0B2E0FE90E0B1E07C002400F50EECF6
:101F5B003EF50D450E7007C28CC2A9C21022D28C61
:031F6B00D2A922D6
:0122050022B6
:101B2F001208E490E6A0E020E1F9E4FF74422FF5FB
:101B3F0082E434E7F583E0FEEF12095934E1FAEE5F
:101B4F001202BD0FBF02E590E740E090E0B1F090C8
:0A1B5F00E741E090E0B2F0021F4BF6
:09219900122201120962D2102287
:1020E200C210120962C28CC2A9538EF75389F143FE
:0820F2008901122205021F4BB7
:101BDA00E50945086019E50915097002150814C3D5
:101BEA0094FFE508648094805016120046801130F4
:101BFA000F0E7508057509FF12004EC20F12096211
:051C0A00301002D20FB2
:011C0F0022B2
:100F320090E6B8E030E75CE4F52F90E0B11208CE1D
:100F4200EFF090E0B21208CEEFF0E4F52EE52EC3FA
:100F5200940250207E007B01740C252EF9EE34E1C0
:100F6200FA120277FF7440252F1208D7EFF0052EF0
:100F7200052F80D91208D0E518F0E5171208CFEF37
:100F8200F0A210E4331208CFEFF0C2101208DF1201
:100F92000A06221208E490E6A0E020E1F9C210124B
:100FA2000A2A6003C20F22E4F52FAF2F052F7440E7
:100FB2002F1208D7E090E0B1F0AF2F052F74402F29
:100FC2001208D7E090E0B2F0E4F52EE52EC39402C9
:100FD200501B7440252F1208D7E0FFE52E12095945
:100FE20034E1FAEF1202BD052E052F80DE121F4BEF
:0F0FF20090E6BAE0B4CE08A3E0B4AC03122149F4
:0110010022CC
:0421E100750F012253
:10166B001220C990E6BEE0F539E4F53BE539604B55
:10167B00C39440500585393A8003753A401208F1FE
:10168B00E53AF090E6A0E020E1F9E4F538E538C35F
:10169B00953A501E744025381208D7E0FFAE3B0533
:1016AB003BEE24C8120A2334E0FAEF1202BD0538D0
:0B16BB0080DBC3E539953AF53980B1BA
:0116C6002201
:10195C00150FE50F704390E0C8E0F50F122202E47A
:10196C00FE90E109E0FFEEC39F502BEE25E024C969
:10197C00F582E434E0F583E0FBEE25E024CAF58241
:10198C00E434E0F583E0FAAF03547FFDEA339211BF
:09199C0012002E0E80CB12220372
:0119A500221F
:10205D001208E490E6A0E020E1F990E740E090E07E
:0B206D00B3F090E741E090E0B4F022F7
:1015AA00150CE50C705C90E0B3E0F50C7B017AE178
:1015BA00792A122137E4FFFE742A2EF582E434E1F7
:1015CA00F583E0FD1209986DF97D01E4FCECC39402
:1015DA00085029E95D601312098DE014F012098D93
:1015EA00E070111209986DF0800090E0B4E0FB12EF
:1015FA00098DEBF00CED25E0FD0F80D10EEE6402B3
:02160A0070B6B8
:01160C0022BB
:102124001208E490E6A0E020E1F990E740E090E0B6
:03213400B5F022E1
:101FEC00E4F513FF1208FCFE74262F120972EEF0B2
:0D1FFC001208FCFE1209C7EEF00FBF02E74D
:0120090022B4
:1018C500150AE50A704590E0B5E0F50A7B017AE175
:1018D5007920122137E4FF74262F120972C083C0C4
:1018E500821208FAFDEE5DD082D083F01209C7C0DE
:1018F50083C0821208FAFDEE4DD082D083F00FBF6F
:0B19050002D5E513C394FF5002051348
:0119100022B4
:0421E5007512FF224E
:10191100E4FE051290E0C7E0FFEEC39F5032EE25D2
:10192100E024B8F582E434E0F583E0C39512500E6B
:1019310012097A30E7047D0080107D01800C1209C4
:101941007A30E7047D0180027D001217D00E80C439
:0A19510090E0B6E0B51203E4F512D1
:01195B002269
:101ED9001208E490E6A0E020E1F9E4FF74402F1233
:101EE90008D7E0FEEF7C007B0124B6F9EC34E0FA78
:081EF900EE1202BD0FBF12E45E
:011F010022BD
:041263008E388F39F9
:10126700E4F53AE53964024538700C90E741F0E55A
:1012770039153970021538E5396401453870109011
:10128700E74074611208E3E539153970021538E54E
:10129700394538605490E6A0E020E1F9C3E5399478
:1012A70040E53894005004AD3980027D40E4FFEFFB
:1012B700C39D5021AE3A053AEE7583007B0124ADFC
:1012C700F9E58334E0FA120277FE74402F1208D74B
:1012D700EEF00F80DA1208F1EDF0FFC3E5399FF564
:0912E70039E5389400F53880A6C1
:0112F00022DB
:1003D30090E6B8E030E76090E6BFE0FE90E6BEE06E
:1003E300FDEDFF4E7002804A90E6BDE0FD90E6BC55
:1003F300E04D700302126390E6BDE0600302072341
:1004030090E6BCE0146003020723753BFF753C20B4
:10041300753DAE753E00753F1E7B017AE77941124B
:100423001822120A3112210FEF0490E740F090E6F0
:10043300BEE090E68BF02290E6BFE0FF90E6BEE0E0
:100443004F707790E6BDE0704D90E6BCE024EF601E
:1004530023249F603024FD603324F36034247270BE
:100463003590E6BAE064CE702DA3E064AC70271239
:100473002149802290E6BAE0B4CE1BA3E0B4AC16C7
:100483001220428011E490E0C7F0800A7512FF80C9
:1004930005E490E109F090E6BDE0648060030207A3
:1004A3002390E6BCE06401600302072390E6BAE010
:1004B30090E0AFF090E6BB02057C90E6BFE06003FE
:1004C30002072390E6BDE0FE90E6BCE07C0024003A
:1004D300FFEC3EFEEF8EF012037A05250020052582
:1004E30000210525002205250023055A002F058438
:1004F3000041058F0051059A005305B7006105C2FD
:10050300006305DF007105ED0073060A0074064FF2
:100513000081065D0083067A008406C08001000026
:10052300072390E6BEE0B45F0312160D90E6BCE02D
:1005330030E00312005290E6BCE020E103020723FF
:1005430090E6BAE064CE6003020723A3E064AC60E4
:10055300030207230221491209AF6003020723E0C4
:1005630090E68BF090E6A0E020E1F91220C990E735
:1005730040E090E0AFF090E741E090E0B0F0020798
:1005830020120A2A6003020723021B2F1209AF60FD
:100593000302072302205D1209B66003020723E06A
:1005A30090E68BF090E6A0E020E1F990E740E09040
:1005B300E0B3F0221209B6600302072302212412DA
:1005C30009B66003020723E090E68BF090E6A0E013
:1005D30020E1F990E740E090E0B5F02290E6BEE03C
:1005E30064126003020723021ED91209B6600302D4
:1005F3000723E090E68BF090E6A0E020E1F990E796
:1006030040E090E0B6F0221209AF600302072390A6
:10061300E0C7E0C3940840030207231208E490E60E
:10062300A0E020E1F990E740E0FF90E0C7E0FE257D
:10063300E024B5F582E434E01209D224B6F582E46D
:1006430034E0F583EFF090E0C70206BC90E6BEE02D
:100653006442600302072302166B1209B6600302A9
:100663000723E090E68BF090E6A0E020E1F990E725
:1006730040E090E0C8F0221209AF60030207239024
:10068300E109E0C3942040030207231208E490E643
:10069300A0E020E1F990E740E0FF90E109E0FE25CA
:1006A300E024C7F582E434E01209D224C8F582E4D9
:1006B30034E0F583EFF090E109E004F0221208E45E
:0C06C30090E6A0E020E1F9120A2A705431
:1006CF0090E740E0FCA3E0FDA3E0FEA3E0F5318E50
:1006DF00308D2F8C2EFBAA30A92FA82E7F007E1BCA
:1006EF007D377C4B1201598F358E348D338C32AB65
:1006FF0035AA34A933A832E4FFFE7D807C4712006F
:10070F00611201F68E368F37EF90E0AFF0E536A32A
:04071F00F01220C9EB
:0107230022B3
:1020780090E6047480F00000007402F00000007420
:0B20880006F0000000E4F00000002261
:0122060022B5
:101ABA00E4F5297AE779407F40AB077D087FF87E15
:101ACA001D121B69E4F529744025291208D7E0FD87
:101ADA00E52975F002A4245EF9741335F08982F5BC
:0A1AEA0083EDF00529E529B408DDBD
:011AF40022CF
:101A7B0090E678E05410FFC4540F4450F51013E473
:101A8B0033F514438E201221F11221C41221BC1202
:101A9B001ABA12002AD208121F8E1220E21221E16A
:0F1AAB00121FEC1221E51220C91200460216C7C5
:1020930012004A121BDA1212F190E680E02080054A
:0B20A3004408F0800354F7F0021874AA
:061779008B568A578958C7
:10177F00E4F55912210F8F5AE55A25E024029013F0
:10178F007CF0E4F559AF5AEF3395E0FEC3E5599F6E
:10179F00EE6480F87480985027AB56AA57A95885E5
:1017AF005982758300120290FDE55975F002A42449
:1017BF007EF9741335F08982F583EDF0055980C5F4
:0117CF0022F7
:061BA2008E3E8F3FAC05F2
:101BA800E4FDE5146007E53E12091BEFF0AE050DF4
:101BB800E5162E120922E53FF0AF050DE5162F12A6
:101BC8000922ECF0AB16AA15AF10122026AF1002AE
:021BD8001C10DF
:0310FD00021BA231
:0A1C46008E388F398D3A8A3B8B3CB3
:101C5000E4F53DE53DC3953A50200539E539AE3808
:101C60007002053814FFE53C253DF582E4353BF56F
:0A1C700083E0FD1210FD053D80D950
:011C7A002247
:0A1B69008E368F378D388A398B3A9B
:101B7300E4FDF53BE5146007E53612091BEFF0AE13
:101B8300050DE5162E120922E537F0AB16AA15AF9F
:0F1B930010122026AB3AAA39AD38AF1002200A43
:100A380090E6BAE0752E00F52FA3E0FEEE422E9068
:100A4800E6BEE0753000F531A3E0FEEE423090E6F8
:100A5800B8E064C06003020AFEE531453070030265
:100A68000B5390E6A0E020E1F9C3E5319440E5306E
:100A78009400500885303285313380067532007510
:100A8800334090E6B9E064A3704090E6BCE0B4015E
:100A98001BA3E0701790E6BBE030E71090E74074C6
:100AA80003F0A37401F0A37403F0803EE4F534F579
:100AB800351209BD50341209DFE0FF120942EFF088
:100AC8000535E53570EB053480E7E4F534F5351286
:100AD80009BD501012094274CDF00535E53570EFA7
:100AE800053480EB120A0E121B691208F1E533F087
:100AF80012092A020A6190E6B8E06440704DE531B7
:100B0800453060471208F1F090E6A0E020E1F99046
:100B1800E68BE0753200F53390E6B9E0B4A31EE445
:100B2800F534F5351209BD501A120942E0FF1209D1
:100B3800DFEFF00535E53570EB053480E7120A0E76
:0B0B4800121C46E53312092A020B06BE
:010B5300227F
:0221F400C32204
:0221F600D322F2
:0221F800D322F0
:0800030090E6BAE0F50BD322F0
:0921A200E50B1208ED04F0D32254
:0821B40090E6BAE0F511D32218
:0921AB00E5111208ED04F0D32245
:0221FA00D322EE
:0221FC00D322EC
:0221FE00D322EA
:1011B800E4FF90E6B8E020E7030212620F0F7440E4
:1011C80024011208D7740AF00F744024021208D7B9
:1011D800E4F00F744024031208D7E4F00F7440249D
:1011E800041208D7E4F00F744024051208D77402DB
:1011F800F00F744024061208D7E4F00F7440240757
:101208001208D7E4F00F744024081208D774FFF0CE
:101218000F744024091208D774FFF00F7440240A91
:101228001208D77408F00F7440240B1208D77420E2
:10123800F00F7440240C1208D77403F00F74402484
:101248000D1208D77403F00F7440240E1208D774D7
:0A12580001F090E740EFF01208DF0C
:011262002269
:100B540090E6B9E01203540B9B100B9B110BD414B9
:100B64000C45150B89280B832E0B7D3C0B953F0BF5
:100B74008FA20B8FA300000C651203D3020C671223
:100B84000F32020C671214BC020C67120A38020CF2
:100B9400671211B8020C6790E6B8E030E709120A50
:100BA40031122137020C5D90E6BEE0701090E6BC75
:100BB400E0FF90E6BAE0FD1217D0020C671208E4D9
:100BC40090E6A0E020E1F9120A311219EE020C6756
:100BD400C2AF90E748E513F0E4F5137B017AE779B7
:100BE40046122137E4F52A7420252A1208FFFF74DF
:100BF40040252A1208D7120914B402EB90E6BCE08F
:100C04006010E4F52A12096EE0F4120908B402F542
:100C1400800DE4F52A12096EE0120908B402F6E424
:100C2400F52A7424252A1209CAE0FF7444252AF5FA
:100C340082E434E7120912B402E8121FECD2AF8046
:100C440018E4F52A740E252A12099BFF7440252AFC
:100C54001208D7120914B402EB1208DF120A068034
:040C640002C322D3D2
:010C68002269
:101E8500C0E0C083C082C085C084C08675860090CE
:101E9500E6B5E04401F0D2091209527401F0D0868A
:0B1EA500D084D085D082D083D0E03202
:101FAE00C0E0C083C082C085C084C08612094F7451
:0F1FBE0004F0D086D084D085D082D083D0E0329A
:101FCD00C0E0C083C082C085C084C08612094F7432
:0F1FDD0002F0D086D084D085D082D083D0E0327D
:101CE100C0E0C083C082C085C084C0867586009074
:101CF100E680E030E7051209EC80031209F91209C8
:101D0100527410F0D086D084D085D082D083D0E0B8
:011D1100329F
:101F2700C0E0C083C082C085C084C086758600D2E9
:101F37000B1209527408F0D086D084D085D082D095
:041F470083D0E03231
:101D1200C0E0C083C082C085C084C0867586009042
:101D2200E680E030E7051209EC80031209F9120996
:101D3200527420F0D086D084D085D082D083D0E077
:011D4200326E
:0122070032A4
:0122080032A3
:0122090032A2
:01220A0032A1
:01220B0032A0
:01220C00329F
:01220D00329E
:01220E00329D
:01220F00329C
:01221000329B
:01221100329A
:012212003299
:012213003298
:012214003297
:012215003296
:012216003295
:012217003294
:012218003293
:012219003292
:01221A003291
:01221B003290
:01221C00328F
:01221D00328E
:01221E00328D
:01221F00328C
:01222000328B
:01222100328A
:012222003289
:012223003288
:012224003287
:012225003286
:012226003285
:012227003284
:012228003283
:0421E90012219032FD
:012229003282
:0A2186000001020203030404050532
:101D4300EC4EFEED4F2486F58274213EF583E49339
:101D5300FF3395E0FEEF24A1FFEE34E68F82F58397
:101D63002290E6BCE0547EFF7E00E0D394807C00AA
:011D7300224D
:03000B000215419A
:10154100C0E0C0F0C083C082C085C084C0867586FB
:1015510000C0D075D000C000C004C005C006C007DF
:101561000542E542B406270518E51870020517AED5
:1015710017FF7C007D0A1202F1ED4C700E90E129FB
:10158100E004F0700690E128E004F0754200D00715
:10159100D006D005D004D000D0D0D086D084D0855C
:0915A100D082D083D0F0D0E032FA
:1013A200E4F528F527F526F525C20BC208C20AC2C4
:1013B20009121A7B754513754600754D13754E1249
:1013C20075431375441C754B13754C3C754F13755F
:1013D200505CD2E843D82090E668E04409F090E6F9
:1013E2005CE0443DF0D2AFD212121DA590E680E03F
:1013F20054F7F0C20B300905120724C209300B2939
:101402001221F45024C20B121F0220081690E68209
:10141200E030E704E020E1EF90E682E030E604E02D
:0E14220020E0E4121E021221F612209380C771
:1007240090E6B9E070030207D51470030208292487
:10073400FE700302088324FB70030207CF147003C6
:100744000207C9146073146076240560030208BAB2
:100754001221F840030208C690E6BBE024FE6022A2
:1007640014603324FD601114602224067048E545AA
:1007740090E6B3F0E5468037E54D90E6B3F0E54EFC
:10078400802DE54790E6B3F0E5488023E54990E6FF
:10079400B3F0E54A801990E6BAE0FF121E2EAA06CD
:1007A400A9077B01EA494B600DEE90E6B3F0EF90A8
:1007B400E6B4F00208C60208BF1221AB0208C61252
:1007C40021B40208C61200030208C61221A20208BC
:1007D400C61221FA40030208C690E6B8E0247F60FE
:1007E400151460192402703AA208E43325E0FFA22C
:1007F4000AE4334F8018E490E740F08016121D6439
:1008040040047D0180027D00121D43E0540190E705
:1008140040F0E4A3F090E68AF090E68B7402F002D4
:1008240008C60208BF1221FC40030208C690E6B8BD
:10083400E024FE6016240260030208C690E6BAE0D3
:10084400B40105C2080208C60208BF90E6BAE07007
:100854002C121D6440047D0180027D00121D43E0C2
:1008640054FEF090E6BCE05480131313541FFFE0D1
:10087400540F2F90E683F0E04420F08045803C1232
:1008840021FE503E90E6B8E024FE601A2402703245
:1008940090E6BAE0B40104D208802790E6BAE0B446
:1008A4000202801E8015121D6440047D0180027DB9
:1008B40000121D438008120D71500790E6A0E04419
:0908C40001F090E6A0E04480F090
:0108CD002208
:030033000221EDBA
:0421ED0053D8EF32A2
:10000E00E4F5C8E58E54074438F58E8FCB8FCDAF0F
:0C001E00058FCA8FCCD2BDD2ADD2CA2251
:101D7400AB07AA06A905A8047F007E1B7D377C4B10
:101D8400120159AB07AA06A905A804E4FFFE7D8049
:101D94007C471200611201F6AD07AC06AF040200E5
:011DA4000E30
:10216C00AD07AC06C3E49DFBE49CFFEBFD02000E47
:0321F100C2CA223D
:03002B000219A611
:1019A600C0E0C083C082C085C084C086758600C082
:1019B600D075D000C000C001C002C003C004C0057D
:1019C600C006C007121E5AC2CFD007D006D005D017
:1019D60004D003D002D001D000D0D0D086D084D09D
:0819E60085D082D083D0E032ED
:101E020090E682E030E004E020E60B90E682E030EB
:101E1200E119E030E71590E680E04401F07F147E9E
:0C1E220000121A3590E680E054FEF02219
:101F020090E682E044C0F090E681F0438701000051
:041F120000000022A9
:101DA50030120990E680E0440AF0800790E680E072
:101DB5004408F07FDC7E05121A3590E65D74FFF06D
:0F1DC50090E65FF05391EF90E680E054F7F02244
:0821BC00E4F51ED2E9D2AF22C6
:101C100090E678E020E6F9C2E990E678E04480F0CA
:101C2000EF25E090E679F090E678E030E0F990E694
:101C300078E04440F090E678E020E6F990E678E03D
:061C400030E1D6D2E922DA
:101CAF00A90790E678E020E6F9E51E702390E67824
:101CBF00E04480F0E925E090E679F08D19AF03A9B3
:101CCF0007751A018A1B891CE4F51D751E01D322A5
:021CDF00C3221E
:101C7B00A90790E678E020E6F9E51E702590E67856
:101C8B00E04480F0E925E0440190E679F08D19AF4E
:101C9B0003A907751A018A1B891CE4F51D751E0320
:041CAB00D322C3225B
:03004B00020C693B
:100C6900C0E0C083C082C085C084C086758600C0CC
:100C7900D075D000C000C001C002C003C006C007C3
:100C890090E678E030E206751E06020D5390E6788C
:100C9900E020E10CE51E64026006751E07020D5393
:100CA900E51E24FE605F14603624FE7003020D44C5
:100CB90024FC7003020D5024086003020D53AB1A83
:100CC900AA1BA91CAF1D051D8F82758300120290F6
:100CD90090E679F0E51D65197070751E05806B90B9
:100CE900E679E0AB1AAA1BA91CAE1D8E827583009A
:100CF9001202CF751E02E5196401704E90E678E084
:100D09004420F08045E51924FEB51D0790E678E0FA
:100D19004420F0E51914B51D0A90E678E04440F046
:100D2900751E0090E679E0AB1AAA1BA91CAE1D8EB0
:100D3900827583001202CF051D800F90E678E0448A
:100D490040F0751E008003751E005391DFD007D057
:100D590006D003D002D001D000D0D0D086D084D024
:080D690085D082D083D0E03276
:021E2E00A90702
:101E3000AE4FAF508F828E83A3E064037017AD0165
:101E400019ED7001228F828E83E07C002FFDEC3E25
:091E5000FEAF0580DF7E007F007B
:011E59002266
:10200A00121C7BE51E24FA600E146006240770F386
:0C201A00D322E4F51ED322E4F51ED322ED
:10202600121CAFE51E24FA600E146006240770F336
:0C203600D322E4F51ED322E4F51ED322D1
:101A35008E298F2A90E600E054187012E52A2401B9
:101A4500FFE43529C313F529EF13F52A801590E630
:101A550000E05418FFBF100BE52A25E0F52AE5291B
:101A650033F529E52A152AAE29700215294E600598
:061A7500121F1680EE2294
:101F16007400F58690FDA57C05A3E582458370F9DE
:011F26002298
:03004300021100A7
:0300530002110097
:10110000021E8500021FCD00021FAE00021F270035
:10111000021CE100021D1200022207000222080048
:101120000222090002220A0002220B0002220C0005
:1011300002220D0002220E0002220F0002221000E5
:1011400002221100022208000222120002221300D1
:1011500002221400022215000222160002221700A9
:1011600002221800022208000222080002220800BF
:101170000222190002221A0002221B0002221C0075
:1011800002221D0002221E0002221F000222200055
:101190000222210002222200022223000222240035
:1011A0000222250002222600022227000222280015
:0811B0000221E90002222900DE
:10005E00020262E86480F8E933E83360110460F06C
:10006E00ED33EC337009E8FCE9FDEAFEEBFF220408
:10007E0060DED3EB9FEA9EE99DE8C2E78CF0C2F703
:10008E0095F0400CE8CCF8E9CDF9EACEFAEBCFFBCF
:10009E0012022D85D0F05804700320D5B3E80470F9
:1000AE00075002B2D502026C92D5EC0460F7E4CC94
:1000BE00C0E0C398F8603B94186008400DD0E0FB98
:1000CE00020244E4FBFAC9FC8028E830E406E4C9E5
:1000DE00FBE4CAFCE830E305E4C9CACBFCE85407EC
:1000EE006010F8C3E913F9EA13FAEB13FBEC13FCF7
:1000FE00D8F130F52FC3E49CFCEF9BFFEE9AFEED9A
:10010E0099FDD0E0FBEF4E4D4C701222DB03020244
:10011E0069EC2CFCEF33FFEE33FEED33FDED30E7F3
:10012E00EB020244EF2BFFEE3AFEED39FDD0E0FB81
:10013E0050130BBB000302026CED13FDEE13FEEF2A
:08014E0013FFEC13FC02024454
:1001560002026CEC5D046005E85904700302026259
:1001660012022D580460F6EC4860F2EC7004FDFEB5
:10017600FF22C860DB2481C85009C398600250067C
:100186000202699850CAF582E9294B4A7005AB828A
:1001960002025875F0007C1A7880C3EF9BEE9AED48
:1001A60099400DC3EF9BFFEE9AFEED99FDE842F0F4
:1001B600DC23ACF0D0E0FFD0E0FED0E0FDAB822047
:1001C600E7101BEB60BAEC2CFCEF33FFEE33FEEDD1
:1001D60033FD020244E803F830E705C0F075F0008D
:1001E600EF2FFFEE33FEED33FD40B830E7C280AAB5
:1001F600EDD2E7CD33EC3392D524814006E4FFFE01
:10020600FDFC22FCE4CFCECDCC24E0501174FF805F
:10021600EDC3CC13CCCD13CDCE13CECF13CF0470FC
:07022600F030D5DE020346B3
:10022D00E9D2E7C933E833F892D5EDD2E7CD33EC17
:07023D0033FC5002B2D52290
:10024400EC30E7100FBF000C0EBE00080DBD00041B
:100254000BEB6014A2D5EB13FCED92E7FD2274FFC7
:10026400FCFDFEFF22E480F8A2D574FF13FC7D8020
:03027400E480EF34
:03000000021430B7
:0C143000787FE4F6D8FD75815D0214772A
:10027700BB010689828A83E0225002E722BBFE0285
:09028700E32289828A83E49322B8
:10029000BB010CE58229F582E5833AF583E0225023
:1002A00006E92582F8E622BBFE06E92582F8E2226D
:0D02B000E58229F582E5833AF583E4932287
:1002BD00BB010689828A83F0225002F722BBFE0120
:0202CD00F3221A
:1002CF00F8BB010DE58229F582E5833AF583E8F065
:1002DF00225006E92582C8F622BBFE05E92582C811
:0202EF00F222F9
:1002F100BC000BBE0029EF8DF084FFADF022E4CCF1
:10030100F875F008EF2FFFEE33FEEC33FCEE9DECB9
:10031100984005FCEE9DFE0FD5F0E9E4CEFD22EDFF
:10032100F8F5F0EE8420D21CFEADF075F008EF2F49
:10033100FFED33FD4007985006D5F0F222C398FD3A
:050341000FD5F0EA22D7
:0E034600C3E49FFFE49EFEE49DFDE49CFC22C8
:10035400D083D082F8E4937012740193700DA3A338
:1003640093F8740193F5828883E47374029368604C
:06037400EFA3A3A380DF4C
:10037A00D083D082F8E4937012740193700DA3A312
:10038A0093F8740193F5828883E473740293B5F049
:0D039A00067403936860E9A3A3A3A380D8B1
:101822008B388A39893AE4F540F541E53F153FAEF8
:101832003E7002153E4E6033AB3BAA3CA93D1202FC
:1018420077FFAB38AA39A93A0541E541AC407002AD
:10185200054014F5828C83EF1202CFEF60CD740144
:10186200253DF53DE4353CF53C80C0AB38AA39A9AD
:021872003A2218
:10210F00E4FFFE120277600C0FEF70010E09E97009
:05211F00F20A80EF222E
:1003A700EF4E6012EF60010EEDBB010B89828A836D
:1003B700F0A3DFFCDEFA2289F05007F709DFFCA97A
:0C03C700F022BBFEFCF309DFFCA9F022D1
:10143C000213A2E493A3F8E493A34003F68001F211
:10144C0008DFF48029E493A3F85407240CC8C333B1
:10145C00C4540F4420C8834004F456800146F6DF80
:10146C00E4800B0102040810204080900E5FE47EA3
:10147C00019360BCA3FF543F30E509541FFEE49375
:10148C00A360010ECF54C025E060A840B8E493A33C
:10149C00FAE493A3F8E493A3C8C582C8CAC583CA67
:1014AC00F0A3C8C582C8CAC583CADFE9DEE780BE1F
:010F310000BF
:00000001FF
