:1010B800120100020000004005163C8001000102F8
:1010C80000010A0600020000004001000902200099
:1010D800010100A0FA0904000002FF000000070552
:1010E8000202000200070586020002000902200031
:1010F800010100A0FA0904000002FF000000070532
:10110800010240000007058102400000120341006F
:1011180042004300440045004600470048002603BB
:1011280041004300430045005300200049002F00C0
:101138004F002000500072006F00640075006300CB
:101148007400730021035500530042002D00440031
:1011580049004F003400380044004F00320034008A
:071168000000000000000080
:101DB0005553422D44494F3438444F323400555323
:101DC000422D44494F3234444F3132005553422D55
:0F1DD000444F3234005553422D4F544845520072
:04002E0043B1402278
:0400460053B1BF22D1
:04004E0063B1402238
:01002A0022B3
:0721770053B1C043B12A225D
:10154800EF5407FE7401A806088002C333D8FCFED6
:10155800EF131313541FFFC394065022ED600DE4DC
:101568002FF582E43480F583E04EF022E42FF582F3
:10157800E43480F583E0FFEEF4FEEF5EF022BF0670
:101588000EED6005EE42808023EEF45280801DBF90
:10159800070EED6005EE42908012EEF45290800C3A
:0F15A800ED6005EE42A08004EEF452A012217710
:0115B7002211
:101A5800EF131313541FFDC39406500DE42DF582A4
:101A6800E43480F583E0FE8010BD0604AE80800972
:101A7800BD0704AE908002AEA0EF5407FF7401A822
:101A880007088002C333D8FC5206EE60047F018049
:031A9800027F00CA
:011A9B002228
:10184A00908000E01202B5908001E090000112023F
:10185A00C7908002E09000021202C7908003E090D5
:10186A0000031202C7908004E09000041202C7909D
:10187A008005E09000051202C7900006E58012027A
:10188A00C7900007E5901202C7900008E5A002027F
:01189A00C786
:101C7D008F4D8D4EE54DC39406500FAF4DE42FF5AE
:101C8D0082E43480F583E54EF022E54DB4060585FA
:101C9D004E80800DE54DB40705854E908003854E31
:051CAD00A012217722C6
:0618EB008B2D8A2E892FCF
:1018F100900006120288F580900007120288F59088
:10190100900008120288F5A0E4FFAB2DAA2EA92FA2
:101911008F82758300120288FE74672FF582E4348A
:1019210028F583EEF0E42FF582E43480F583EEF0C0
:071931000FBF06D60221776B
:101E9100E4FFEFC3940650047EFF80027E00746766
:101EA1002FF582E43428F583EEF00FBF09E4902882
:041EB1006674FFF064
:011EB500220A
:101E6600E4F580F590F5A075B2FF75B3FF75B4FF84
:101E760075B0FF75B5BF902866E0F5B07B017A288E
:0B1E860079671218EB75B67F02217718
:10145700EF131313541FFEED131313541FFC5307FD
:101467000753050774002EF582E43428F583E0FB63
:101477007A0074017E00A807088005C333CE33CEF7
:10148700D8F9FFEE5AFEEF5B4E6003D38001C3929B
:1014970005300402B20530051A74002CF582E434D5
:1014A70028F583E0FF7401A805088002C333D8FC40
:1014B7004FF02274002CF582E43428F583E0FFAE68
:0F14C700057401A806088002C333D8FCF45FF057
:0114D60022F3
:09214C007B017A28790002184A8F
:092155007B017A2879000218EBE5
:09215E007B017A2879700218EB6C
:1020E400E4FF74712FF582E43428F58374FFF00F54
:0320F400BF09EF32
:0120F70022C6
:1019CB007AE779407F40AB077D017F037E001218D9
:1019DB00A390E740E0FF9010C2F024C3600F1460A7
:1019EB0014240270187BFF7A1D79B080167BFF7A66
:1019FB001D79BE800E7BFF7A1D79CC80067BFF7A2A
:061A0B001D79D512174FF2
:011A110022B2
:0100320022AB
:030040000219CBD7
:01004A002293
:01005200228B
:010FFF0022CF
:10198300D206120AF4403F90E6B9E024EE70359097
:10199300E6BEE090E68BF090E6A0E020E1F990E669
:1019A300BAE05401C43333335480FF90E749E0F481
:1019B300543F4F902866F0F5B07B017AE7794012E7
:0819C30018EB8002D322C322BD
:10202A005641756720313920323032304031333AE7
:0B203A0034333A32390000000000008F
:1020BA000215204102080000010F01010C01010A6A
:0420CA00010112FFFF
:1020450090280CE0FF700690280BE0600890280BA4
:09205500E0FD021FBB12218D22E7
:101EFE007E007F717D007B017A28790912039F9005
:101F0E002809740AF0E4A3F0121E91121E66021F35
:011F1E005F63
:10000E007D0212189B902809E0B40A04A3E0600355
:0C001E00021EFE7D7112189B121E66224D
:101F5F00902809740AF0E4A3F07A287B097D717F39
:0F1F6F00017E1F121CB27D717F007E1F02218A2E
:1016230012204590E6BEE0F52E753002E52E605798
:10163300C394405005852E2F8003752F40E490E618
:101643008AF090E68BE52FF090E6A0E020E1F9E444
:10165300F52DE52DC3952F50257440252DF582E4F6
:1016630034E7F583E0FFAE300530EE7C007B0124E8
:1016730009F9EC3428FAEF1202B5052D80D4C3E53D
:0A1683002E952FF52E80A5022045BC
:10116F0090E6B8E030E745E4F52CF52BE52BC3947A
:10117F000A50247E007B017466252BF9EE3428FA81
:10118F0012026FFF7440252CF582E434E7F583EFEC
:10119F00F0052B052C80D5E490E68AF090E6BEE0B2
:1011AF0090E68BF090E6A0E04480F02290E6BEE05F
:1011BF0090E68BF090E6A0E020E1F990E6BEE064C7
:1011CF000A6003C20622E4F52BF52CE52BC3940A23
:1011DF0050247440252CF582E434E7F583E0FFE5D5
:1011EF002B7C007B012466F9EC3428FAEF1202B550
:1011FF00052B052C80D590E6BAE0B4CE08A3E0B459
:05120F00AC03121F5F9B
:0112140022B7
:0F213D00D3E518950EE517950D400312211C22CE
:01219C002220
:101EDB0090280EE0FE90280DE07C002400F50EEC1F
:101EEB003EF50D450E7007C28CC2A9C20722D28CDB
:031EFB00D2A92247
:01219D00221F
:101A9C0090E6BEE090E68BF090E6A0E020E1F9E461
:101AAC00FF74422FF582E434E7F583E0FEEF7C000F
:101ABC007B012470F9EC3428FAEE1202B50FBF0A40
:101ACC00E090E740E090280DF090E741E090280E80
:041ADC00F0021EDB1B
:10211C0012215EE49028E8F0A3F0F517F518D20729
:01212C002290
:101F1F00C207E49028E8F0A3F0F517F518C28CC2B9
:101F2F00A9538EF75389F143890112219D021EDBBC
:100C950090E6B8E020E703020D4AE4F52C90280D14
:100CA500E0FFAE2C052C74402EF582E434E7F58385
:100CB500EFF090280EE0FFAE2C052C74402EF58247
:100CC500E434E7F583EFF0E4F52BE52BC3940A5004
:100CD500247E007B017470252BF9EE3428FA12026C
:100CE5006FFF7440252CF582E434E7F583EFF005BA
:100CF5002B052C80D5AE2C052C74402EF582E434C2
:100D0500E7F583E518F0E517FFAE2C052C74402EAA
:100D1500F582E434E7F583EFF0A207E433FFAE2C68
:100D2500052C74402EF582E434E7F583EFF0C20715
:100D3500E490E68AF090E6BEE090E68BF090E6A0BF
:100D4500E04480F02290E6BEE090E68BF090E6A0CD
:100D5500E020E1F9C20790E6BEE0640C6003C2063C
:100D650022E4F52CAF2C052C74402FF582E434E7F2
:100D7500F583E090280DF0AF2C052C74402FF582FB
:100D8500E434E7F583E090280EF0E4F52BE52BC37A
:100D9500940A50247440252CF582E434E7F583E069
:100DA500FFE52B7C007B012470F9EC3428FAEF1267
:100DB50002B5052B052C80D5121EDB90E6BAE0B4F2
:0A0DC500CE08A3E0B4AC03121F5FD8
:010DCF002201
:101B5E00E50945086019E50915097002150814C351
:101B6E0094FFE50864809480501E12004680193060
:101B7E0006167508057509FF12002EC206E4902898
:0D1B8E00E8F0A3F0F517F518300702D206B5
:011B9B002227
:04217E00750F0122B6
:10168D0012204590E6BEE0F52EE4F530E52E6057CC
:10169D00C394405005852E2F8003752F40E490E6AE
:1016AD008AF090E68BE52FF090E6A0E020E1F9E4DA
:1016BD00F52DE52DC3952F50257440252DF582E48C
:1016CD0034E7F583E0FFAE300530EE7C007B01247E
:1016DD0024F9EC3428FAEF1202B5052D80D4C3E5B8
:0716ED002E952FF52E80A5BC
:0116F40022D3
:1017A600150FE50F704B902824E0F50F12214CE43D
:1017B600F54A902865E0FFE54AC39F5031E54A2582
:1017C600E02425F582E43428F583E0F54BE54A2547
:1017D600E02426F582E43428F583E0F54C547FFDB9
:1017E600E54C339204AF4B121457054A80C41221BC
:0117F600559D
:0117F70022CF
:101F3F0090E6BEE090E68BF090E6A0E020E1F9900D
:101F4F00E740E090280FF090E741E0902810F02252
:1013CC00150CE50C600302145690280FE0F50C7B0D
:1013DC00017A2879EA12184AE4FFFE74EA2EF582A3
:1013EC00E43428F583E0FD747A2EF582E43428F594
:1013FC0083E06DF97D01E4FCECC394085046E95D93
:10140C00602974832FF582E43428F583E014F0749A
:10141C00832FF582E43428F583E07020747A2EF55E
:10142C0082E43428F583E06DF08000902810E0FB16
:10143C0074832FF582E43428F583EBF00CED25E072
:0A144C00FD0F80B40EEE64097091EC
:011456002273
:10205E0090E6BEE090E68BF090E6A0E020E1F990ED
:08206E00E740E0902811F02288
:100FC600E4F513FF74CB2FF582E43428F583E0FEB5
:100FD60074DF2FF582E43428F583EEF074CB2FF519
:100FE60082E43428F583E0FE74D62FF582E43428B3
:080FF600F583EEF00FBF09CCFA
:010FFE0022D0
:1015B800150AE50A7064902811E0F50A7B017A287B
:1015C80079CB12184AE4FF74DF2FF582E43428F54A
:1015D80083C083C082E0FE74CB2FF582E43428F503
:1015E80083E0FDEE5DD082D083F074D62FF582E4DF
:1015F8003428F583C083C082E0FE74CB2FF582E4E3
:101608003428F583E0FDEE4DD082D083F00FBF097A
:0A161800B6E513C394FF500205135A
:0116220022A5
:042182007512FF22B1
:1014D700E4F51F0512F51F902823E0FFE51FC39FC2
:1014E7005054E51F25E02414F582E43428F583E001
:1014F700C39512501EE51F25E02413F582E4342816
:10150700F583E0FE547FFFEE30E7047D0080207D09
:1015170001801CE51F25E02413F582E43428F583B8
:10152700E0FE547FFFEE30E7047D0180027D00126C
:101537001548051F80A1902812E0B51203E4F512A3
:011547002281
:101D1B0090E6BEE090E68BF090E6A0E020E1F9E4DF
:101D2B00FF74402FF582E434E7F583E0FEEF7C008F
:101D3B007B012412F9EC3428FAEE1202B50FBF1214
:011D4B00E0B7
:011D4C002274
:041215008E2D8F2E5D
:10121900E4F52FE52E6402452D700C90E741F0E5C9
:101229002E152E7002152DE52E6401452D70169090
:10123900E7407471F090E6BEE090E68BF0E52E157C
:101249002E7002152DE52E452D605D90E6A0E0205B
:10125900E1F9C3E52E9440E52D94005004AD2E80AC
:10126900027D40E4FFEFC39D5025AE2F052FEE759B
:1012790083007B012409F9E5833428FA12026FFE01
:1012890074402FF582E434E7F583EEF00F80D6E45D
:1012990090E68AF090E68BEDF0FFC3E52E9FF52EE0
:0812A900E52D9400F52D809D58
:0112B100221A
:1003CB0090E6B8E030E76390E6BFE0FE90E6BEE073
:1003DB00FDEDFF4E7002804D90E6BDE0FD90E6BC5A
:1003EB00E04D700302121590E6BDE0600302072D8D
:1003FB0090E6BCE014600302072D7530FF753120C9
:10040B0075322A75330075341E7B017AE7794112F8
:10041B0017F87B017AE779401220CFEF0490E74081
:10042B00F090E6BEE090E68BF02290E6BFE0FF9006
:10043B00E6BEE04F707790E6BDE0704D90E6BCE015
:10044B0024EF6023249F603024FD603324F3603459
:10045B002472703590E6BAE064CE702DA3E064ACE4
:10046B007027121F5F802290E6BAE0B4CE1BA3E088
:10047B00B4AC16121EFE8011E4902823F0800A758E
:10048B0012FF8005E4902865F090E6BDE064806083
:10049B000302072D90E6BCE06401600302072D9078
:1004AB00E6BAE090280BF090E6BB02055390E6BF4E
:1004BB00E0600302072D90E6BDE0FE90E6BCE07C19
:1004CB00002400FFEC3EFEEF8EF0120372052000BD
:1004DB0020052000210520002205200023052E00E9
:1004EB002F055B0041056900510577005305970007
:1004FB006105A5006305C5007105D3007305F30005
:10050B007406490081065700830677008406CE8067
:10051B00010000072D90E6BEE0646F600302072D1B
:10052B0002162390E6BEE06402600302072DE09002
:10053B00E68BF090E6A0E020E1F912204590E74031
:10054B00E090280BF090E741E090280CF002072A8E
:10055B0090E6BEE0640C600302072D021A9C90E645
:10056B00BEE06402600302072D021F3F90E6BEE06F
:10057B006401600302072DE090E68BF090E6A0E0AB
:10058B0020E1F990E740E090280FF02290E6BEE0E2
:10059B006401600302072D02205E90E6BEE0640159
:1005AB00600302072DE090E68BF090E6A0E020E1DF
:1005BB00F990E740E0902811F02290E6BEE064123B
:1005CB00600302072D021D1B90E6BEE06401600371
:1005DB0002072DE090E68BF090E6A0E020E1F99089
:1005EB00E740E0902812F02290E6BEE06402600340
:1005FB0002072D902823E0C39408400302072D9097
:10060B00E6BEE090E68BF090E6A0E020E1F990E703
:10061B0040E0FF902823E0FE25E02411F582E4342E
:10062B0028F583EFF090E741E0FFEE25E02412F58B
:10063B0082E43428F583EFF09028230206CA90E673
:10064B00BEE06442600302072D02168D90E6BEE009
:10065B006401600302072DE090E68BF090E6A0E0CA
:10066B0020E1F990E740E0902824F02290E6BEE0EC
:10067B006402600302072D902865E0C394204003B9
:10068B0002072D90E6BEE090E68BF090E6A0E0200E
:10069B00E1F990E740E0FF902865E0FE25E0242398
:1006AB00F582E43428F583EFF090E741E0FFEE2587
:1006BB00E02424F582E43428F583EFF0902865E0FC
:0306CB0004F02216
:1006CE0090E6BEE090E68BF090E6A0E020E1F99097
:1006DE00E6BEE0B4042290E740E0F8A3E0F9A3E020
:1006EE00FAA3E0FB7F007E1B7D377C4B120151127B
:1006FE0001EE8E2B8F2C801390E6BBE0FE90E6BAB7
:10070E00E07C002400F52CEC3EF52BC3E4952CFD8B
:0F071E00E4952BFCED90280BF0ECA3F012204596
:01072D0022A9
:10200F0090E6047480F00000007402F00000007489
:0B201F0006F0000000E4F000000022CA
:01219E00221E
:101AE000E4F5267AE779407F40AB077D087FF87EF2
:101AF0001D1218A3E4F52674402526F582E434E788
:101B0000F583E0FDE52675F002A42416F97411357D
:0E1B1000F08982F583EDF00526E526B408D9AC
:011B1E0022A4
:101B1F0090E678E05410FFC4540F4450F51013E4CE
:101B2F0033F514438E2012218D12003212216F12C1
:101B3F001AE0120040D20012000E121F1F12217E57
:0F1B4F00120FC612218212204512004602004AD0
:101F9D00120052121B5E12213DE5B190E68020E742
:0E1FAD0006E04408F08004E054F7F0020FFF55
:06174F008B268A27892881
:10175500E4F5291220CF8F2AE52A25E024029011ED
:101765004CF0E4F529AF2AEF3395E0FEC3E5299F58
:10177500EE6480F87480985027AB26AA27A928859F
:101785002982758300120288FDE52975F002A424DB
:101795004EF9741135F08982F583EDF0052980C580
:0117A5002221
:061938008E398F3AAC0568
:10193E00E4FDE5146012E539FF7E000DEE2516F587
:10194E0082E43515F583EFF0AE050DE5162EF58222
:10195E00E43515F583E53AF0AF050DE5162FF58262
:10196E00E43515F583ECF0AB16AA15AF10121FF384
:05197E00AF10021C4740
:03218A00021938FF
:0A1CB2008E338F348D358A368B3760
:101CBC00E4F538E538C3953550200534E534AE33BA
:101CCC007002053314FFE5372538F582E43536F517
:0A1CDC0083E0FD12218A053880D94B
:011CE60022DB
:08189B007A287B097F017E1F02
:0A18A3008E338F348D358A368B3773
:1018AD00E4FDF538E5146012E533FF7E000DEE25FD
:1018BD0016F582E43515F583EFF0AE050DE5162E20
:1018CD00F582E43515F583E534F0AB16AA15AF10A6
:0E18DD00121FF3AB37AA36AD35AF10021FD77E
:1009530090E6BAE0752B00F52CA3E0FEEE422B9057
:10096300E6BEE0752D00F52EA3E0FEEE422D90E6E7
:10097300B8E064C06003020A60E52E452D700302EF
:100983000AF390E6A0E020E1F9C3E52E9440E52DBB
:1009930094005008852D2F852E308006752F007505
:1009A300304090E6B9E064A3705890E6BCE0B4012F
:1009B3001BA3E0701790E6BBE030E71090E74074AC
:1009C30003F0A37401F0A37403F0806CE4F531F534
:1009D30032C3E5329530E531952F505CE52C253255
:1009E300F582E52B3531F583E0FF74402532F5823E
:1009F30074E73531F583EFF00532E53270D3053115
:100A030080CFE4F531F532C3E5329530E531952FEA
:100A1300501974402532F58274E73531F58374CD6E
:100A2300F00532E53270E0053180DCAD307AE77BEA
:100A330040AF2CAE2B1218A3E490E68AF090E68B1D
:100A4300E530F0252CF52CE52F352BF52BC3E52EC2
:100A53009530F52EE52D952FF52D02097C90E6B8FE
:100A6300E064406003020AF3E52E452D7003020A99
:100A7300F3E490E68AF090E68BF090E6A0E020E1C4
:100A8300F990E68BE0752F00F53090E6B9E0B4A35A
:100A930036E4F531F532C3E5329530E531952F5023
:100AA3003374402532F58274E73531F583E0FFE591
:100AB3002C2532F582E52B3531F583EFF00532E550
:100AC3003270D3053180CFAD307AE77B40AF2CAEA7
:100AD3002B121CB2E530252CF52CE52F352BF52BED
:100AE300C3E52E9530F52EE52D952FF52D020A6BD6
:010AF30022E0
:02219000C32268
:02219200D32256
:02219400D32254
:0800030090E6BAE0F50BD322F0
:1020F80090E740E50BF0E490E68AF090E68B04F078
:02210800D322E0
:0821670090E6BAE0F511D32265
:10210A0090E740E511F0E490E68AF090E68B04F05F
:02211A00D322CE
:02219600D32252
:02219800D32250
:02219A00D3224E
:100ED800E4FF90E6B8E020E703020FC50F0F744067
:100EE8002401F582E434E7F583740AF00F74402492
:100EF80002F582E434E7F583E4F00F74402403F547
:100F080082E434E7F583E4F00F74402404F582E4C6
:100F180034E7F5837401F00F74402405F582E43456
:100F2800E7F5837409F00F74402406F582E434E78A
:100F3800F583E4F00F74402407F582E434E7F58381
:100F4800E4F00F74402408F582E434E7F58374FF75
:100F5800F00F74402409F582E434E7F58374FFF058
:100F68000F7440240AF582E434E7F5837408F00F1F
:100F78007440240BF582E434E7F5837420F00F7491
:100F880040240CF582E434E7F583742FF00F7440A5
:100F9800240DF582E434E7F583742FF00F744024B0
:100FA8000EF582E434E7F5837401F090E740EFF042
:0D0FB800E490E68AF090E6BEE090E68BF053
:010FC5002209
:100AF40090E6B9E012034C0B3B100B3B110B7F1437
:100B04000C33150B29280B232E0B1D3C0B353F0BE7
:100B14002FA20B2FA300000C911203CB020C9312F3
:100B24000C95020C9312116F020C93120953020CD0
:100B340093120ED8020C9390E6B8E030E70C7B01D8
:100B44007AE7794012184A020C7B90E6BEE07010F6
:100B540090E6BCE0FF90E6BAE0FD121548020C9363
:100B640090E6BEE090E68BF090E6A0E020E1F97B11
:100B7400017AE779401218EB020C93C2AF90E76454
:100B8400E513F0E4F5137B017AE7795B12184AE484
:100B9400F52774CB2527F582E43428F583E0FF7428
:100BA400402527F582E434E7F583EFF00527E527B0
:100BB400B409DF90E6BCE06027E4F52774DF25275D
:100BC400F582E43428F583E0F4FF74492527F5829F
:100BD400E434E7F583EFF00527E527B409DE802444
:100BE400E4F52774DF2527F582E43428F583E0FF54
:100BF40074492527F582E434E7F583EFF00527E50A
:100C040027B409DFE4F52774D62527F582E43428D0
:100C1400F583E0FF74522527F582E434E7F583EF8A
:100C2400F00527E527B409DF120FC6D2AF8048E4E8
:100C3400F527747A2527F582E43428F583E0FF74D8
:100C4400402527F582E434E7F583EFF00527E5270F
:100C5400B409DFE4F52774832527F582E43428F505
:100C640083E0FF74492527F582E434E7F583EFF048
:100C74000527E527B448DFE490E68AF090E6BEE075
:100C840090E68BF090E6A0E04480F08002C322D38B
:010C9400223D
:101F7E00C0E0C083C08290E6B5E04401F0D20153C8
:0F1F8E0091EF90E65D7401F0D082D083D0E03205
:10208E00C0E0C083C0825391EF90E65D7404F0D03F
:06209E0082D083D0E03285
:1020A400C0E0C083C0825391EF90E65D7402F0D02B
:0620B40082D083D0E0326F
:101BD900C0E0C083C08290E680E030E70E853C40DB
:101BE900853D41854442854543800C854440854572
:101BF90041853C42853D435391EF90E65D7410F079
:071C0900D082D083D0E0324D
:10207600C0E0C083C082D2035391EF90E65D74083E
:08208600F0D082D083D0E032DB
:101C1000C0E0C083C08290E680E030E70E853C40A3
:101C2000853D41854442854543800C85444085453A
:101C300041853C42853D435391EF90E65D7420F031
:071C4000D082D083D0E03216
:01219F00320D
:0121A000320C
:0121A100320B
:0121A200320A
:0121A3003209
:0121A4003208
:0121A5003207
:0121A6003206
:0121A7003205
:0121A8003204
:0121A9003203
:0121AA003202
:0121AB003201
:0121AC003200
:0121AD0032FF
:0121AE0032FE
:0121AF0032FD
:0121B00032FC
:0121B10032FB
:0121B20032FA
:0121B30032F9
:0121B40032F8
:0121B50032F7
:0121B60032F6
:0121B70032F5
:0121B80032F4
:0121B90032F3
:0121BA0032F2
:0121BB0032F1
:0121BC0032F0
:0121BD0032EF
:0121BE0032EE
:0121BF0032ED
:0121C00032EC
:0121C10032EB
:0121C20032EA
:0A00360000010202030304040505A3
:03000B000216F5E5
:1016F500C0E0C0F0C083C082C0D075D000C000C0BB
:1017050004C005C006C007053BE53BB40627051820
:10171500E51870020517AE17FF7C007D0A1202E975
:10172500ED4C700E9028E9E004F070069028E8E092
:1017350004F0753B00D007D006D005D004D000D00A
:0A174500D0D082D083D0F0D0E03283
:1012B200E4F525F524F523F522C203C200C202C2D9
:1012C20001121B1F753E10753FB87546107547CA4F
:1012D200753C10753DD47544107545F4754811750B
:1012E2004914D2E843D82090E668E04409F090E639
:1012F2005CE0443DF0D2AFD208121DDF90E680E000
:1013020054F7F0C20330010512072EC2013003293F
:101312001221905024C203121EB620001690E682BB
:10132200E030E704E020E1EF90E682E030E604E01E
:0E13320020E0E4121E0E122192121F9D80C7B1
:10072E0090E6B9E070030207DF14700302085C2440
:10073E00FE70030208DF24FB70030207D914700356
:10074E000207D31460731460762405600302093F18
:10075E00122194400302094B90E6BBE024FE602276
:10076E0014603324FD601114602224067048E53EA7
:10077E0090E6B3F0E53F8037E54690E6B3F0E54707
:10078E00802DE54090E6B3F0E5418023E54290E60A
:10079E00B3F0E543801990E6BAE0FF121E3AAA06BE
:1007AE00A9077B01EA494B600DEE90E6B3F0EF909E
:1007BE00E6B4F002094B02094412210A02094B1257
:1007CE00216702094B12000302094B1220F802099D
:1007DE004B122196400302094B90E6B8E0247F604D
:1007EE001514601924027063A200E43325E0FFA201
:1007FE0002E4334F8041E490E740F0803F90E6BC46
:10080E00E0547EFF7E00E0D394807C0040047D01A6
:10081E0080027D00EC4EFEED4F2436F58274003ED4
:10082E00F583E493FF3395E0FEEF24A1FFEE34E66B
:10083E008F82F583E0540190E740F0E4A3F090E658
:10084E008AF090E68B7402F002094B0209441221E1
:10085E0098400302094B90E6B8E024FE601624028D
:10086E00600302094B90E6BAE0B40105C20002092A
:10087E004B02094490E6BAE0705590E6BCE0547E17
:10088E00FF7E00E0D394807C0040047D0180027DD9
:10089E0000EC4EFEED4F2436F58274003EF583E4F7
:1008AE0093FF3395E0FEEF24A1FFEE34E68F82F541
:1008BE0083E054FEF090E6BCE05480131313541FF3
:1008CE00FFE0540F2F90E683F0E04420F0806E801E
:1008DE006512219A506790E6B8E024FE601A240251
:1008EE00705B90E6BAE0B40104D200805090E6BA94
:1008FE00E0B402028047803E90E6BCE0547EFF7E6C
:10090E0000E0D394807C0040047D0180027D00ECE9
:10091E004EFEED4F2436F58274003EF583E493FFD0
:10092E003395E0FEEF24A1FFEE34E68F82F583804F
:10093E0008121983500790E6A0E04401F090E6A05B
:04094E00E04480F011
:010952002282
:0300330002218621
:0421860053D8EF3209
:101FBB00E4F5C8E58E54074438F58E8FCB8FCDAF43
:0C1FCB00058FCA8FCCD2BDD2ADD2CA2285
:101D7F00AB07AA06A905A8047F007E1B7D377C4B05
:101D8F00120151AB07AA06A905A804E4FFFE7D8046
:101D9F007C471200591201EEAD07AC06AF04021FCB
:011DAF00BB78
:10212D00AD07AC06C3E49DFBE49CFFEBFD021FBBBA
:03218D00C2CA22A1
:03002B00021B9C19
:101B9C00C0E0C0F0C083C082C0D075D000C000C00F
:101BAC0001C002C003C004C005C006C00712002A51
:101BBC00C2CFD007D006D005D004D003D002D001BC
:0D1BCC00D000D0D0D082D083D0F0D0E03255
:03004300021000A8
:0300530002100098
:10100000021F7E000220A40002208E000220760033
:10101000021BD900021C100002219F000221A00027
:101020000221A1000221A2000221A3000221A400AA
:101030000221A5000221A6000221A7000221A8008A
:101040000221A9000221A0000221AA000221AB0076
:101050000221AC000221AD000221AE000221AF004E
:101060000221B0000221A0000221A0000221A00064
:101070000221B1000221B2000221B3000221B4001A
:101080000221B5000221B6000221B7000221B800FA
:101090000221B9000221BA000221BB000221BC00DA
:1010A0000221BD000221BE000221BF000221C000BA
:0810B0000221C1000221C2006F
:101E0E0090E682E030E004E020E60B90E682E030DF
:101E1E00E119E030E71590E680E04401F07F147E92
:0C1E2E0000121A1290E680E054FEF02230
:101EB60090E682E044C0F090E681F043870100009E
:041EC60000000022F6
:101DDF0030080990E680E0440AF0800790E680E042
:101DEF004408F07FDC7E05121A1290E65D74FFF056
:0F1DFF0090E65FF05391EF90E680E054F7F0220A
:08216F00E4F51ED2E9D2AF2213
:101C470090E678E020E6F9C2E990E678E04480F093
:101C5700EF25E090E679F090E678E030E0F990E65D
:101C670078E04440F090E678E020E6F990E678E006
:061C770030E1D6D2E922A3
:101D4D00A90790E678E020E6F9E51E702390E67885
:101D5D00E04480F0E925E090E679F08D19AF03A914
:101D6D0007751A018A1B891CE4F51D751E01D32206
:021D7D00C3227F
:101CE700A90790E678E020E6F9E51E702590E678EA
:101CF700E04480F0E925E0440190E679F08D19AFE2
:101D070003A907751A018A1B891CE4F51D751E03B3
:041D1700D322C322EE
:03004B00020DD0D3
:100DD000C0E0C083C082C085C084C086758600C064
:100DE000D075D000C000C001C002C003C006C0075B
:100DF00090E678E030E206751E06020EBA90E678BC
:100E0000E020E10CE51E64026006751E07020EBAC2
:100E1000E51E24FE605F14603624FE7003020EABF4
:100E200024FC7003020EB724086003020EBAAB1A4A
:100E3000AA1BA91CAF1D051D8F8275830012028895
:100E400090E679F0E51D65197070751E05806B9050
:100E5000E679E0AB1AAA1BA91CAE1D8E8275830031
:100E60001202C7751E02E5196401704E90E678E023
:100E70004420F08045E51924FEB51D0790E678E092
:100E80004420F0E51914B51D0A90E678E04440F0DE
:100E9000751E0090E679E0AB1AAA1BA91CAE1D8E48
:100EA000827583001202C7051D800F90E678E0442A
:100EB00040F0751E008003751E005391DFD007D0EF
:100EC00006D003D002D001D000D0D0D086D084D0BC
:080ED00085D082D083D0E0320E
:021E3A00A907F6
:101E3C00AE48AF498F828E83A3E064037017AD0167
:101E4C0019ED7001228F828E83E07C002FFDEC3E19
:091E5C00FEAF0580DF7E007F006F
:011E6500225A
:101FD700121CE7E51E24FA600E146006240770F34E
:0C1FE700D322E4F51ED322E4F51ED32221
:101FF300121D4DE51E24FA600E146006240770F3CB
:0C200300D322E4F51ED322E4F51ED32204
:101A12008E268F2790E600E054187012E5272401E5
:101A2200FFE43526C313F526EF13F527801590E65C
:101A320000E05418FFBF100BE52725E0F527E52647
:101A420033F526E5271527AE26700215264E6005CA
:061A5200121ECA80EE2204
:101ECA007400F58690FDA57C05A3E582458370F92B
:011EDA0022E5
:1000560002025AE86480F8E933E83360110460F07C
:10006600ED33EC337009E8FCE9FDEAFEEBFF220410
:1000760060DED3EB9FEA9EE99DE8C2E78CF0C2F70B
:1000860095F0400CE8CCF8E9CDF9EACEFAEBCFFBD7
:1000960012022585D0F05804700320D5B3E8047009
:1000A600075002B2D502026492D5EC0460F7E4CCA4
:1000B600C0E0C398F8603B94186008400DD0E0FBA0
:1000C60002023CE4FBFAC9FC8028E830E406E4C9F5
:1000D600FBE4CAFCE830E305E4C9CACBFCE85407F4
:1000E6006010F8C3E913F9EA13FAEB13FBEC13FCFF
:1000F600D8F130F52FC3E49CFCEF9BFFEE9AFEEDA2
:1001060099FDD0E0FBEF4E4D4C701222DB0302024C
:1001160061EC2CFCEF33FFEE33FEED33FDED30E703
:10012600EB02023CEF2BFFEE3AFEED39FDD0E0FB91
:1001360050130BBB0003020264ED13FDEE13FEEF3A
:0801460013FFEC13FC02023C64
:10014E00020264EC5D046005E85904700302025A71
:10015E00120225580460F6EC4860F2EC7004FDFEC5
:10016E00FF22C860DB2481C85009C3986002500684
:10017E000202619850CAF582E9294B4A7005AB829A
:10018E0002025075F0007C1A7880C3EF9BEE9AED58
:10019E0099400DC3EF9BFFEE9AFEED99FDE842F0FC
:1001AE00DC23ACF0D0E0FFD0E0FED0E0FDAB82204F
:1001BE00E7101BEB60BAEC2CFCEF33FFEE33FEEDD9
:1001CE0033FD02023CE803F830E705C0F075F0009D
:1001DE00EF2FFFEE33FEED33FD40B830E7C280AABD
:1001EE00EDD2E7CD33EC3392D524814006E4FFFE09
:1001FE00FDFC22FCE4CFCECDCC24E0501174FF8068
:10020E00EDC3CC13CCCD13CDCE13CECF13CF047004
:07021E00F030D5DE02033EC3
:10022500E9D2E7C933E833F892D5EDD2E7CD33EC1F
:0702350033FC5002B2D52298
:10023C00EC30E7100FBF000C0EBE00080DBD000423
:10024C000BEB6014A2D5EB13FCED92E7FD2274FFCF
:10025C00FCFDFEFF22E480F8A2D574FF13FC7D8028
:03026C00E480EF3C
:03000000021340A8
:0C134000787FE4F6D8FD75814E0213871B
:10026F00BB010689828A83E0225002E722BBFE028D
:09027F00E32289828A83E49322C0
:10028800BB010CE58229F582E5833AF583E022502B
:1002980006E92582F8E622BBFE06E92582F8E22275
:0D02A800E58229F582E5833AF583E493228F
:1002B500BB010689828A83F0225002F722BBFE0128
:0202C500F32222
:1002C700F8BB010DE58229F582E5833AF583E8F06D
:1002D700225006E92582C8F622BBFE05E92582C819
:0202E700F22201
:1002E900BC000BBE0029EF8DF084FFADF022E4CCF9
:1002F900F875F008EF2FFFEE33FEEC33FCEE9DECC2
:10030900984005FCEE9DFE0FD5F0E9E4CEFD22ED07
:10031900F8F5F0EE8420D21CFEADF075F008EF2F51
:10032900FFED33FD4007985006D5F0F222C398FD42
:050339000FD5F0EA22DF
:0E033E00C3E49FFFE49EFEE49DFDE49CFC22D0
:10034C00D083D082F8E4937012740193700DA3A340
:10035C0093F8740193F5828883E473740293686054
:06036C00EFA3A3A380DF54
:10037200D083D082F8E4937012740193700DA3A31A
:1003820093F8740193F5828883E473740293B5F051
:0D039200067403936860E9A3A3A3A380D8B9
:1017F8008B2D8A2E892FE4F535F536E5341534AE70
:1018080033700215334E6033AB30AA31A93212025D
:101818006FFFAB2DAA2EA92F0536E536AC35700221
:10182800053514F5828C83EF1202C7EF60CD740181
:101838002532F532E43531F53180C0AB2DAA2EA919
:021848002F224D
:1020CF00E4FFFE12026F600C0FEF70010E09E97052
:0520DF00F20A80EF226F
:10039F00EF4E6012EF60010EEDBB010B89828A8375
:1003AF00F0A3DFFCDEFA2289F05007F709DFFCA982
:0C03BF00F022BBFEFCF309DFFCA9F022D9
:10134C000212B2E493A3F8E493A34003F68001F2F3
:10135C0008DFF48029E493A3F85407240CC8C333A2
:10136C00C4540F4420C8834004F456800146F6DF71
:10137C00E4800B01020408102040809020BAE47E27
:10138C00019360BCA3FF543F30E509541FFEE49366
:10139C00A360010ECF54C025E060A840B8E493A32D
:1013AC00FAE493A3F8E493A3C8C582C8CAC583CA58
:1013BC00F0A3C8C582C8CAC583CADFE9DEE780BE10
:0120CE000011
:00000001FF
