:1007050000120100020000004005163380010001BF
:100715000200010A06000200000040010009022053
:1007250000010100A0320904000002FF00000007DB
:1007350005020200020007058602000200090220E8
:1007450000010100A0320904000002FF00000007BB
:10075500050102400000070581024000000403096D
:10076500042603410043004300450053002000498F
:10077500002F004F002000500072006F00640075CC
:10078500006300740073001C035000490043004FD0
:10079500002D00440049004F003100360052003062
:0507A500003800000017
:03004300020800B0
:03005300020800A0
:10080000020C4E00020CEF00020CD900020CC100D9
:10081000020A9200020AC9000200320002004200ED
:1008200002005200020D4C00020D4D00020D4E0060
:10083000020D4F00020D5000020D5100020D52003A
:10084000020D530002004200020D5400020D55003B
:10085000020D5600020D5700020D5800020D5900FE
:10086000020D5A0002004200020042000200420053
:10087000020D5B00020D5C00020D5D00020D5E00CA
:10088000020D5F00020D6000020D6100020D6200AA
:10089000020D6300020D6400020D6500020D66008A
:1008A000020D6700020D6800020D6900020D6A006A
:0808B000020D6B00020D6C004B
:0A00360000010202030304040505A3
:1008B800E4F50BF50AF509F508C203C200C202C245
:1008C80001120C6D752307752406752B07752C18F6
:1008D800752107752222752907752A42752D077516
:1008E8002E62D2E843D82090E668E04409F090E60A
:1008F8005CE0443DF0D2AFD20412000390E680E001
:1009080054F7F0538EF8C20330010512030FC201E9
:100918003003291200405024C203120C292000166B
:1009280090E682E030E704E020E1EF90E682E030F4
:10093800E604E020E0E4120BD11207FE120A5A8006
:01094800C7E7
:10030F0090E6B9E070030203C014700302043D24A9
:10031F00FE70030204C024FB70030203BA147003BF
:10032F000203B41460731460762405600302051F82
:10033F00120D44400302052B90E6BBE024FE602221
:10034F0014603324FD601114602224067048E523E5
:10035F0090E6B3F0E5248037E52B90E6B3F0E52C7B
:10036F00802DE52590E6B3F0E5268023E52790E67E
:10037F00B3F0E528801990E6BAE0FF120BFDAA064C
:10038F00A9077B01EA494B600DEE90E6B3F0EF90C1
:10039F00E6B4F002052B020524120D1702052B12ED
:1003AF000D2902052B1207F202052B120D0502056E
:1003BF002B120D46400302052B90E6B8E0247F6018
:1003CF001514601924027063A200E43325E0FFA224
:1003DF0002E4334F8041E490E740F0803F90E6BC69
:1003EF00E0547EFF7E00E0D394807C0040047D01CA
:1003FF0080027D00EC4EFEED4F2436F58274003EF8
:10040F00F583E493FF3395E0FEEF24A1FFEE34E68E
:10041F008F82F583E0540190E740F0E4A3F090E67B
:10042F008AF090E68B7402F002052B020524120D60
:10043F0048400302052B90E6B8E024FE6016240224
:10044F00600302052B90E6BAE0B40105C200020575
:10045F002B02052490E6BAE0705590E6BCE0547E7E
:10046F00FF7E00E0D394807C0040047D0180027DFC
:10047F0000EC4EFEED4F2436F58274003EF583E41A
:10048F0093FF3395E0FEEF24A1FFEE34E68F82F564
:10049F0083E054FEF090E6BCE05480131313541F16
:1004AF00FFE0540F2F90E683F0E04420F0806D8042
:1004BF0064120D4A506690E6B8E024FE60192402DB
:1004CF00705A90E6BAE0B40104D200804F90E6BAB9
:1004DF00E064026047803E90E6BCE0547EFF7E0001
:1004EF00E0D394807C0040047D0180027D00EC4EBF
:1004FF00FEED4F2436F58274003EF583E493FF330F
:10050F0095E0FEEF24A1FFEE34E68F82F58380089D
:10051F00120056500790E6A0E04401F090E6A0E0EC
:03052F004480F015
:0105320022A6
:0300330002004E7A
:04004E0053D8EF3262
:04004600022F000085
:070D390053B1FD43B102229A
:100C6D00D200120D317580FFE4F5B275B0FFF5B508
:0C0C7D0075B4FF75A0FFF5B175B6FF223D
:0407FA0043B14022A5
:040D400053B1BF22CA
:100A5A00E5336033E530452F7006752F2F7530FF6B
:100A6A00E53015307002152FE530452F7004F53347
:100A7A00800FAE2FAF307C0B7DFF12068AEF20E08D
:070A8A0003020D401207FA00
:010A91002242
:02004000D322C9
:0207FE00D32204
:020D4400D322B8
:0807F20090E6BAE0F534D322D1
:100D050090E740E534F0E490E68AF090E68B04F055
:020D1500D322E7
:080D290090E6BAE0F531D32297
:100D170090E740E531F0E490E68AF090E68B04F046
:020D2700D322D5
:020D4600D322B6
:020D4800D322B4
:020D4A00D322B2
:1000560075330190E678E05410FFC4540F4450F510
:100066003213E433F53590E6B9E01206DF0092105C
:1000760000A31100B3120114300114310189A20149
:1000860089A30183A90159AC0000030B90E6BEE0E9
:1000960090E68BF090E6A0E020E1F9805D90E740E5
:1000A600E580F0A3E5B0F0A3E5A0020148E490E600
:1000B6008AF090E6BEE090E68BF090E6A0E020E1C4
:1000C600F990E743E030E0047FFF80027F008FB2C3
:1000D60090E743E030E1047FFF80027F008FB59018
:1000E600E6BAE030E0047F1080027F0090E743E04C
:1000F6005403FE25E025E04FF5B190E740E0F5809A
:10010600A3E0F5B0A3E0F5A0120D3902030D90E7C8
:1001160040E580F0A3E5B0F0A3E5A0F0E5B130E45A
:10012600047F0180027F0090E6BAEFF0E5B1131379
:10013600540390E743F0A37469F0A304F0A304F01A
:10014600A304F0E490E68AF090E6BEE090E68BF039
:1001560002030D90E6B5E054FEF090E6BFE090E6AF
:100166008AF090E6BEE090E68BF090E6BBE090E683
:10017600B3F090E6BAE090E6B4F002030D753501EF
:1001860043320190E6BAE0750C00F50DA3E0FEEEF1
:10019600420C90E6BEE0750E00F50FA3E0FEEE42BF
:1001A6000E90E6B8E064C06003020275E50F450EE6
:1001B600700302030D90E6A0E020E1F9C3E50F9479
:1001C60040E50E94005008850E10850F11800675C7
:1001D600100075114090E6B9E0B4A335E4F512F5C8
:1001E60013C3E5139511E5129510505EE50D251321
:1001F600F582E50C3512F583E0FF74402513F58290
:10020600E434E7F583EFF00513E51370D4051280A7
:10021600D0E4F512F513C3E5139511E512951050C8
:100226001874402513F582E434E7F58374CDF005A0
:1002360013E51370E1051280DDAD117AE779407F91
:1002460040AB07AF0DAE0C1207AAE490E68AF09019
:10025600E68BE511F0250DF50DE510350CF50CC313
:10026600E50F9511F50FE50E9510F50E0201B2900A
:10027600E6B8E06440600302030DE50F450E700327
:1002860002030DE490E68AF090E68BF090E6A0E09B
:1002960020E1F990E68BE0751000F51190E6B9E0E3
:1002A600B4A335E4F512F513C3E5139511E51295DC
:1002B60010503674402513F582E434E7F583E0FFE9
:1002C600E50D2513F582E50C3512F583EFF00513E0
:1002D600E51370D4051280D0AD117AE779407F40DE
:1002E600AB07AF0DAE0C120B36E511250DF50DE57E
:1002F60010350CF50CC3E50F9511F50FE50E9510AD
:08030600F50E020280D322C3B0
:01030E0022CC
:100C4E00C0E0C083C08290E6B5E04401F0D201530B
:0F0C5E0091EF90E65D7401F0D082D083D0E03248
:100CD900C0E0C083C0825391EF90E65D7404F0D008
:060CE90082D083D0E0324E
:100CEF00C0E0C083C0825391EF90E65D7402F0D0F4
:060CFF0082D083D0E03238
:100A9200C0E0C083C08290E680E030E70E85212569
:100AA200852226852927852A28800C852925852ABD
:100AB200268521278522285391EF90E65D7410F058
:070AC200D082D083D0E032A6
:100CC100C0E0C083C082D2035391EF90E65D740807
:080CD100F0D082D083D0E032A4
:100AC900C0E0C083C08290E680E030E70E85212532
:100AD900852226852927852A28800C852925852A86
:100AE900268521278522285391EF90E65D7420F011
:070AF900D082D083D0E0326F
:01003200329B
:01004200328B
:01005200327B
:010D4C003274
:010D4D003273
:010D4E003272
:010D4F003271
:010D50003270
:010D5100326F
:010D5200326E
:010D5300326D
:010D5400326C
:010D5500326B
:010D5600326A
:010D57003269
:010D58003268
:010D59003267
:010D5A003266
:010D5B003265
:010D5C003264
:010D5D003263
:010D5E003262
:010D5F003261
:010D60003260
:010D6100325F
:010D6200325E
:010D6300325D
:010D6400325C
:010D6500325B
:010D6600325A
:010D67003259
:010D68003258
:010D69003257
:010D6A003256
:010D6B003255
:010D6C003254
:040A1B00AA06AC0576
:100A1F00E4FD7E000DEE2400F582E43400F583EA58
:100A2F00F00E0D74002EF582E43400F583EFF00D17
:100A3F0074002402F582E43400F583ECF07A007B35
:0B0A4F0000AF32120CA5AF32020B000A
:0A0B36008E148F158D168A178B1888
:100B4000E4F519E519C3951650200515E515AE1401
:100B50007002051414FFE5182519F582E43517F520
:0A0B600083E0FD120A1B051980D97D
:010B6A002268
:0A07AA008E148F158D168A178B1818
:1007B400E4FDF519E5356012E514FF7E000DEE2425
:1007C40000F582E43400F583EFF0AE050D74002EDD
:1007D400F582E43400F583E515F07A007B00AF324E
:0E07E400120CA5AB18AA17AD16AF32020C8985
:100BD10090E682E030E004E020E60B90E682E0302F
:100BE100E119E030E71590E680E04401F07F147EE2
:0C0BF100001209D590E680E054FEF022CE
:100C290090E682E044C0F090E681F043870100003D
:040C39000000002295
:1000030030040990E680E0440AF0800790E680E03F
:100013004408F07FDC7E051209D590E65D74FFF09D
:0F00230090E65FF05391EF90E680E054F7F02203
:080D3100E4F51FD2E9D2AF2264
:100B000090E678E020E6F9C2E990E678E04480F0EB
:100B1000EF25E090E679F090E678E030E0F990E6B5
:100B200078E04440F090E678E020E6F990E678E05E
:060B300030E1D6D2E922FB
:100B9F00A90790E678E020E6F9E51F702390E67844
:100BAF00E04480F0E925E090E679F08D1AAF03A9D3
:100BBF0007751B018A1C891DE4F51E751F01D322C1
:020BCF00C3223F
:100B6B00A90790E678E020E6F9E51F702590E67876
:100B7B00E04480F0E925E0440190E679F08D1AAF6E
:100B8B0003A907751B018A1C891DE4F51E751F033C
:040B9B00D322C3227C
:03004B0002053378
:10053300C0E0C083C082C085C084C086758600C009
:10054300D075D000C000C001C002C003C006C00700
:1005530090E678E030E206751F0602061D90E67805
:10056300E020E10CE51F64026006751F0702061D0B
:10057300E51F24FE605F14603624FE700302060E3E
:1005830024FC700302061A2408600302061DAB1B39
:10059300AA1CA91DAF1E051E8F8275830012063B80
:1005A30090E679F0E51E651A7070751F05806B90F3
:1005B300E679E0AB1BAA1CA91DAE1E8E82758300D3
:1005C300120668751F02E51A6401704E90E678E022
:1005D3004420F08045E51A24FEB51E0790E678E036
:1005E3004420F0E51A14B51E0A90E678E04440F082
:1005F300751F0090E679E0AB1BAA1CA91DAE1E8EE9
:1006030082758300120668051E800F90E678E04429
:1006130040F0751F008003751F005391DFD007D092
:1006230006D003D002D001D000D0D0D086D084D061
:0806330085D082D083D0E032B3
:020BFD00A90746
:100BFF00AE2DAF2E8F828E83A3E064037017AD01ED
:100C0F0019ED7001228F828E83E07C002FFDEC3E68
:090C1F00FEAF0580DF7E007F00BE
:010C280022A9
:100C8900120B6BE51F24FA600E146006240770F33B
:0C0C9900D322E4F51FD322E4F51FD32280
:100CA500120B9FE51F24FA600E146006240770F3EB
:0C0CB500D322E4F51FD322E4F51FD32264
:1009D5008E0C8F0D90E600E054187012E50D240181
:1009E500FFE4350CC313F50CEF13F50D801590E6F8
:1009F50000E05418FFBF100BE50D25E0F50DE50CE3
:100A050033F50CE50D150DAE0C7002150C4E600599
:060A1500120C3D80EE22F0
:100C3D007400F58690FDA57C05A3E582458370F9CA
:010C4D002284
:03000000020949A9
:0C094900787FE4F6D8FD75813502099036
:10063B00BB010CE58229F582E5833AF583E0225074
:10064B0006E92582F8E622BBFE06E92582F8E222BE
:0D065B00E58229F582E5833AF583E49322D8
:10066800F8BB010DE58229F582E5833AF583E8F0C8
:10067800225006E92582C8F622BBFE05E92582C874
:02068800F2225C
:10068A00BC000BBE0029EF8DF084FFADF022E4CC54
:10069A00F875F008EF2FFFEE33FEEC33FCEE9DEC1D
:1006AA00984005FCEE9DFE0FD5F0E9E4CEFD22ED63
:1006BA00F8F5F0EE8420D21CFEADF075F008EF2FAD
:1006CA00FFED33FD4007985006D5F0F222C398FD9E
:0506DA000FD5F0EA223B
:1006DF00D083D082F8E4937012740193700DA3A3AA
:1006EF0093F8740193F5828883E4737402936860BE
:0606FF00EFA3A3A380DFBE
:100955000208B8E493A3F8E493A34003F68001F2F8
:1009650008DFF48029E493A3F85407240CC8C333A3
:10097500C4540F4420C8834004F456800146F6DF72
:10098500E4800B0102040810204080900046E47EBC
:10099500019360BCA3FF543F30E509541FFEE49367
:1009A500A360010ECF54C025E060A840B8E493A32E
:1009B500FAE493A3F8E493A3C8C582C8CAC583CA59
:1009C500F0A3C8C582C8CAC583CADFE9DEE780BE11
:01004A0000B5
:00000001FF
