:1024B800120100020000004005165F8100010103BF
:0C24C80002010A060002000000400100B2
:1024D4000902200001010080F00904000002FF004D
:1024E4000000070502020002000705860200020040
:1024F4000902200001010080F00904000002FF002D
:1025040000000705020240000007058602400000A3
:10251400040309040C034100430043004500530035
:102524002203410000000000000000000000000041
:102534000000000000000000000000000000000097
:10254400000026035500530042002D0041004900BD
:102554002000200020002000200020002000000097
:0A256400000000000000000000006D
:101D11006080E000013F01010101010700030202AF
:101D210002020200F5F7F7F7F7F7F7F700000000F6
:101D31000000003F013F0101010101070205000010
:101D410000000000F6F7F7F7F7F7F7F700000000DB
:101D51000000003F011301210139010700010001C9
:101D6100000B0200FFFFFBFFFDFFFFF7003600F055
:101D71000012003F010138010101010702020D00BB
:101D810000000000F2F7F7F7F7F7F7F700002D0072
:101D91000000003F6024E087000000000000000018
:101DA1000000000000000000000000000000000032
:101DB10000000000000000000000000047E080E09B
:101DC1008000F7AA4E006080E0AB013F01010101F4
:101DD10001070003020202020200F5F7F7F7F7F725
:101DE100F7F7000000000000003F013F0101010181
:101DF10001070205000000000000F6F7F7F7F7F70A
:101E0100F7F7000000000000003F01130121013934
:101E1100010700010001000B0200FFFFFBFFFDFFB6
:101E2100FFF7003600F0002D003F010138010101EC
:101E3100010702020D0000000000F2F7F7F7F7F7C3
:101E4100F7F700002D000000003F6024E1320000A0
:101E51000000000000000000000000000000000081
:101E61000000000000000000000000000000000071
:0C1E7100000047E12BE08000F7AA4E00C3
:1034960090E60174AAF090E6F574FFF022F59B75AC
:1034A6009DE4E4F59EFF2290E67BE090E67CF00F3B
:0134B60022F3
:10256E0012349690E12BE090E6F3F090E12CE0909F
:10257E00E6C3F090E12DE090E6C1F090E12EE09000
:10258E00E6C2F090E130E090E6C0F090E131E090EC
:10259E00E6F4F075AF0774E0F59A74AB1234A3123B
:1025AE0034ADBF80FA000000E490E6C4F0000000F5
:1025BE0090E6C5F090E132E090E6C6F090E133E0AF
:1025CE0090E6C7F090E134E090E6C8F090E135E097
:1025DE0090E6C9F090E136E090E6CAF090E137E07F
:1025EE0090E6CBF090E138E090E6CCF090E139E067
:0425FE0090E6CDF0A6
:0126020022B5
:1026030012349690E080E090E6F3F090E081E09061
:10261300E6C3F090E082E090E6C1F090E083E090C2
:10262300E6C2F090E085E090E6C0F090E086E090AE
:10263300E6F4F075AF0774E0F59A74001234A31250
:1026430034ADBF80FA000000E490E6C4F00000005F
:1026530090E6C5F090E087E090E6C6F090E088E071
:1026630090E6C7F090E089E090E6C8F090E08AE059
:1026730090E6C9F090E08BE090E6CAF090E08CE041
:1026830090E6CBF090E08DE090E6CCF090E08EE029
:0426930090E6CDF010
:012697002220
:0A366400000102020303040405053F
:10315F00EC4EFEED4F2464F58274363EF583E49316
:10316F00FF3395E0FEEF24A1FFEE34E68F82F58367
:10317F002290E6BCE0547EFF7E00E0D394807C007A
:01318F00221D
:03000B00022B8342
:102B8300C0E0C0F0C083C082C085C084C0867586A3
:102B930000C0D075D000C000C004C005C006C00787
:102BA3000508E508B406270569E56970020568AEFE
:102BB30068FF7C007D0A12118EED4C700E90E1A32C
:102BC300E004F0700690E1A2E004F0750800D0077D
:102BD300D006D005D004D000D0D0D086D084D08504
:092BE300D082D083D0F0D0E032A2
:10269800E4F532F531F530F52FC218C215C217C26C
:1026A800161217B9750B24750CB87513247514CA4E
:1026B800750924750AD47511247512F475152575D4
:1026C8001614D2E843D82090E668E04409F090E672
:1026D8005CE0443DF0D2AFD20C12319090E680E03D
:1026E80054F7F0538EF8C218301605121EBFC216E2
:1026F80030182912369E5024C2181232B5201516E9
:1027080090E682E030E704E020E1EF90E682E030F6
:10271800E604E020E0E41231BF1236A71229C48093
:01272800C7E9
:101EBF0090E6B9E07003021F70147003021FC42470
:101ECF00FE700302201E24FB7003021F6A147003AE
:101EDF00021F64146073146076240560030220559A
:101EEF001223FE400302206190E6BBE024FE602235
:101EFF0014603324FD601114602224067048E50B32
:101F0F0090E6B3F0E50C8037E51390E6B3F0E514F7
:101F1F00802DE50D90E6B3F0E50E8023E50F90E6FA
:101F2F00B3F0E510801990E6BAE0FF1231EBAA0684
:101F3F00A9077B01EA494B600DEE90E6B3F0EF90F5
:101F4F00E6B4F002206102205A123682022061129A
:101F5F003678022061122D7402206112366E022033
:101F6F00611236CB400302206190E6B8E0247F6017
:101F7F00151460192402703AA215E43325E0FFA26C
:101F8F0017E4334F8018E490E740F0801612318049
:101F9F0040047D0180027D0012315FE0540190E723
:101FAF0040F0E4A3F090E68AF090E68B7402F00222
:101FBF00206102205A1236CD400302206190E6B80C
:101FCF00E024FE60162402600302206190E6BAE06E
:101FDF00B40105C21502206102205A90E6BAE070E2
:101FEF002C12318040047D0180027D0012315FE0B0
:101FFF0054FEF090E6BCE05480131313541FFFE01F
:10200F00540F2F90E683F0E04420F08045803C127F
:10201F0036CF503E90E6B8E024FE601A24027032AC
:10202F0090E6BAE0B40104D215802790E6BAE0B486
:10203F000202801E801512318040047D0180027DD6
:10204F000012315F8008120056500790E6A0E0445E
:09205F0001F090E6A0E04480F0DD
:012068002255
:0300330002004E7A
:04004E0053D8EF3262
:021E7D00C11989
:1032900090E19EEFF0F5CB8FCDAF0590E19FEFF081
:1032A000F5CA8FCCE4F5C8758E19D2BDD2AFD2ADB8
:0532B000D2CAF57B22EB
:0D00360090E19EE0FF90E19FE0FD0232901E
:08368C00A21A921BD21AA21B24
:013694002213
:08369500A21A921CC21AA21C29
:01369D00220A
:0336C500AF7B22B6
:0336C800A21A2221
:10363800AD07AC06C3E49DFBE49CFFEBFD023290B2
:05002E00C2CAC2AD22B0
:03002B000234B7E5
:0234B700C0E073
:1034B900301A0E301904057B8007D2191236B0C2B2
:0934C900193003031236B0C2CF22
:0334D200D0E03215
:0300430002240094
:0300530002240084
:102400000232DA00023320000232FE0002334200C0
:102410000230C500022FE700020052000236D10050
:102420000236D2000236D30002336400022AAE0024
:10243000023386000236D4000233A8000236D500EB
:10244000022A3E000236D1000236D6000236D700FC
:102450000233CA000236D8000233EC000236D9003B
:102460000236DA000236D1000236D1000236D1003F
:102470000236DB000236DC000236DD000236DE000A
:102480000236DF000236E0000236E1000236E200EA
:1024900002340E000236E300023430000236E4005B
:1024A000023452000236E500023474000236E600BF
:0824B0000236E7000236E800E5
:1031BF0090E682E030E004E020E60B90E682E0301B
:1031CF00E119E030E71590E680E04401F07F147ECE
:0C31DF0000122E5F90E680E054FEF0220B
:1032B50090E682E044C0F090E681F043870100008B
:0432C50000000022E3
:10319000300C0990E680E0440AF0800790E680E079
:1031A0004408F07FDC7E05122E5F90E65D74FFF030
:0F31B00090E65FF05391EF90E680E054F7F02245
:0231EB00A90732
:1031ED00AE15AF168F828E83A3E064037017AD0109
:1031FD0019ED7001228F828E83E07C002FFDEC3E55
:09320D00FEAF0580DF7E007F00AA
:013216002295
:102E5F008E378F3890E600E054187012E538240151
:102E6F00FFE43537C313F537EF13F538801590E6C8
:102E7F0000E05418FFBF100BE53825E0F538E537B3
:102E8F0033F537E5381538AE37700215374E600514
:062E9F001232C980EE2290
:1032C9007400F58690FDA57C05A3E582458370F918
:0132D90022D2
:102069002530326258002530345800362D3136413A
:1020790000362D31364500322D31364100322D31B1
:102089003600322D31364500362D31364600362D93
:1020990036344D4100362D36344D4500322D363417
:1020A9004D4100322D36344D00322D36344D450028
:1020B900362D33324100362D33324500322D33323D
:1020C9004100322D333200322D33324500362D3660
:1020D900344100362D36344500322D363441003234
:1020E9002D363400322D36344500362D393641002F
:1020F900362D39364500322D39364100322D3936E3
:1021090000322D39364500362D3132384100362D11
:102119003132384500322D3132384100322D3132D9
:102129003800322D31323845002D4F544845520080
:1021390025332E31662C2025332E3166207C20252F
:10214900332E31662C2025332E3166207C20253311
:102159002E31662C2025332E3166207C2025332E06
:0E21690031662C2025332E31660049424E008F
:101E7F0041E19C0041E1C4FF41E19DFE41E1DD00F4
:101E8F0041E1C70042E19A0200C106C101026400AC
:101E9F0000C107C109C103C10BC10541E19EFB414F
:0F1EAF00E19F50C1040260000002620000C10008
:101ACC00142440F58274E73CF583EFF022E0FF0527
:101ADC0040E540AC3F2224A4F58274E13EF583E05E
:101AEC00FCA3E0FDA3E0FEA3E0227BFFE4F53B7545
:101AFC003C0122E490E68AF090E6BEE090E68BF0A2
:101B0C0022F582E434E7F583E4F00F7440227BFF86
:101B1C00753B01753C0122AD3C7AE779407F40ABC7
:101B2C00072290E6BAE075F008A4FFA3E07C002F32
:101B3C00FFEC35F0FEE42FF58274503EF583E02285
:101B4C007586005391EF22E090E740F0E490E68A2E
:101B5C00F090E68B22F582E434E7F58322FF90E6E1
:101B6C00BAE075F008A42403F582E5F03450F5834F
:101B7C00EFF022E54175F002A42446F9742535F006
:101B8C008982F58322F090E6BCE0FF90E6BBE02270
:101B9C0090E65BF090E65AE04401F090E65974FF51
:101BAC00F090E658E04410F0222538F538E53B3546
:101BBC0037F537C3E53A953CF53AE539953BF539B8
:101BCC002290401C7401F0E4F0904011F02274401B
:101BDC00253EF58274E7353DF58322C20890E1D9A4
:101BEC00E0904011F022FE74402FF58274E73EF530
:101BFC00832290E671F090E672F075B4FF75B6FF33
:101C0C002274E1F59A745AF59B74E7F59D74C0F54E
:101C1C009EE422904017E090E740F0904018E0904E
:101C2C00E741F0227B017AE1795A22C3E53E953CEB
:101C3C00E53D953B22E490E68AF090E6BEE022F585
:101C4C0083E0F8A3E0F9A3E0FAA3E0FB228F4A8E2D
:101C5C00498D488C4722AF4AAE49AD48AC47227BF0
:101C6C00FF753B01E4F53C2290E6047480F022E51C
:101C7C003EAE3D780222E490E68BF090E6BBE0901D
:101C8C00500322E538253EF582E537353DF58322B4
:101C9C007BFFE4F53BF53C22F582E43440F58322EE
:101CAC003EF583E0FBED25E0FFEC3322142440F5F8
:101CBC008274E73CF583EF22F582E434E1F583226C
:101CCC0074412FF58274E73EF58322850E82850DD3
:101CDC0083A37402F022851082850F83A37407F00E
:101CEC0022E545AD46FCE4020E18FEE07C00240023
:101CFC00FFEC3E229050037474F074B4F0225391B4
:051D0C00EF90E65D22EE
:05004600A21D9204223E
:102E1500200404E4FEFF2290E6A2E020E1F9121C62
:102E2500301235D8EF2401F57AE43EF579121C0D00
:102E3500FFFEC3EF957AE5796480F8EE64809850DB
:102E45000F90E67BE090E67CF00FBF00010E80E27C
:092E5500E57A90E68FF0AE79FFFA
:012E5E002251
:102F2A008B1D8A1E891F200404E4FEFF22122F60D3
:102F3A008E708F71851D6D851E6E851F6F121C30F8
:102F4A00122D22122F60745A2FF58274E13EF583F6
:102F5A00E4F0122E1522AB1DAA1EA91F1235D82283
:10360100200404E4FEFF2290E15AEFF0E4A3F0125B
:033611002E152251
:1034F300200404E4FEFF227547FF754820754969DF
:0C3503008F4A121C301213A6122E152243
:1034D500200404E4FEFF227547FF75482075496FF7
:0E34E5008E4A8F4B121C301213A6122E152287
:102BEC0090E685E02405F574200404E4FEFF2278C9
:102BFC005A7CE17D0112132D90E6A2E030E10790A2
:062C0C00E685E0B574F25C
:102C1200121C301235D8EF2401F578E43EF5771214
:102C22001C0DF575F576C3E5769578E5776480F841
:102C3200E575648098501290E67BE090E67CF005A2
:102C420076E57670E1057580DDE57890E68FF0AE89
:022C520077FF0A
:012C5400225D
:102FAA0075440390E1DE7430F0E4A3F0A3740312D5
:102FBA002FD47F0F12352B90E1DE7438F0E4A3F0A2
:0A2FCA00A304122FD47F0F02352B51
:102FD400F07AE17BDEAD447F0E12352B7AE17BDEA5
:032FE400AD4422D7
:0628C8008F448D458B4694
:1028CE00200606121CED022936121CEDE54475F0A9
:1028DE0008A424A4F582E434E1121C4B120C94E5F6
:1028EE004475F008A424A8F582E434E1121C4B12BE
:1028FE000BA3121C59E4FBFAF9F8120D9A60094069
:10290E0007E4FFFEFDFC8003121C62121C597B00C3
:10291E007AFF797F7847120D9A500A7F007EFF7DED
:10292E007F7C478003121C62121C59121C62120E0D
:0A293E0051AD07AC06AF44022C5562
:0436B9004380022226
:0436BD005380FD2217
:0436C10063800222FE
:10361400121C740000007406F0000000E4F00000C6
:02362400002282
:10359600C20B90E61474E0F000000090E61A74097D
:0735A600F0000000023614E2
:10362600121C740000007402F0000000E4F00000B8
:02363600002270
:102EE80090E61274A0F000000090E6187411F0004B
:102EF800000012362690E6917480F0000000F00081
:102F08000000F0000000F000000090E6497482F034
:102F1800000000F0000000F0000000F000000002D7
:022F280036264B
:0623F800122EE8023596EA
:10302200E56145606017E56115617002156014C3C2
:1030320094FFE56064809480501D0236BDE56760B0
:10304200167560057561FF1236B9E4F56790E1A265
:07305200F0A3F0F568F56939
:013059002254
:0F364800D208121BCD75B3FF75B5FF121BFE2202
:0D365700121BCDD208F5B3F5B5121BFE22F3
:10000E0090401C7401F0E4F0121BE7E4F5B3F5B573
:0D001E0090E671F090E672F0F5B4F5B622B0
:10354700121BCD121BE775B3FF75B5FF90E67174BB
:0B355700FFF090E6727480121C052249
:07321700904010F012364850
:10321E00E4FEFD7801AF05EF08800103D8FDF5B19E
:10322E008DB08EA08E9090401BEEF00EEE70E40DE1
:03323E00ED70E050
:01324100226A
:102F6A00E4FEFD7801AF05EF08800103D8FDF5B155
:102F7A008EA090401C7401F0AF90ACB0E4F0EFB5B5
:102F8A000604EC6D600890E19D7401F080040EEE79
:0F2F9A0070D10DED70CD90E19DE0B4FE02E4F03A
:012FA9002205
:1035AD0074011232177405123217123657122F6A20
:0635BD00904010E4F02232
:062729008B3D8A3E893F52
:10272F00E4F5407541071235D88F42121B257D0104
:10273F007F047E00122DC590E740E044809024C3B3
:10274F00F090E740E0B40108121B7F744FF0054191
:10275F00121B7F7431F00541E54225410425E090BD
:10276F002546F0E4F540AF42EF3395E0FEC3E54078
:10277F009FEE6480F87480985030AB3DAA3EA93F1D
:10278F0085408275830012112DFDE54075F002A47E
:10279F002446F9742535F0FAE54175F002A429F9BC
:0A27AF00EA121B8AEDF0054080BC21
:0127B90022FD
:10284600E4F537C374079537FFE494008F82F58368
:1028560012112DFF74382537F8A6070537E537B46A
:1028660008E1E4F53774382537F8E6C4540FFFC39A
:10287600940A50047E3080027E37EF2EFFC007E5B3
:102886003775F004A42426F97425121B8AD0E0F0CB
:1028960074382537F8E6540FFFC3940A50047E3087
:1028A60080027E37EF2EFFC007E53775F004A424BB
:1028B60028F97425121B8AD0E0F00537E537B408ED
:0128C600A46D
:0128C70022EE
:1032420090401374AAF0E064AA70197455F0E06417
:10325200557011744FF0E0B44F0A7449F0E0B4496C
:07326200037F00227F01221F
:102B1900123242EF14601B04705A121B257D017F8B
:102B2900037E00122DC590E740E0541F90E1C4F0E8
:102B39008042121B257D027FF67E1D122DC590E76E
:102B490040E0FF780208800123D8FDF53790E7417E
:102B5900E090E1C4F0121B257D017F037E00122D58
:102B6900C590E740E0653760037F042290E740E0C5
:092B7900541FFF2290E1C4E0FFAB
:012B82002230
:1035ED0090401AEDF090E1DDE53BF090E1C7E53C50
:0435FD00F002272988
:10227F00121B257D047FCC7E1D122DC57F437E430F
:10228F007D417C4490E740E0F8A3E0F9A3E0FAA396
:10229F00E0FBC31211F17068D201121B257D207F64
:1022AF00D07E1D122DC5E4F544F545E545AE4478C5
:1022BF0002C333CE33CED8F92440121BF6E0FCA371
:1022CF00E0FDA3E0FEA3E0FFC004C005C006C00709
:1022DF00E545AE447802C333CE33CED8F924A4F506
:1022EF008274E13EF583D007D006D005D0041212D8
:1022FF00020545E545700205446408454470AC226B
:10230F00C201E4F544F545E545AE447803C333CE49
:10231F0033CED8F9FBAA0624A4F58274E13AF583EB
:10232F0012120E3F80000074A82BF58274E13AF56B
:10233F008312120E000000000545E54570020544AA
:06234F006404454470C166
:012355002265
:1035C300121B257D087FF87E1D122DC57B017AE72E
:0535D3007940022846CA
:1017B900904019E4F090E6017480F012000390E67D
:1017C90078E04401F0E05410FFC4540F445090E114
:1017D90059F0E013E43390E1C6F090E6007410F09C
:1017E9001235C3904019E4F090E61074A0F090E629
:1017F90011F000000090E612F0000000E490E613FA
:10180900F000000090E61474E0F0000000E490E6B7
:1018190015F0121C740000007402F0000000740638
:10182900F0000000E4F000000090E618F00000006D
:101839007411F000000090E61A7409F0000000121B
:101849002B1990E1C4EFF0E0FF44409024C2F0EF7F
:10185900541FB420004003021A6790186AF8282818
:10186900730218CA0218D50218E10218ED0218F914
:1018790002191702192302192F02193B02194702EB
:10188900195502196302197102197F02198D02197A
:101899009B0219A90219B70219C50219D30219E144
:1018A9000219EF0219FC021A09021A16021A230276
:1018B9001A30021A3D021A4A021A57021A67021905
:1018C900097A207974121C6BFD021A627A20797ADE
:1018D900121C9C7D01021A627A207980121C6B7D90
:1018E90002021A627A207986121C9C7D03021A620E
:1018F9007BFF7A20798BE4F53BF53C7D04021A6283
:101909007BFF7A207991121C6D7D05021A627A207B
:101919007997121B1A7D08021A627A20799E121A87
:10192900F67D09021A627A2079A5121B1A7D0A022C
:101939001A627A2079AC121AF67D0B021A627BFFC1
:101949007A2079B2121AF87D0C021A627BFF7A208A
:1019590079B9121B1C7D10021A627BFF7A2079BFAC
:10196900121AF87D11021A627BFF7A2079C5121BBF
:101979001C7D12021A627BFF7A2079CB121AF87D3C
:1019890013021A627BFF7A2079D0121AF87D1402A9
:101999001A627BFF7A2079D6121B1C7D10021A620B
:1019A9007BFF7A2079DC121AF87D11021A627BFF1B
:1019B9007A2079E2121B1C7D12021A627BFF7A20BF
:1019C90079E8121AF87D13021A627BFF7A2079ED01
:1019D900121AF87D14021A627BFF7A2079F3121B1E
:1019E9001C7D10021A627BFF7A2079F9121AF87DA0
:1019F9001180667BFF7A2079FF121B1C7D128059AA
:101A09007BFF7A217905121AF87D13804C7BFF7AC6
:101A190021790A121AF87D14803F7BFF7A21791007
:101A2900121B1C7D1080327BFF7A217917121AF85C
:101A39007D1180257BFF7A21791E121B1C7D128066
:101A4900187BFF7A217925121AF87D13800B7BFF09
:101A59007A21792B121AF87D141235ED80097BFF52
:101A69007A217932122729E4FF74C82FF582E434E8
:101A7900E1F583E4F02F121CA4E4F00FBF15EA90FE
:101A8900401DE4F01235ADC20C12356290E6C37404
:101A990080F090E6C214F000000090E6E27402F0D3
:101AA90043B202D21575670112000E904019E4F095
:101AB90090E65EE04438F0E044C4F07401121B9CE7
:031AC90002227F77
:1029C400E58070047F0180027F00EF90E68030E0B4
:1029D40006E04408F08004E054F7F0123022300B93
:1029E4002190401FE030E01AC20BE4F090E6F57449
:1029F400FFF0C209121C74E4F00000001236141235
:102A040036C1300B34E5BB30E72F00000090E6AF51
:102A1400E090E6B0121CF6FED3EF9400EE94004072
:102A240016D390E19BE09F90E19AE09E400990E6E6
:092A3400487406F0000000C20B1A
:012A3D002276
:10294800E4FF90E6B8E030E7720F0F7440240112FC
:102958001B61740AF00F74402402121B0D24031229
:102968001B617415F00F74402404121B617401F08C
:102978000F74402405121B617402F00F7440240682
:10298800121B0D2407121B617404F00F74402408F5
:10299800121B0D2409121B0D240A121B0D240B12E5
:1029A8001B0D240C121B0D240D121B0D240E121BC3
:0B29B80061E4F090E740EFF0121AFF1E
:0129C30022F1
:10235600E4FF9040117404F0A374F0F0A37401F04C
:10236600E490E6CEF000000090E6CFF0000000908A
:10237600E6D0F000000090E6D17420F00000007571
:10238600BB06000000904019E4F01FEF600AE5BBB1
:1023960020E70500000080F2E4FDFCEDAE047802C3
:1023A600C333CE33CED8F92402F58274F8121CACAE
:1023B600121BF2EBF0EDAE047802C333CE33CED867
:1023C600F92403F58274F8121CACFE121CCCEBF057
:1023D6000DBD00010CED64104C70C0123614121BBA
:1023E600E990E1DAE0904012F090E1DBE0904013F2
:0123F600F0F6
:0123F70022C3
:102CBC00E4FF9040117404F0904013E4F090401E37
:102CCC007481F0E490E6CEF000000090E6CFF000C6
:102CDC00000090E6D0F000000090E6BEE0C3139038
:102CEC00E6D1F075BB06000000904019E4F01FEF30
:102CFC00600AE5BB20E70500000080F2E4FF90E6E7
:102D0C00BEE0FEEFC39E500B74402F121B61E4F02B
:062D1C000F80EB023614EB
:10005600E4F541F54275670190E6B9E012124F04E6
:10006600A61004A61104D01203BC20041221041900
:1000760022041F230B9A2806D33506CD3801D93919
:100086000B933F073A9108C5A208C5A308B8A9086B
:1000960097AC00C0B209EEB301C5B60B66B70751FF
:1000A600BA0770BB0209BC04F7BE06EFBF01C7C39F
:1000B60004F7D200F7D400000B989040117414F0A6
:1000C600121D0090E6BCE0905002F090E6BDE09074
:1000D6005002F090E6BAE0905001F090E6BBE09056
:1000E6005001F0D20290E6587410F090E65A0207DA
:1000F6008A90E6B8E020E71A90E6A0E020E1F990C1
:10010600E740E0FF90E6BCE0FEE42E121CA4EF02FE
:1001160004C8E4F53FF540A20233FF121ADB700271
:10012600053F121CB8F090E65C121AD97002053F22
:10013600121ACC90E65A121AD97002053F121ACC3E
:1001460090E65B121AD97002053F121ACC90E65857
:10015600121AD97002053F121ACC90E659121AD912
:100166007002053F121ACC90E65E121AD97002058B
:100176003F121ACC90E65F121AD97002053F121A86
:10018600CCE4F53DF53E121C7BC333CE33CED8F915
:10019600121AE2FF120E51AD07121C7BC333CE3387
:1001A600CED8F92540FFE53F3E121BF2EDF0053EA5
:1001B600E53E7002053D6408453D70CA020B61804C
:1001C6000C121B92FD90E6BAE0FB1228C8122356C9
:1001D60002074290E6B8E020E71890E6BCE0600A25
:1001E600146003020B9AD20C8002C20C12357C02F8
:1001F6000B9A90E6BCE0FFE42F121CA4E090E740C7
:100206000204C890E6B8E030E7030202C2E4F566ED
:1002160004121B9C90E6BEE0D39400400A121AFF1B
:1002260090E6A0E020E1F990E6BEE0C39404402009
:1002360090E740E030E20A90E743E013920C123573
:100246007C90E740E030E10890E742E090401FF004
:1002560090E6BEE0600790E740E030E05AE5BB304C
:10026600E755E5AC20E050121B924FFF90E6BDE04B
:100276004FFF90E6BAE04F7003D38001C392099016
:10028600E6BBE090E6CEF000000090E6BAE090E62D
:10029600CFF000000090E6BDE090E6D0F000000050
:1002A600A209E433FF90E6BCE04F90E6D1F00000EF
:1002B6000075BB06000000D20B020B9AE4F53FF571
:1002C6004090E6B0121AD97002053F121ACC00000F
:1002D6000090E6AF121AD97002053F121ACC000040
:1002E6000090E699121AD97002053F121ACC000046
:1002F6000090E698121AD97002053F121ACC000037
:1003060000E5665401FF90E6F4E054FE4F121ADA57
:100316007002053F121ACC00000090E614121AD99A
:100326007002053F121ACC00000090E61A121AD984
:100336007002053F121ACC00000090E635121AD959
:100346007002053F121ACC00000090E634121AD94A
:100356007002053F121ACC0000000540E540AE3F92
:100366007002053F142440121BF6E5ACF0000000B5
:1003760090E6A9121AD97002053F121ACC000000A5
:1003860090E654121AD97002053F121ACC000000EA
:1003960090E655121AD97002053F121ACC000000D9
:1003A600300A047F0180027F00121ADB7002053FCB
:1003B600121CB80204C890E6BEE0B4020E90E6BB7A
:1003C600E0C4333354C0121B69802690E6BEE06455
:1003D60003701E90E6BBE0FF7401A807088002C305
:1003E60033D8FC25E044C0121B69121B2E90E7424D
:1003F600F0121B2E90E740F090E6BAE075F008A4E4
:10040600FFA3E0121B3B90E741020749121C82F052
:10041600020B9AE490E68B802090E6B8E030E70382
:10042600020B9A90E6BFE070047F0180027F009085
:10043600E6BEE04F602F121C82121B91C4131354A8
:10044600037C005403FDE42DF582EC121B7890E644
:10045600BD121B95C413135403FDE42DF582EC1253
:100466001B78020B9A121AFF90E6A0E020E1F990A1
:10047600E6BEE064046003020B9A121D0090E74298
:10048600E0905002F090E743E0905002F090E74091
:10049600E0905001F090E741E0905001F0020B9A95
:1004A60090E6B8E020E70C121AFF90E6A0E020E103
:1004B600F9802B904015E090E740F0904016E090D0
:1004C600E741F0E490E68A020749121AFF90E6A097
:1004D600E020E1F990E742E05403904014F090E701
:1004E60040E0904015F090E741E0904016F0020B96
:1004F6009A90E6B8E030E703020623C205121AFF17
:1005060090E6A0E020E1F990E740E090E1C8F090A5
:100516004000F090E741E090E1C9F0904001F09092
:10052600E742E090E1CAF0904002F090E743E090A5
:10053600E1CBF0904003F090E744E090E1CCF090FE
:100546004004F090E745E090E1CDF0904005F09052
:10055600E746E090E1CEF0904006F090E747E09065
:10056600E1CFF0904007F090E748E090E1D0F090BE
:100576004008F090E749E090E1D1F0904009F09012
:10058600E74AE090E1D2F090400AF090E74BE09025
:10059600E1D3F090400BF090E74CE090E1D4F0907E
:1005A600400CF090E74DE090E1D5F090400DF090D2
:1005B600E74EE090E1D6F090400EF090E74FE090E5
:1005C600E1D7F090400FF090E750E090E1D8F0903E
:1005D6004010F090E751E090E1D9F0904011F09092
:1005E600E752E090E1DAF0904012F090E753E090A5
:1005F600E1DBF0904013F090E1C4E0541FFFD39488
:10060600045003020B9AEF641F7003020B9A90E7E3
:1006160054E090E1DCF090401DF0020B9A90E1C8A6
:10062600E090E740F090E1C9E090E741F090E1CA40
:10063600E090E742F090E1CBE090E743F090E1CC28
:10064600E090E744F090E1CDE090E745F090E1CE10
:10065600E090E746F090E1CFE090E747F090E1D0F8
:10066600E090E748F090E1D1E090E749F090E1D2E0
:10067600E090E74AF090E1D3E090E74BF090E1D4C8
:10068600E090E74CF090E1D5E090E74DF090E1D6B0
:10069600E090E74EF090E1D7E090E74FF090E1D898
:1006A600E090E750F090E1D9E090E751F090E1DA80
:1006B600E090E752F090E1DBE090E753F090E1DC68
:1006C600E090E75402074990E6F574FFF090E6BC27
:1006D600E0601090E6AFE090E698F090E6B0E0902B
:1006E600E699F0123614020B9A90E6BEE070079077
:1006F6004019F0020B7090E6BEE06404702590404D
:1007060019F0121C1F904019E4F0904017E090E792
:1007160042F0904018E090E743F090E68B7404F0C6
:10072600020B9A121C1F90E68B7402F0904019E49B
:10073600F0020B9A90E19DE090E740F090E6BFE072
:1007460090E68AF090E6BEE0020B7090E1DDE0B440
:10075600010890E74074BBF0800890E1C4E090E7A0
:1007660040F0121B5804F0020B9A90E6B8E030E70E
:100776001990E6BEE0B4011290E7407401F012351C
:10078600AD90E68B7401F0020B9A200507D205C2E4
:100796000C12356290E1DDE064016003020882120A
:1007A600354790E74074BBF090E6BBE0C313FFE526
:1007B600B154802FF5B1E090E6C4F090E6BAE0902F
:1007C600E6C5F090E6BDE090E6BC121CF690E1A00E
:1007D600F0A3EFF090E1A0E0FEA3E0FF4E7003026D
:1007E600088AE5BB30E7EDE5AB20E1E890E19AE069
:1007F600FCA3E0FDD3EF9DEE9C402290E19AE0FA47
:10080600A3E0FBEA90E6D0F0000000EB90E6D1F022
:1008160000000090E156ECF0A3EDF0802790E1A0F7
:10082600E0FCA3E0FDEC90E6D0F0000000ED90E6E1
:10083600D1F000000090E1A0E0FFA3E090E156CFE8
:10084600F0A3EFF0E4F5BB000000E5BB20E70300F2
:1008560080F8000000000090E156E0FEA3E0FFC330
:1008660090E1A1E09FF090E1A0E09EF0E5B1547F19
:1008760004FFE5B154802FF5B10207DA90E1C4E038
:1008860090E740F012000E90E6BFE0121C42020B09
:100896007090E6B5E054FEF090E6BFE0121B0090C3
:1008A600E6BBE090E6B3F090E6BAE090E6B4F0027C
:1008B6000B9A90E1C67401F090E159E04401F09082
:1008C600E6BAE0753700F538A3E0FEEE423790E66B
:1008D600BEE0753900F53AA3E0FEEE423990E6B87F
:1008E600E064C0600302098FE53A45397003020BE4
:1008F6009A90E6A0E020E1F9C3E53A9440E5399400
:1009060000500885393B853A3C8006753B00753CAE
:100916004090E6B9E064A3704090E6BCE0B4011BE9
:10092600A3E0701790E6BBE030E71090E740740351
:10093600F0A37401F0A37407F08042E4F53DF53EA0
:10094600121C375038121C8FE0FF121BDAEFF0052D
:100956003EE53E70EB053D80E7E4F53DF53E121CB5
:10096600375010121BDA74CDF0053EE53E70EF05E8
:100976003D80EB121B23AF38AE37122DC5121B5824
:10098600E53CF0121BB50208EE90E6B8E064406064
:1009960003020B9AE53A45397003020B9A121B586B
:1009A600F090E6A0E020E1F990E68BE0753B00F5DB
:1009B6003C90E6B9E0B4A31EE4F53DF53E121C37C3
:1009C600501E121BDAE0FF121C8FEFF0053EE53ECB
:1009D60070EB053D80E7121B23AF38AE371230901F
:1009E600E53C121BB502099A90E6B8E030E703022F
:0209F6000A8C69
:1009F80090E6BDE030E60312227F90E6BDE030E7E6
:100A080004C2068004A201920690E6BEE07013E0DC
:100A180090E68B121B91FD90E6BAE0FB1228C80203
:100A28000B9A121AFF90E6A0E020E1F9E4F53DF5F3
:100A38003E90E740E0F543E5437003020B9AC3E5B7
:100A48003E9404E53D94004003020B9AE54330E0F0
:100A580023AF3EC007E53E25E0FFE53D33FE744287
:100A68002FF58274E73EF583E0FD121CCCE0FBD045
:100A7800071228C8053EE53E7002053DE543C3134D
:040A8800F54380B3FF
:100A8C0090E6BCE060767547FF7548217549399052
:100A9C00E1A4121AEBF54D8E4C8D4B8C4AA3121A15
:100AAC00EBF5518E508D4F8C4EA3121AEBF5558EE3
:100ABC00548D538C52A3121AEBF5598E588D578CBA
:100ACC0056A3121AEBF55D8E5C8D5B8C5AA3121A31
:100ADC00EBF5618E608D5F8C5EA3121AEBF5658E63
:100AEC00648D638C62A3121AEBF5698E688D678C2A
:100AFC00667B017AE779401213A68059A201E43390
:100B0C0090E740F0A206E433A3F0E4A3F0A3F0F5E1
:100B1C003DF53E121C7BC333CE33CED8F9121AE20C
:100B2C00FFC004C005C006C007121C7BC333CE3304
:100B3C00CED8F92444F58274E73EF583D007D0066D
:100B4C00D005D004121202053EE53E7002053D644C
:100B5C0008453D70BE121C41800A90E6B8E030E7B3
:100B6C0009121C4190E68BF0802490E6BEE0D394F1
:100B7C00004005E090E68BF090E19CE044809040D2
:0F0B8C001EF0122FAA80071229488002D322C31D
:010B9B002237
:09369E007F017E00122E5FD32291
:0936A7007F017E00122E5FD32288
:0223FE00D322E8
:102D740090E680E030E72100000090E6247402F041
:102D8400000000E490E625F0000000D20790E19AEC
:102D94007402F0A3E4F0801F000000E490E624F045
:102DA40000000090E6257440F0000000C20790E1A6
:102DB4009AE4F0A37440F090E6BAE090E1C5F0D351
:012DC40022EC
:0A366E0090E1C5121B5304F0D322B3
:0A36780090E6BAE090E158F0D3228A
:0A36820090E158121B5304F0D3220C
:0236CB00D32208
:0236CD00D32206
:0236CF00D32204
:1032DA00C0E0C083C082C085C084C086758600D223
:1032EA0016121D0A7401F0D086D084D085D082D0FF
:0432FA0083D0E0326B
:1032FE00C0E0C083C082C085C084C086121B4C90C3
:10330E00E65D7404F0D086D084D085D082D083D090
:02331E00E0329B
:10332000C0E0C083C082C085C084C086121B4C90A0
:10333000E65D7402F0D086D084D085D082D083D070
:02334000E03279
:1030C500C0E0C083C082C085C084C0867586008587
:1030D500110D85120E121CD785090F850A10121CB9
:1030E500E2121D0A7410F0D086D084D085D082D02B
:0430F50083D0E03272
:10334200C0E0C083C082C085C084C086121B4C907E
:10335200E65D7408F0D086D084D085D082D083D048
:02336200E03257
:102FE700C0E0C083C082C085C084C086758600905B
:102FF700E680E030E71285090D850A0E121CD78599
:10300700110F851210121CE2121D0A7420F0D086CF
:0B301700D084D085D082D083D0E0327E
:01005200327B
:0136D10032C6
:0136D20032C5
:0136D30032C4
:10336400C0E0C083C082C085C084C086121B4C905C
:10337400E65F7404F0D086D084D085D082D083D028
:02338400E03235
:102AAE00C0E0C083C082C085C084C086758600C069
:0A2ABE00D075D000C005C006C007A7
:102AC80090E68DE0FF90E6A2E020E127E4FEEEC369
:102AD8009F501B74802EF582E434E7F583E0FD7483
:102AE800C02EF582E434E7F583EDF00E80E090E641
:0C2AF8008FEFF05391EF90E65F7408F050
:102B0400D007D006D005D0D0D086D084D085D0824E
:052B1400D083D0E03287
:10338600C0E0C083C082C085C084C086121B4C903A
:10339600E65F7410F0D086D084D085D082D083D0FA
:0233A600E03213
:0136D40032C3
:1033A800C0E0C083C082C085C084C086121B4C9018
:1033B800E65F7440F0D086D084D085D082D083D0A8
:0233C800E032F1
:0136D50032C2
:102A3E00C0E0C0F0C083C082C085C084C0867586E9
:102A4E0000C0D075D000C000C001C002C003C004D9
:062A5E00C005C006C00720
:102A64005391EF75660190E659E0F524300205C2F2
:102A740002121BE97BFF7A217973122BEC90E65941
:092A840074FFF090E65B7401F0B0
:102A8D00D007D006D005D004D003D002D001D0009D
:102A9D00D0D0D086D084D085D082D083D0F0D0E075
:012AAD0032F6
:0136D60032C1
:0136D70032C0
:1033CA00C0E0C083C082C085C084C086121B4C90F6
:1033DA00E65B7410F0D086D084D085D082D083D0BA
:0233EA00E032CF
:0136D80032BF
:1033EC00C0E0C083C082C085C084C086121B4C90D4
:1033FC00E65B7440F0D086D084D085D082D083D068
:02340C00E032AC
:0136D90032BE
:0136DA0032BD
:0136DB0032BC
:0136DC0032BB
:0136DD0032BA
:0136DE0032B9
:0136DF0032B8
:0136E00032B7
:0136E10032B6
:0136E20032B5
:10340E00C0E0C083C082C085C084C086121B4C90B1
:10341E00E6517402F0D086D084D085D082D083D08D
:02342E00E0328A
:0136E30032B4
:10343000C0E0C083C082C085C084C086121B4C908F
:10344000E6557402F0D086D084D085D082D083D067
:02345000E03268
:0136E40032B3
:10345200C0E0C083C082C085C084C086121B4C906D
:10346200E6517401F0D086D084D085D082D083D04A
:02347200E03246
:0136E50032B2
:10347400C0E0C083C082C085C084C086121B4C904B
:10348400E6557401F0D086D084D085D082D083D024
:02349400E03224
:0136E60032B1
:0136E70032B0
:0136E80032AF
:062EA500AB07AA06AC0514
:102EAB00E4FD90E1C6E0600B7E000DEE24DE121C0B
:102EBB00C4EAF0AE050D74DE2E121CC4EBF0AF05A8
:102ECB000D74DE2F121CC4ECF090E159E0FF7AE197
:0D2EDB007BDE12352B90E159E0FF02305AEA
:0A3090008E448F458D468A478B4819
:10309A00E4F549E549C3954650200545E545AE4462
:1030AA007002054414FFE5482549F582E43547F5E1
:0A30BA0083E0FD122EA5054980D920
:0130C40022E9
:0A2DC5008E468F478D488A498B4ADD
:102DCF00E4FDF54B90E1C6E06012E546FF7E000D95
:102DDF00EE24DEF582E434E1F583EFF0AE050D74F9
:102DEF00DE2EF582E434E1F583E547F090E159E01A
:102DFF00FF7AE17BDE12352B90E159E0FFAB4AAA57
:062E0F0049AD4802350F39
:10356200A20C920A90401F300A07E4F01226038050
:0A357200067402F012256E023614F2
:10357C00A20C920A90401F300A07E4F01226038036
:0A358C00067402F012256E023614D8
:102C5500EFC3940250047E0E80027E0FAB06EF5444
:102C650001FE90E67AE04401F0C2E990E678E0449E
:102C750080F0EB25E090E679F090E678E030E0F939
:102C8500EE441890E679F090E678E030E0F9EC90C3
:102C9500E679F090E678E030E0F9ED90E679F090AD
:102CA500E678E04440F090E678E030E0F990E678A8
:062CB500E020E6F9D2E97F
:012CBB0022F6
:0936B0000565E565700205642260
:08000300E4F51CD2E9D2AF22A2
:10305A0090E678E020E6F9C2E990E678E04480F06C
:10306A00EF25E090E679F090E678E030E0F990E636
:10307A0078E04440F090E678E020E6F990E678E0DF
:06308A0030E1D6D2E9227C
:10312D00A90790E678E020E6F9E51C702390E67893
:10313D00E04480F0E925E090E679F08D17AF03A922
:10314D00077518018A19891AE4F51B751C01D3221C
:02315D00C3228B
:1030F900A90790E678E020E6F9E51C702590E678C6
:10310900E04480F0E925E0440190E679F08D17AFBD
:1031190003A9077518018A19891AE4F51B751C0397
:04312900D322C322C8
:03004B0002217718
:10217700C0E0C083C082C085C084C086758600C0A9
:10218700D075D000C000C001C002C003C006C007A0
:1021970090E678E030E206751C0602226190E67848
:1021A700E020E10CE51C64026006751C0702226151
:1021B700E51C24FE605F14603624FE700302225281
:1021C70024FC700302225E24086003022261AB181C
:1021D700AA19A91AAF1B051B8F8275830012112D2F
:1021E70090E679F0E51B65177070751C05806B909C
:1021F700E679E0AB18AA19A91AAE1B8E827583007F
:1022070012116C751C02E5176401704E90E678E0B8
:102217004420F08045E51724FEB51B0790E678E0DB
:102227004420F0E51714B51B0A90E678E04440F027
:10223700751C0090E679E0AB18AA19A91AAE1B8E97
:102247008275830012116C051B800F90E678E044BD
:1022570040F0751C008003751C005391DFD007D038
:1022670006D003D002D001D000D0D0D086D084D001
:0822770085D082D083D0E03253
:10350F001230F9E51C24FA600E146006240770F3DC
:0C351F00D322E4F51CD322E4F51CD322D7
:10352B0012312DE51C24FA600E146006240770F38B
:0C353B00D322E4F51CD322E4F51CD322BB
:100B9C00020EBDE86480F8E933E83360110460F0BC
:100BAC00ED33EC337009E8FCE9FDEAFEEBFF2204BF
:100BBC0060DED3EB9FEA9EE99DE8C2E78CF0C2F7BA
:100BCC0095F0400CE8CCF8E9CDF9EACEFAEBCFFB86
:100BDC00120E8885D0F05804700320D5B3E8047049
:100BEC00075002B2D5020EC792D5EC0460F7E4CCE4
:100BFC00C0E0C398F8603B94186008400DD0E0FB4F
:100C0C00020E9FE4FBFAC9FC8028E830E406E4C934
:100C1C00FBE4CAFCE830E305E4C9CACBFCE85407A2
:100C2C006010F8C3E913F9EA13FAEB13FBEC13FCAD
:100C3C00D8F130F52FC3E49CFCEF9BFFEE9AFEED50
:100C4C0099FDD0E0FBEF4E4D4C701222DB03020EEF
:100C5C00C4EC2CFCEF33FFEE33FEED33FDED30E74F
:100C6C00EB020E9FEF2BFFEE3AFEED39FDD0E0FBD1
:100C7C0050130BBB0003020EC7ED13FDEE13FEEF7A
:080C8C0013FFEC13FC020E9FA4
:100C9400EC4D6011E8497017ED33EC3304600DE45A
:100CA400FCFFFEFD22E933E8330470F8020EBD12A6
:100CB4000E8858046009E4CC2481500628500902A7
:100CC4000EC7284003020EC4C0E0EB4A7044B9804A
:100CD40006D0E0FB020EB3EF4E701CBD8008EBFFA4
:100CE400EAFEE9FD80EBE98DF0A4FEE5F0020D7D5E
:100CF400E9CDF9EAFEEBFFEF89F0A4FCE5F0CE893B
:100D0400F0A42EFFE435F0CD89F0A42DFEE435F0F7
:100D14008067EF4E7005BD80D780C3EF8BF0A4AC25
:100D2400F0EE8BF0A42CFCE435F0F8EF8AF0A42C60
:100D3400E5F038FCE433CB8DF0A42CFCE5F03BF873
:100D4400EE8AF0A42CFCE5F038F8E433CF89F0A463
:100D54002CFCE5F038CF3400CE89F0A42FFFE5F069
:100D64003EFEE433C98DF0A42EFEE5F039CD8AF0C1
:100D7400A42FFFE5F03EFEE43DFD33D0E0FB500739
:100D84000BBB000F020EC7EC2CFCEF33FFEE33FE5F
:060D9400ED33FD020E9F8D
:100D9A0074F8CC6480CCC86480C8F58204604FC300
:100DAA00EB9FF5F0EA9E42F0E99D42F0E89C45F09F
:100DBA00603C501DE5825FFFE582D313CB5BCBF429
:100DCA002B5582FB50280ABA002409B90020088052
:100DDA001DE5825BFBE582D313CF5FCFF4C3132FEC
:100DEA005582FF50090EBE00050DBD00010CC3EB74
:100DFA009FF5F0EA9E42F0E99D42F0E89C45F060DA
:090E0A0007CC4820E701B3EC22FB
:100E130075F020800E75F010800575F0087D007E5A
:100E2300007F003392D530D5031211E3EC33401029
:100E3300EF33FFEE33FEED33FDEC33FCD5F0ED2263
:0E0E4300E5F0247EA2D513CC92E7CDCEFF229F
:100E5100EDD2E7CD33EC3392D524814006E4FFFE99
:100E6100FDFC22FCE4CFCECDCC24E0501174FF80F8
:100E7100EDC3CC13CCCD13CDCE13CECF13CF047095
:070E8100F030D5DE0211E3A1
:10134A00E55B2447F8E6055B2278443013027847C8
:10135A00E475F00112123F021114200CEB7F2ED219
:10136A000C8018EF540F2490D43440D4FF30100B63
:10137A00EF24BFB41A0050032461FFE55C60021534
:10138A005C055FE55F7002055E30130D7844E47515
:10139A00F00112123FEF02115A0232697403D2139A
:1013AA008003E4C213F55B8B448A458946E4F55C05
:1013BA00F55EF55FE55C60077F2012138580F575A1
:1013CA005DFFC20DC20CC20EC20FC211C212C214FC
:1013DA00121353FF700D3013057F00121396AF5F7F
:1013EA00AE5E22B4255FC2D5C210121353FF24D0B9
:1013FA00B40A00501A75F00A785C30D50508B6FFB1
:10140A000106C6A426F620D5047002D20F80D9247C
:10141A00CFB41A00EF5004C2E5D210021683D20DDF
:10142A0080C6D20C80C0D20E80BCD2D580BAD2116E
:10143A0080B47F20121385200E077401B55C00402A
:10144A00F112134AFF1213850213BED214D212806C
:10145A009512134AFB12134AFA12134AF94A4B70AD
:10146A0006797A7A177BFF200E2EE55C602A7E00C9
:10147A008E8275830012112D60060EEE655D70F086
:10148A00C2D5EBC0E0EAC0E0E9C0E0EE1216E3D054
:10149A00E0F9D0E0FAD0E0FB121114FF60AAEBC029
:1014AA00E0EAC0E0E9C0E0121385D0E02401F9D0F7
:1014BA00E03400FAD0E0FBE55D0460DCD55DD9805C
:1014CA0087D20E80A21216C660F7E55D700104127B
:1014DA000ED2A95D600DE55D600914F55D12176D08
:1014EA00EF60F3EA30E702F404C3995077EAF4258F
:1014FA005D0430E701E404F55D800D1216C660C193
:10150A00EA055D255D120ED2EA785AF630E701E463
:10151A00255D04D55D04201101141216E3E4C0E030
:10152A0012176D785AE6601320E70714F612136D46
:10153A00802204F6D0E014C0E07F0012136DE55D4E
:10154A006007121364155D800B301103121364D007
:10155A00E00213BED0E00480C51216C660A0E55DA5
:10156A0004120ED2785AEAF6E55D201102600104EF
:05157A0024041216E339
:10157F0074FF04C0E012176D12136DE55D201102A8
:10158F006003121364D0E0B55DE87F4512137778DE
:10159F005AE67F2B30E7047F2DF404C0E012138549
:1015AF00D0E075F00A84C0F012136ED0E012136E03
:1015BF000213BE791080027908C212C2148008D2B9
:1015CF00D5790A8004790AC2D5E55D047002F55D0C
:1015DF00E4FAFDFEFF12134AFC7B08200D131213D1
:1015EF004AFD7B10300C0A12134AFE12134AFF7B7E
:1015FF0020EC3382D592D55013C3E4300C069FFFF5
:10160F00E49EFEE4200D039DFDE49CFCE4CBF8C2B8
:10161F000DEC700CCFCECDCCE824F8F870F380171A
:10162F00C3EF33FFEE33FEED33FDEC33FCEB33FB57
:10163F00994002FB0FD8E9EB300D05F8D0E0C44814
:10164F00B20DC0E00AEC4D4E4F78207B0070C2EA1D
:10165F00B55D0040BCC0E01216E5D0F0D0E0200D23
:10166F0004C4C0E0C4B20DC0F012136ED0F0D5F0B8
:10167F00EB0213BE12124F145B5315C258142C4CAD
:10168F0014284215C64F15CE4415CE4914414315A3
:10169F00D45515054615634514CF47179A50143086
:1016AF002D14342E14572B14382314552017832A36
:1016BF0013F0480000144FE55DB4FF03755D06128B
:1016CF00134AFC12134AFD12134AFE12134AFF78F3
:1016DF0053020F01790AA2D5200F14301109B91046
:1016EF00020404B9080104A2D520120250010420FB
:1016FF000E68920EB55C005034C0E07F20300F1999
:10170F007F30A20E72127211500F12173CC20EC20E
:10171F0012C211C2147F30800F301103E9C0E012E2
:10172F001385301103D0E0F9D0E0B55CCC30111740
:10173F007F30B9100C1213857F583010077F7880D7
:10174F0003B90803121385300E057F2D0213857F11
:10175F00202014F87F2B2012F322920E80CF7F00CF
:10176F00B4070050052453F8E6FF22286E756C6C01
:10177F002900D20D12134A300DF8C20D785C30D506
:10178F000108F60213F02D5043495812134A24034F
:10179F00B405004001E490179593121376743A1232
:0A17AF001376D20F755C040215C218
:100E8800E9D2E7C933E833F892D5EDD2E7CD33ECB0
:070E980033FC5002B2D52229
:100E9F00EC30E7100FBF000C0EBE00080DBD0004B4
:100EAF000BEB6014A2D5EB13FCED92E7FD2274FF60
:100EBF00FCFDFEFF22E480F8A2D574FF13FC7D80B9
:030ECF00E480EFCD
:100ED200F920E72824F950037907E4F42402FB18E7
:100EE200DBFDE624FB5014E9600DE4F618E604F697
:0F0EF200B40A08E4F6D9F57401F60A22C2D52233
:100F0100ED33EC3392D5FA602AB4FF33EDC2E77BBF
:100F1100FF60067A0F7926E4227A0F792F20D50413
:100F21007A0F792A224E614E002B494E46002D49F7
:100F31004E4600E47A08F608DAFC7B00740722E8E2
:100F4100C0E0ECC0E0EDC0E0EEC0E0EFC0E0EA756B
:100F5100F010A4CAABF075F04DA42BFBE435F0FC06
:100F6100EA2410FAEB34C5FBEC34D9FCEDC2E7FFFF
:100F710075F056A4F42411C5F0F434C58FF0A42AF9
:100F8100E5F03BE43CF620E7141210D4D0E0FFD0AA
:100F9100E0FED0E0FDD0E0FC1210078014F4041252
:100FA10010D4D0E0FFD0E0FED0E0FDD0E0FC120C88
:100FB10094D0E0F8E6FAEDD2E7CD33EC332482FBAE
:100FC100E4C3CF33CFCE33CECD33CD33DBF37B0789
:100FD10075F00A846004F6081B0AE5F0F6088FF044
:100FE100740AA4FFACF08EF0740AA42CFEACF0508D
:100FF100010C8DF0740AA42CFDE435F0F608DBDE5B
:031001007407224F
:10100400020EC7EC5D046005E859047003020EBDCE
:10101400120E88580460F6EC4860F2EC7004FDFE91
:10102400FF22C860DB2481C85009C39860025006BF
:10103400020EC49850CAF582E9294B4A7005AB8266
:10104400020EB375F0007C1A7880C3EF9BEE9AED24
:1010540099400DC3EF9BFFEE9AFEED99FDE842F037
:10106400DC23ACF0D0E0FFD0E0FED0E0FDAB82208A
:10107400E7101BEB60BAEC2CFCEF33FFEE33FEED14
:1010840033FD020E9FE803F830E705C0F075F00069
:10109400EF2FFFEE33FEED33FD40B830E7C280AAF8
:1010A4003F8000004120000042C80000447A000054
:1010B400461C400047C35000497424004B189680D6
:1010C4004CBEBC205A0E1BCA6753C21C749DC5AECD
:1010D400FB60065407601C2323121102EB54386092
:1010E400091210EE1210FD120C94ECF8EDF9EEFA60
:1010F400EFCB22EB1210FD80F1543803241C901026
:10110400A4FE93FC0EEE93FD0EEE930ECE93FF22FF
:030000000227BA1A
:0C27BA00787FE4F6D8FD75817B022801D1
:10111400BB010689828A83E0225002E722BBFE02D9
:09112400E32289828A83E493220C
:10112D00BB010CE58229F582E5833AF583E0225077
:10113D0006E92582F8E622BBFE06E92582F8E222C1
:0D114D00E58229F582E5833AF583E49322DB
:10115A00BB010689828A83F0225002F722BBFE0174
:02116A00F3226E
:10116C00F8BB010DE58229F582E5833AF583E8F0B9
:10117C00225006E92582C8F622BBFE05E92582C865
:02118C00F2224D
:10118E00BC000BBE0029EF8DF084FFADF022E4CC45
:10119E00F875F008EF2FFFEE33FEEC33FCEE9DEC0E
:1011AE00984005FCEE9DFE0FD5F0E9E4CEFD22ED54
:1011BE00F8F5F0EE8420D21CFEADF075F008EF2F9E
:1011CE00FFED33FD4007985006D5F0F222C398FD8F
:0511DE000FD5F0EA222C
:0E11E300C3E49FFFE49EFEE49DFDE49CFC221D
:1011F100EB9FF5F0EA9E42F0E99D42F0E89C45F054
:0112010022CA
:0C120200ECF0A3EDF0A3EEF0A3EFF0225F
:10120E00A8828583F0D083D0821212251212251265
:10121E001225121225E473E493A3C583C5F0C5838A
:10122E00C8C582C8F0A3C583C5F0C583C8C582C82A
:01123E00228D
:10123F00FAE6FB0808E6F925F0F618E6CA3AF622B0
:10124F00D083D082F8E4937012740193700DA3A32E
:10125F0093F8740193F5828883E473740293686042
:06126F00EFA3A3A380DF42
:10326900EFB40A07740D123274740A309811A899D0
:10327900B8130CC2983098FDA899C298B811F630C5
:0732890099FDC299F599229D
:102D22008B6A8A6B896CE4F572F573E5711571AE85
:102D320070700215704E6033AB6DAA6EA96F1211DE
:102D420014FFAB6AAA6BA96C0573E573AC727002CF
:102D5200057214F5828C83EF12116CEF60CD740151
:102D6200256FF56FE4356EF56E80C0AB6AAA6BA96C
:022D72006C22D1
:1035D800E4FFFE121114600C0FEF70010E09E97080
:0535E800F20A80EF2251
:10127500E709F60870FA8046E709F20870FA803E39
:1012850088828C83E709F0A370FA8074E309F60875
:1012950070FA806CE309F20870FA806488828C83A6
:1012A500E309F0A370FA805889828A83E0A3F608DF
:1012B50070FA804C89828A83E0A3F20870FA804034
:1012C50080D280FA80C680D4805180F28027801039
:1012D50080A680EA809A80A880DA80E280CA80278A
:1012E50088848C8589828A83E493A30586F0A30587
:1012F5008670F5800B89828A83E493A3F60870F9DA
:10130500ECFAA9F0EDFB2288848C8589828A83E03A
:10131500A30586F0A3058670F680E589828A83E4B5
:1013250093A3F20870F980D888F0ED2402B4040084
:1013350050CEF582EB2402B4040050C42323458229
:05134500239012C573A6
:1027C600022698E493A3F8E493A34003F68001F26B
:1027D60008DFF48029E493A3F85407240CC8C33314
:1027E600C4540F4420C8834004F456800146F6DFE3
:1027F600E4800B0102040810204080901D11E47E45
:10280600019360BCA3FF543F30E509541FFEE493D7
:10281600A360010ECF54C025E060A840B8E493A39E
:10282600FAE493A3F8E493A3C8C582C8CAC583CAC9
:10283600F0A3C8C582C8CAC583CADFE9DEE780BE81
:011EBE000023
:00000001FF
