:10010200120100020000004005168080000001027A
:020112000001EA
:0A0116000A0600020000004001008C
:100122000902270001010080320904000003FF00D8
:10013200000007058102400000070582020002005C
:07014200070588020002001E
:10014A000902270001010080320904000003FF00B0
:10015A0000000705810240000007058202400000F6
:07016A0007058802400000B8
:100172001403000000000000000000000000000066
:10018200000000000C0341004300430045005300FF
:100192001E035700410054004300480044004F0032
:1001A2004700000000000000000000000000000006
:0A27CC0000010202030304040505E6
:10008000EC4EFEED4F24CCF58274273EF583E493CD
:10009000FF3395E0FEEF24A1FFEE34E68F82F58377
:1000A0002290E6BCE0547EFF7E00E0D394807C008A
:1000B00022F0E5332401FFE43532FEE43531FDE47E
:1000C00035308F338E328D31F53022AF37AE36ADCD
:1000D00035AC34AB33AA32A931A830C3020558E598
:0C00E0003D2533F582E53C3532F58322E6
:10118F00E4F53BF53AF539F538C233C230C232C215
:10119F00311220BD7E017F028E0A8F0B75120175F1
:1011AF00131675080175092275100175114A75140A
:1011BF0001751572EE54E0700302127B753C0075D9
:1011CF003D808E3E8F3FC374B09FFF74019ECF242E
:1011DF0002CF3400FEE48F378E36F535F534F53314
:1011EF00F532F531F5301200CB500A1200DF74CD15
:1011FF001200B180F1E4F533F532F531F53012001C
:10120F00CB5017E53F2533F582E53E3532F583E0C8
:10121F00FF1200DFEF1200B180E4853C0A853D0B21
:10122F0074022480FF740134FFFEC3E5139FF5138E
:10123F00E5129EF512C3E50D9FF50DE50C9EF50C1D
:10124F00C3E50F9FF50FE50E9EF50EC3E5099FF55C
:10125F0009E5089EF508C3E5119FF511E5109EF508
:10126F0010C3E5159FF515E5149EF514D2E843D884
:10127F002090E668E04409F090E65CE0443DF0D24F
:10128F00AFD2381223B390E680E054F7F0538EF8C4
:10129F00C233303105C231120B4130332912283E8F
:1012AF005024C2331224B820301690E682E030E783
:1012BF0004E020E1EF90E682E030E604E020E0E495
:0B12CF00122410122840121B7680C76A
:100B410090E6B9E01205B60BE5000C39010C9303F0
:100B51000B64060BDF080BD9090BCD0A0BD30B0075
:100B6100000CCA1228364003020CD690E6BBE024E2
:100B7100FE602214603324FD60111460222406708B
:100B810048E50A90E6B3F0E50B8037E51290E6B34D
:100B9100F0E513802DE50C90E6B3F0E50D8023E53B
:100BA1000E90E6B3F0E50F801990E6BAE0FF12244B
:100BB1003CAA06A9077B01EA494B600DEE90E6B31A
:100BC100F0EF90E6B4F0020CD6020CCF1227EA0245
:100BD1000CD61227E0020CD61225EA020CD61227F7
:100BE100D6020CD61228384003020CD690E6B8E0A3
:100BF100247F60151460192402703AA230E4332571
:100C0100E0FFA232E4334F8018E490E740F0801611
:100C11001200A140047D0180027D00120080E05499
:100C21000190E740F0E4A3F090E68AF090E68B743F
:100C310002F0020CD6020CCF12283A4003020CD665
:100C410090E6B8E024FE601624026003020CD69000
:100C5100E6BAE0B40105C230020CD6020CCF90E630
:100C6100BAE0702C1200A140047D0180027D0012C7
:100C71000080E054FEF090E6BCE05480131313545E
:100C81001FFFE0540F2F90E683F0E04420F08045F1
:100C9100803C12283C503E90E6B8E024FE601A24C5
:100CA10002703290E6BAE0B40104D230802790E6B7
:100CB100BAE0B40202801E80151200A140047D0139
:100CC10080027D0012008080081218E6500790E62D
:0C0CD100A0E04401F090E6A0E04480F0B8
:010CDD0022F4
:0300330002282F71
:04282F0053D8EF3259
:10254900E4FFFE7D807C471201B5020401E4FBFA39
:10255900903F401205690202ADE6FE08E6F58BEEF2
:03256900F58D22CB
:101B15008F4B8E4A8D498C48E4FFFEFDFCAB4BAAEA
:0F1B25004AA949A84874E012034C7003C28E22EB
:101B3400E589540F4410F589538EEF7940784112AA
:101B44002556AB4BAA4AA949A8481202AD8F4F8E1D
:101B54004E8D4D8C4CAB4FAA4EA94DA84C12254925
:101B6400781DA60608A607C28E18122562D2ABD22B
:011B74008EE2
:011B7500224D
:081F36008F4B8E4A8D498C4847
:101F3E0079807840122556AB4BAA4AA949A8481277
:101F4E0002ADAB07AA06A905A804122549AD07AC38
:101F5E0006E4F5C8438E20AF04ECF5CB8FCDAF056C
:0B1F6E00EDF5CA8FCCD2BDD2ADD2CAB7
:011F79002245
:03001B000225CCEF
:1025CC00C0E0C0D075D000C000C006781D122562D6
:0E25DC00A291B39291D006D000D0D0D0E032C0
:03002B00021DC6ED
:101DC600C0E0C0F0C083C082C085C084C08675866E
:101DD60000C0D075D000C000C001C002C003C0045E
:101DE600C005C006C007121BD1C2CFD007D006D08F
:101DF60005D004D003D002D001D000D0D0D086D0F8
:0C1E060084D085D082D083D0F0D0E032B0
:1023E200504349652D5744472D43534D41005043B7
:1023F20049652D5744472D43534D004143434553AF
:0E24020020504349652D5744472D3F3F3F0072
:10270300C136C1340177FF02190000C1350116003B
:0327130001176447
:100E7400E6FF784AE475F0011205A6EF0204AFFF1D
:100E8400AE46054674402EF582E434E7F583EFF070
:100E9400AE46054674402EF582E434E7F58322120B
:100EA40004AF784AE475F0010205A6EE75F003A4D8
:100EB4002410F582E4343FF5832290E6BDE0FE90F1
:100EC400E6BCE02400FDEC3EFC90E6BFE0FE90E6CC
:100ED400BEE07A002400FBEA3EFA22E090E740F00C
:100EE400E490E68AF090E68B22E5801313543F22C7
:100EF4007D017B007A0079637E000206C5EE75F001
:100F040003A42412F582E4343FF583222541F541FC
:100F1400E5443540F540C3E5439545F543E5429541
:100F240044F542227586005391EF90E65D227440A9
:100F34002547F58274E73546F58322C2AFAE44AF48
:100F44004578637C00FD7B017AE7794022AD457AE0
:100F5400E779407F40AB072290E6BBE0FE90E6BA1B
:100F6400E07C002400FFEC3EFE227D017B007A0041
:100F7400797B7E001206C590E74022C3E54795457C
:100F8400E546954422E490E68AF090E6BEE090E6D9
:100F94008BF02275F003A42411F582E4343FF58329
:100FA4002290E68AE545F090E68BE544F022E5419F
:100FB4002547F582E5403546F5832274002540F93E
:100FC400EE34FCFA7B01227867E6FE18E6FD22F592
:100FD40082E4343FF58322850D82850C83A3740259
:100FE400F022850F82850E83A37407F022D3E54592
:100FF4009400E544940022D3E5459400E54494002C
:0110040022C9
:0F274B0090E6C2E02038044402F02254FDF02250
:0F275A0090E6C2E02038044401F02254FEF02241
:0F27690090E6C2E02038044404F02254FBF02232
:0F27780090E6C2E02037044402F02254FDF02224
:0F27870090E6C2E02037044401F02254FEF02215
:0F27960090E6C2E02037044404F02254FBF02206
:07282100EFF490E6C2F02283
:03283300D2952219
:1000EC00D295E4FFFE000FBF00010EBE04F7BFB0B7
:0300FC00F4C295B6
:0100FF0022DE
:061FBD008B498A4A894BA2
:101FC3008B4C8A4D894E784C120EA8E5231204AF30
:101FD30090E685E0FF784C120EA8EF1204AF90E66E
:101FE30084E0FF784C120EA8EF1204AF784C120E67
:0B1FF300A8ED1204AFC3E54E954BFFB4
:011FFE0022C0
:061A8E008B478A488949DC
:101A94008B4A8A4B894C120EA6E523120EA3E5222B
:101AA400120EA3E521120EA3E5251204AF788912C4
:101AB4000E747888120E747861120E747860120EA7
:101AC400747857120E747856120E747859120E7474
:101AD4007858120E74785B120E74785A120E747859
:101AE4005D120E74785C120E74120EA6E5241204B4
:101AF400AF7862120E747876120E747878120E74BF
:101B0400785E120E74785F120E74C3E54C9549FF2B
:011B140022AE
:051FFF00E5AA30E63AFE
:102004007540017E00120FBF7887E6FD121FBDEFF9
:102014002540F540E47887F6120FBF121A8EEF259B
:1020240040F540E47862F6F52490FC00E540F09039
:0A203400E69C7402F0E490E69DF0D3
:01203E00227F
:07282800EF44807887F622DF
:07238400AD07E5AA30E027D8
:10238B007548017E0074002548F9EE34F0FA7B01A4
:10239B00121FBDEF2548F54890F000F090E69074C1
:0723AB0002F0E490E691F05E
:0123B2002208
:1026EF00200710D207D235C2007F011223847F0545
:0426FF001215D422BA
:10260800203419D234D2947873E6FBF460077D0144
:0D2618007F0B122642D2077F061215D42236
:1021AC00EF30E505903F02EDF0EF30E405903F0392
:1021BC00EDF0EF30E305903F09EDF0EF30E20590E4
:1021CC003F08EDF0EF30E105903F07EDF0EF30E028
:0721DC0005903F06EDF02223
:101E5E008F48E548C3941F500280027F1F8F48E5CC
:101E6E0048C3941F501778407CE77F0E120EF4780B
:101E7E004D7CE77F0A120F6E7418F0801578417C46
:101E8E00E77F12120EF478537CE77F0C120F6E74FC
:091E9E001FF0120EE4E548F022E9
:100CDE008E408F418C428D438A448B4590E6B8E01E
:100CEE0030E703020E69122670120FF14054120FF4
:100CFE008990E6A0E020E1F9E545641245447008CC
:100D0E00120F3F1206C58030E545640E4544600360
:030D1E00020E734F
:100D2100120F3F1206C578647602120FCBEEF5461C
:100D3100EDF547FF7C037DE81204E3EF7871F6EEF1
:0D0D410008F60876FFD2AF7865E6FF7E0069
:100D4E00805BE5438542F01205DC0DC200010DE427
:100D5E0000020DA700440DAE00450D9700490D9CF5
:100D6E00004A0D9400520DB400540DBB00550DA158
:100D7E0000690DA4006A0DE780000E0580010E5576
:100D8E00800200000E7302273AE4FF0223847F02E2
:100D9E0002282802269B0226B0AF41AE40022491C3
:100DAE00E5417873F622AF41AE40022717AF41AE50
:100DBE0040022468308703020E73E540454124FF4C
:100DCE00B39295E541454070047F0180027F00EFAC
:100DDE0024FFB3923622021CD9E4FBFD7F081226B3
:100DEE00427F007E007D007C00121B15308705C2FD
:100DFE0090C29122C29122308733E540700EC2918B
:100E0E00FBFD7F08122642C291C29022E540FFBF31
:100E1E000105308613800CEF64027049E541C394DE
:100E2E00805005C290D29122C291D29022E540FF0D
:100E3E00BFFF09E541FB7DFF7F08801CAC40AD4143
:100E4E00E41203C8021B15C3E540948040047F09D9
:100E5E0080027F0A7B507D02022642120FF140056E
:060E6E00AF45121E5E22DA
:1014E3008F408D418B4290E6B8E030E703021577D9
:1014F300E5447074E5457070E5437F00FEEF2542D7
:10150300FFE43EFEEF8EF01205DC15490000154E98
:10151300000115580100155801011558010215580D
:1015230001031558010415580105155801061558EE
:10153300010715580108155801091558010A1561C5
:10154300FFFF000015D3AF400221E3E540FD7C001F
:10155300AF41021974AB40AD41AF42022642E541AF
:10156300606EAD40FF0221AC120FA590E6A0E03003
:0B157300E15E80F7E544D39400405592
:10157E0075460174402546F9E434E7FA7B017DFF98
:10158E00121FBDEF2546F5462440F9E434E7FA7BF9
:10159E0001121A8EEF2546F546E47862F6F524E53B
:1015AE0042B4010C12203FAE460546120E98EFF0E3
:1015BE0090E740E546F0120FA5E5417008E540B40E
:0515CE0001031227B328
:0115D30022F5
:1018E60090E6B9E01205B6190F10190F11192C4020
:1018F600196BA2196BA3193FD41952D51959D619C8
:101906005ED71966D80000197090E6BAE0FFA3E02A
:10191600FDA3E0FBA3E0F543A3E0F544A3E0F54512
:101926001214E3021972120F5CC006C007120EBE33
:10193600D007D006120CDE8033120F5CC006C0073B
:10194600120EBED007D00612070480207F01122394
:10195600848008121FFF8003121E12122670800C4C
:0E1966001224B880071213E28002D322C3229B
:100704008E408F418C428D438A448B4590E6B8E0FD
:1007140030E7030208A1120FFB400A120F8990E68A
:10072400A0E020E1F9E5418540F01205DC07AD00C9
:1007340001082300A007EE00B007B900D008520159
:10074400A0084C01A1084601A2084001A3083A01EF
:10075400A4083401A5082E01A6082801A7081D0134
:10076400B0081701B1081101B2080B01B308050163
:10077400B407FF01B507F901B607F301B707E801AC
:10078400D007E201D107DC01D207D601D307D0019B
:10079400D407CA01D507C401D607BE01D70858FF3C
:1007A400000890FF0100000B40E543540175F0116F
:1007B400A490E6C2F0E543F5B022E5431392B722D4
:1007C400E5431392B622E5431392B522E54313920F
:1007D400B422E5431392B322E5431392B222E543D4
:1007E4001392B122E5431392B022E543F59022E53A
:1007F4004313929722E54313929622E5431392956D
:1008040022E54313929422E54313929322E5431382
:10081400929222E54313929122E54313929022E5AA
:1008240043F58022E54313928722E54313928622FF
:10083400E54313928522E54313928422E543139200
:100844008322E54313928222E54313928122E543F6
:1008540013928022120FFB5003020B40AE44AF45AB
:100864007C007D031204F5ED4C6003020B40D3E5DC
:10087400459430E54494004003020B40AE44AF4538
:1008840078107C3F7D01120F4A0206C5AF43BF01B9
:10089400061200ECD23622122833C23622E54185F4
:1008A40040F01205DC0B1A00020B3300030A390076
:1008B400A009B100B0092900D00AB101A00AA10120
:1008C400A10A9101A20A8101A30A7101A40A61018A
:1008D400A50A5101A60A4101A70A2901B00A190172
:1008E400B10A0901B209F901B309E901B409D9014D
:1008F400B509C901B609B901B709A101D009910126
:10090400D1098101D2097101D3096101D4095101CD
:10091400D5094101D6093101D70AC1FF000AD7FF21
:100924000100000B4090E740E5B0020B3930B704FA
:100934007F0180027F0090E740EF020B3930B6045C
:100944007F0180027F0090E740EF020B3930B5044D
:100954007F0180027F0090E740EF020B3930B4043E
:100964007F0180027F0090E740EF020B3930B3042F
:100974007F0180027F0090E740EF020B3930B20420
:100984007F0180027F0090E740EF020B3930B10411
:100994007F0180027F0090E740EF020B3930B00402
:1009A4007F0180027F0090E740EF020B3990E7401F
:1009B400E590020B393097047F0180027F0090E7B5
:1009C40040EF020B393096047F0180027F0090E7EC
:1009D40040EF020B393095047F0180027F0090E7DD
:1009E40040EF020B393094047F0180027F0090E7CE
:1009F40040EF020B393093047F0180027F0090E7BF
:100A040040EF020B393092047F0180027F0090E7AF
:100A140040EF020B393091047F0180027F0090E7A0
:100A240040EF020B393090047F0180027F0090E791
:100A340040EF020B3990E740E580020B3930870420
:100A44007F0180027F0090E740EF020B393086047B
:100A54007F0180027F0090E740EF020B393085046C
:100A64007F0180027F0090E740EF020B393084045D
:100A74007F0180027F0090E740EF020B393083044E
:100A84007F0180027F0090E740EF020B393082043F
:100A94007F0180027F0090E740EF020B3930810430
:100AA4007F0180027F0090E740EF020B3930800421
:100AB4007F0180027F0090E740EF020B39AE44AF24
:100AC4004578407CE77D017B017A3F79101206C5A9
:030AD400020B2CE6
:100AD700E4F546788CE6FE08E6FDAC46054674402C
:100AE7002C120E9BEDF0EE120E83E51AF0E51912AB
:100AF7000E83E51CF0E51BFF120E94EFF0D3E546DD
:100B07009545E495444004AF468002AF4590E68B97
:030B1700EFF022DA
:100B1A0090E6F4E020E1047F0180027F0090E74044
:100B2A00EFF090E68BE545F022120EED90E740F0EB
:070B3A0090E68B7401F0222C
:10267000C2AFE4F51BF51CF519F51AD2AFC234D27E
:06268000007F040215D4E6
:10256C00C2AF051CE51C7002051BB4E812E51BB4D8
:10257C00030DE4F51BF51C051AE51A70020519D2BA
:02258C00AF227C
:10246800AB07AA06C2AF7C037DE81204F5EF7866D5
:10247800F6EE08F67C037DE8AF03AE021204F5ED34
:092488007871F6EC08F6D2AF22DF
:10271700C2AFEF7866F6EE08F6E47871F608F6D2FF
:02272700AF22DF
:10100500AF23E5805403C454F0FEE5B0540F4EF50C
:1010150023E5236F786246F6A21B301301B35025F2
:10102500903F0FE014F0E07024A21B301301B3725F
:10103500239223A21B9213A213720B920BA22BA035
:1010450013922B8000903F09E0903F0FF0A21A30D9
:101055001201B35025903F0EE014F0E07024A21A5F
:10106500301201B372229222A21A9212A212720AAD
:10107500920AA22AA012922A8000903F08E0903F8F
:101085000EF0A219301101B35025903F0DE014F078
:10109500E07024A219301101B372219221A2199294
:1010A50011A21172099209A229A01192298000901A
:1010B5003F07E0903F0DF0A218301001B350259086
:1010C5003F0CE014F0E07024A218301001B3722038
:1010D5009220A2189210A21072089208A228A010BD
:1010E50092288000903F06E0903F0CF0A21D30153D
:1010F50001B35025903F05E014F0E07024A21D30A7
:101105001501B372259225A21D9215A215720D9295
:101115000DA22DA015922D8000903F03E0903F0574
:10112500F0A21C301401B35025903F04E014F0E008
:101135007024A21C301401B372249224A21C9214B0
:10114500A214720C920CA22CA014922C8000903F39
:1011550002E0903F04F07876E655245522787846EB
:10116500F6785EE65524FFE522F45F0846F67875C5
:10117500E6F4552460057F021228287862E66005AA
:091185007F021228287875A624C7
:01118E00223E
:10197400EF1205B6199D0019A50119AD0219B50399
:1019840019BD0419F30519E80619DD0719C5081965
:10199400CD0919D50A000019FEEC4D24FF92B78039
:1019A4005BEC4D24FF92B58053EC4D24FF92B6803E
:1019B4004BEC4D24FF92978043EC4D24FF9296808C
:1019C4003BEC4D24FF92918033EC4D24FF929380A5
:1019D4002BEC4D24FF92928023EC4D24FF9238127D
:1019E400274B8018EC4D24FF923812275A800DECB7
:0E19F4004D24FF92381227698002C322D322AD
:1017B800EF1205B617E40017EC0117F40217FC0343
:1017C800180404183A05182F06182407180C0818C6
:1017D8001409181C0A18450B0000184DEC4D24FF7D
:1017E80092B78063EC4D24FF92B5805BEC4D24FFEB
:1017F80092B68053EC4D24FF9297804BEC4D24FF1A
:1018080092968043EC4D24FF9291803BEC4D24FF4F
:1018180092938033EC4D24FF9292802BEC4D24FF61
:1018280092371227788020EC4D24FF9237122787B1
:101838008015EC4D24FF9237122796800AEC4D2430
:09184800FF92948002C322D32216
:1021E300903F10E07005EFA2E392B7903F13E070C9
:1021F30005EFA2E192B5903F16E07005EFA2E292DF
:10220300B6903F19E07004EF139297903F1CE07073
:0722130005EFA2E492962200
:10203F00E4FF3097047E0180027E00EE420730B548
:10204F00047E0280027E00EE420730B6047E0480DA
:10205F00027E00EE420730B7047E0880027E00EE5B
:0E206F0042073096047E1080027E00EE42078B
:01207D002240
:1016A100EF14601914601F14602914603314603D35
:1016B100240570497FE31228117888803B7FE51269
:1016C100281178608032C293C2927FEE122811787D
:1016D100568025C293D2927FEE1228117858801835
:1016E100D293C2927FEE122811785A800BD293D2F4
:0E16F100927FEE122811785CA60608A607224A
:10272900AF1605161216A1E51675F0068485F01682
:01273900227D
:10268600E4F548E4FBFDAF481226420548E548C399
:04269600941040EF6D
:01269A00221D
:10264200AE07C2AF120F01EFF0120F97EBF0EF12CD
:062652000EB0EDF0D2AF66
:01265800225F
:101EA700E4FE787706120EAFE0D3940040347877DB
:101EB700E6FB700E120F01E0FF7D017C001217B8E0
:101EC7008020EE120F97E06B7018120F01E0FFE40D
:101ED700FDFC1217B8120EAFE0F46006120EAFE069
:081EE70014F00EEE641070BD52
:011EEF0022D0
:0E27A500E4F5B275B3FF75B5F090E6C3F0220F
:10207E00787B760C087602087601E408F630B10417
:10208E007F0180027F00EF25E025E04463FF30B042
:10209E00047E0180027E00EE25E04FF520787FF66B
:0F20AE00E408F608F67886F6C294C207C29122BB
:101E120090E61274E0F000000090E615F000000079
:101E220090E611F000000090E610E0547FF0000010
:101E32000090E613E0547FF000000090E614E054B6
:101E42007FF000000012269B1226B090E6837412E7
:0C1E5200F07432F090E65CE04402F022F4
:0E27B300E4F521F525F5247878F6785FF62216
:1022EE00903F027401F0903F04F0903F03F0903F56
:1022FE0005F0903F09F0903F0FF0903F08F0903FAF
:10230E000EF0903F07F0903F0DF0903F06F0903F9B
:03231E000CF0229E
:101D79007F07122821E4788AF608F6D200C235C214
:101D890034C207C2977863761208760208F608F615
:101D990008F67871F608F60876FF7868760108F68D
:101DA90008F63087047FFF80027F00786BA607085A
:0D1DB9007601087601E408F608F608F62227
:1020BD007F011215D4122833122819903F01745143
:1020CD00F0903F0B7401F090E600E054E74410F0FF
:1020DD00903F401205754C371B0012221A122173C6
:0E20ED00121E12121CD943AF017F020215D43D
:101B760030360F788DE665186008122729788DE6CD
:101B8600F518797AE7788D66700419E71866700596
:101B9600C23812274BA2809202A2B09203787FA687
:101BA60020E51A7882F6E51908F6E51C08F6E51B25
:101BB60008F67887E6C394804003121FFF30870A31
:0B1BC60090E6F4E020E0031226082265
:10269B0090E6047480F00000007402F0000000E487
:0526AB00F00000002218
:1026B00090E6047480F00000007408F0000000E46C
:0526C000F00000002203
:10273A007F007E007D007C00121B15121D7902208D
:01274A007E10
:101CD900E47887F67F071228211226B012269B780E
:101CE90076763F785E763FE47875F6C234C2B7C23D
:101CF90094C207C2911227B31222EE1226867F00E0
:101D09007E007D7A7C44121F361227A512273A30AD
:101D190087097B507D027F0A1226427F0102282112
:10221A00E4F540120F537D087FF87E1D121D29E454
:10222A00F54074402540120E9BE0FDE54075F00232
:10223A00A42474F9740135F08982F583EDF0054020
:05224A00E540B408DDD1
:01224F00226C
:061C82008B408A418942FB
:101C8800E4F5431226DA8F44E54425E02402900166
:101C980092F0E4F543AF44EF3395E0FEC3E5439F8C
:101CA800EE6480F87480985027AB40AA41A9428519
:101CB8004382758300120482FDE54375F002A42473
:101CC80094F9740135F08982F583EDF0054380C5F8
:011CD80022E9
:10217300120F537D017F037E00121D2990E740E07B
:1021830090010CF090E740E0247F600B0470107B1B
:10219300FF7A2379E2800E7BFF7A2379F080067B36
:0921A300FF7A2379FD121C82224F
:09280800786576017F030215D406
:10249100EF4E60047F0180027F007865EFF66004F3
:1024A1007F0380027F071215D47865E67008120E4B
:0724B100ED70031227C122A8
:101BD100121EA712100512256C7865E6602C2035BF
:101BE10013120FCBEDFFC3E51A9FE5199E401B129F
:101BF10026EF8016120FCBEEFCE519C313FEE51A92
:101C010013C39DEE9C4003122608D5171B788D0641
:101C1100E618700106C3788DE6940A18E694004030
:081C210004E4F608F6751764EF
:011C29002298
:1026C5007B807DFF7F03122642D297C23812275A9C
:0526D500C23802276974
:0B27C100C2977B80E4FD7F03022642EC
:1015D400EF1205B615F101160E02161F03162C04A0
:1015E400165E05166F06169107000016A07FFF12FF
:1015F40021E3E4FF122821120EED7005D2380227F0
:101604005A2085030216A0021699120EED700302E9
:1016140016A02085030216A0021699120EED70037F
:101624000226C5308576803F120EED700CD238123A
:10163400274BC23812276980083085607F02122840
:1016440021788DE62402FF18E436FE7C007D0A1220
:1016540004F57879A60408A60522120EED70057F1C
:10166400050228213085357F018017786BE6600BF1
:101674007F007E007DFA7C44121B15120EED70086B
:101684007F04122821D2B7223085118008120EED72
:0D169400600A3085077F04122821C2B722AA
:1024DD00C0E0C083C082C085C084C086758600D22E
:1024ED0031120F2B7401F0D086D084D085D082D0DC
:0424FD0083D0E03276
:10258E00C0E0C083C082C085C084C086120F28748C
:0F259E0004F0D086D084D085D082D083D0E032B4
:1025AD00C0E0C083C082C085C084C086120F28746D
:0F25BD0002F0D086D084D085D082D083D0E03297
:10228600C0E0C083C082C085C084C08675860085D4
:10229600100C85110D120FDB85080E85090F120F24
:1022A600E6120F2B7410F0D086D084D085D082D061
:0422B60083D0E032BF
:10250100C0E0C083C082C085C084C086758600D209
:1025110033120F2B7408F0D086D084D085D082D0AE
:0425210083D0E03251
:10213800C0E0C083C082C085C084C0867586009018
:10214800E680E030E71285080C85090D120FDB8563
:10215800100E85110F120FE6120F2B7420F0D08687
:0B216800D084D085D082D083D0E0323C
:0116FF0032B8
:012842003263
:012843003262
:012844003261
:012845003260
:01284600325F
:01284700325E
:01284800325D
:01284900325C
:01284A00325B
:01284B00325A
:01284C003259
:01284D003258
:01284E003257
:01284F003256
:012850003255
:012851003254
:012852003253
:012853003252
:012854003251
:012855003250
:01285600324F
:01285700324E
:01285800324D
:01285900324C
:01285A00324B
:01285B00324A
:01285C003249
:01285D003248
:01285E003247
:01285F003246
:012860003245
:012861003244
:012862003243
:012863003242
:012864003241
:061F7A00AB07AA06AC054E
:101F8000E4FD903F0BE0600B7E000DEE2447120F46
:101F9000D3EAF0AE050D74472E120FD3EBF0AF0568
:101FA0000D74472F120FD3ECF0903F01E0FF7A3F02
:0D1FB0007B471227FE903F01E0FF02225008
:0A2353008E488F498D4A8A4B8B4C4F
:10235D00E4F9E9C3954A501E0549E549AE487002B6
:10236D00054814FFE54C29F582E4354BF583E0FD76
:06237D00121F7A0980DC4A
:012383002237
:0A1D29008E488F498A4A8B4BA905AA
:101D3300E4FDF54C903F0BE06012E548FF7E000D9B
:101D4300EE2447F582E4343FF583EFF0AE050D74DE
:101D5300472EF582E4343FF583E549F0903F01E0F7
:101D6300FF7A3F7B471227FE903F01E0FFAD01ABB7
:061D73004BAA4A0227F40E
:02283600D322AB
:1025EA0000000090E6247402F0000000E490E62562
:0E25FA00F000000090E6BAE0903F0AF0D32215
:0A27D600903F0A120EDF04F0D32238
:0A27E00090E6BAE0903F00F0D3222B
:0A27EA00903F00120EDF04F0D3222E
:02283800D322A9
:02283A00D322A7
:02283C00D322A5
:02283E00D322A3
:02284000D322A1
:1013E20090E6BAE0754000F541A3E0FEEE4240907F
:1013F200E6BEE0754200F543A3E0FEEE424290E60F
:10140200B8E064C06003021489E5434542700302F8
:1014120014E290E6A0E020E1F9C3E5439440E542FE
:101422009400500885424485434580067544007502
:10143200454090E6B9E0B4A31EE4F546F547120F25
:101442007F5038120FB2E0FF120F32EFF00547E57E
:101452004770EB054680E7E4F546F547120F7F50EB
:1014620010120F3274CDF00547E54770EF05468044
:10147200EB120F51AF41AE40121D29120EE4E545A9
:10148200F0120F1002140B90E6B8E064407051E5C0
:10149200434542604B120EE4F090E6A0E020E1F9F1
:1014A20090E68BE0754400F54590E6B9E0B4A31EE2
:1014B200E4F546F547120F7F501E120F32E0FF127D
:1014C2000FB2EFF00547E54770EB054680E7120FD4
:1014D20051AF41AE40122353E545120F1002149151
:0114E20022E7
:1026250090E678E04440F0228B828A83AB05AD8248
:0D263500AC832290E6787480F0EF25E0225F
:041851008C4D8D4EDF
:10185500EB70037F012290E678E020E6F912263846
:10186500440190E679F090E678E030E0F990E6788A
:10187500E020E267E030E163BB010790E678E044F1
:1018850020F090E679E0F54F1BEB603090E678E0CC
:1018950030E0F990E678E020E241BB010790E67878
:1018A500E04420F090E679E0FF054EE54EAC4D7042
:1018B50002054D14F5828C83EFF080CC90E678E03C
:1018C50030E0F990E678E020E21112262590E679DD
:1018D500E0854E82854D83F07F01221226257F000B
:0118E50022E0
:101C2A0090E678E020E6F912263890E679F090E618
:101C3A0078E030E0F990E678E020E236E030E13210
:101C4A00EBD3940040260DEDAE0470010C14F5821E
:101C5A008E83E090E679F01B90E678E030E0F99028
:101C6A00E678E020E20CE020E1D680061226257F05
:071C7A0001221226257F0064
:011C81002240
:0A27F40012262D121851EF24FF22C7
:0A27FE0012262D121C2AEF24FF22E0
:03004300021700A1
:0300530002170091
:101700000224DD000225AD0002258E000225010025
:1017100002228600022138000216FF000228420041
:1017200002284300022844000228450002284600FF
:1017300002284700022848000228490002284A00DF
:1017400002284B000228420002284C0002284D00CB
:1017500002284E0002284F000228500002285100A3
:1017600002285200022842000228420002284200B9
:10177000022853000228540002285500022856006F
:1017800002285700022858000228590002285A004F
:1017900002285B0002285C0002285D0002285E002F
:1017A00002285F000228600002286100022862000F
:0817B000022863000228640016
:02252500A90704
:10252700903F46EDF07A3F7B467D011227FEAF01D3
:102537007A3F7B447D021227F4903F44E0FEA3E0FC
:01254700FF94
:012548002270
:1020FB00AE07C2E990E678E04480F0EE25E090E68A
:10210B0079F090E678E030E0F9ED90E679F090E642
:10211B0078E030E0F990E678E04440F090E678E043
:0D212B0030E0F990E678E020E6F9D2E922F4
:02265900AC07CC
:10265B001220FB7A3F7B477D021227F4903F47E025
:04266B00FEA3E0FFEB
:01266F002248
:08281100AD077F401226592299
:1024100090E682E030E004E020E60B90E682E030D7
:10242000E119E030E71590E680E04401F07F147E8A
:0C24300000121EF090E680E054FEF02246
:1024B80090E682E044C0F090E681F0438701000096
:0424C80000000022EE
:1023B30030380990E680E0440AF0800790E680E038
:1023C3004408F07FDC7E05121EF090E65D74FFF09A
:0F23D30090E65FF05391EF90E680E054F7F02230
:08281900E4F555D2E9D2AF222B
:1022500090E678E020E6F9C2E990E678E04480F084
:10226000EF25E090E679F090E678E030E0F990E64E
:1022700078E04440F090E678E020E6F990E678E0F7
:0622800030E1D6D2E92294
:10232100A90790E678E020E6F9E555702390E67874
:10233100E04480F0E925E090E679F08D50AF03A903
:10234100077551018A528953E4F554755501D32219
:02235100C322A5
:1022BA00A90790E678E020E6F9E555702590E678DA
:1022CA00E04480F0E925E0440190E679F08D50AFD2
:1022DA0003A9077551018A528953E4F554755503C8
:0422EA00D322C32216
:03004B000212DAC4
:1012DA00C0E0C083C082C085C084C086758600C055
:1012EA00D075D000C000C001C002C003C006C0074C
:1012FA0090E678E030E2067555060213C490E67867
:10130A00E020E10CE555640260067555070213C436
:10131A00E55524FE605F14603624FE70030213B59F
:10132A0024FC70030213C1240860030213C4AB51E6
:10133A00AA52A953AF5405548F82758300120482AE
:10134A0090E679F0E55465507070755505806B909C
:10135A00E679E0AB51AA52A953AE548E8275830046
:10136A001204C1755502E5506401704E90E678E0AA
:10137A004420F08045E55024FEB5540790E678E015
:10138A004420F0E55014B5540A90E678E04440F061
:10139A0075550090E679E0AB51AA52A953AE548E26
:1013AA00827583001204C10554800F90E678E044E8
:1013BA0040F075550080037555005391DFD007D072
:1013CA0006D003D002D001D000D0D0D086D084D0AD
:0813DA0085D082D083D0E032FF
:02243C00A907EE
:10243E00AE14AF158F828E83A3E064037017AD01C7
:10244E0019ED7001228F828E83E07C002FFDEC3E11
:09245E00FEAF0580DF7E007F0067
:012467002252
:101EF0008E408F4190E600E054187012E5412401B5
:101F0000FFE43540C313F540EF13F541801590E62B
:101F100000E05418FFBF100BE54125E0F541E54016
:101F200033F540E5411541AE40700215404E600565
:061F30001224CC80EE2219
:1024CC007400F58690FDA57C05A3E582458370F923
:0124DC0022DD
:1001B20002046DE86480F8E933E83360110460F00A
:1001C200ED33EC337009E8FCE9FDEAFEEBFF2204B3
:1001D20060DED3EB9FEA9EE99DE8C2E78CF0C2F7AE
:1001E20095F0400CE8CCF8E9CDF9EACEFAEBCFFB7A
:1001F20012043885D0F05804700320D5B3E8047097
:10020200075002B2D502047792D5EC0460F7E4CC31
:10021200C0E0C398F8603B94186008400DD0E0FB42
:1002220002044FE4FBFAC9FC8028E830E406E4C982
:10023200FBE4CAFCE830E305E4C9CACBFCE8540796
:100242006010F8C3E913F9EA13FAEB13FBEC13FCA1
:10025200D8F130F52FC3E49CFCEF9BFFEE9AFEED44
:1002620099FDD0E0FBEF4E4D4C701222DB030204ED
:1002720074EC2CFCEF33FFEE33FEED33FDED30E793
:10028200EB02044FEF2BFFEE3AFEED39FDD0E0FB1F
:1002920050130BBB0003020477ED13FDEE13FEEFC8
:0802A20013FFEC13FC02044FF2
:1002AA00020477EC5D046005E85904700302046DEA
:1002BA00120438580460F6EC4860F2EC7004FDFE53
:1002CA00FF22C860DB2481C85009C3986002500627
:1002DA000204749850CAF582E9294B4A7005AB8228
:1002EA0002046375F0007C1A7880C3EF9BEE9AEDE6
:1002FA0099400DC3EF9BFFEE9AFEED99FDE842F09F
:10030A00DC23ACF0D0E0FFD0E0FED0E0FDAB8220F1
:10031A00E7101BEB60BAEC2CFCEF33FFEE33FEED7B
:10032A0033FD02044FE803F830E705C0F075F0002A
:10033A00EF2FFFEE33FEED33FD40B830E7C280AA5F
:10034A0074F8CC6480CCC86480C8F58204604FC35A
:10035A00EB9FF5F0EA9E42F0E99D42F0E89C45F0F9
:10036A00603C501DE5825FFFE582D313CB5BCBF483
:10037A002B5582FB50280ABA002409B900200880AC
:10038A001DE5825BFBE582D313CF5FCFF4C3132F46
:10039A005582FF50090EBE00050DBD00010CC3EBCE
:1003AA009FF5F0EA9E42F0E99D42F0E89C45F06034
:0903BA0007CC4820E701B3EC2256
:1003C30075F020800E75F010800575F0087D007EB5
:1003D300007F003392D530D50312054AEC33401029
:1003E300EF33FFEE33FEED33FDEC33FCD5F0ED22BE
:0E03F300E5F0247EA2D513CC92E7CDCEFF22FA
:10040100EDD2E7CD33EC3392D524814006E4FFFEF3
:10041100FDFC22FCE4CFCECDCC24E0501174FF8052
:10042100EDC3CC13CCCD13CDCE13CECF13CF0470EF
:07043100F030D5DE02054AA0
:10043800E9D2E7C933E833F892D5EDD2E7CD33EC0A
:0704480033FC5002B2D52283
:10044F00EC30E7100FBF000C0EBE00080DBD00040E
:10045F000BEB6014A2D5EB13FCED92E7FD2274FFBA
:10046F00FCFDFEFF22E480F8A2D574FF13FC7D8013
:03047F00E480EF27
:03000000021A02DF
:0C1A0200787FE4F6D8FD75818D021A494A
:10048200BB010CE58229F582E5833AF583E022502F
:1004920006E92582F8E622BBFE06E92582F8E22279
:0D04A200E58229F582E5833AF583E4932293
:1004AF00BB010689828A83F0225002F722BBFE012C
:0204BF00F32226
:1004C100F8BB010DE58229F582E5833AF583E8F071
:1004D100225006E92582C8F622BBFE05E92582C81D
:0204E100F22205
:1004E300EF8DF0A4A8F0CF8CF0A428CE8DF0A42E2D
:0204F300FE22E7
:1004F500BC000BBE0029EF8DF084FFADF022E4CCEB
:10050500F875F008EF2FFFEE33FEEC33FCEE9DECB3
:10051500984005FCEE9DFE0FD5F0E9E4CEFD22EDF9
:10052500F8F5F0EE8420D21CFEADF075F008EF2F43
:10053500FFED33FD4007985006D5F0F222C398FD34
:050545000FD5F0EA22D1
:0E054A00C3E49FFFE49EFEE49DFDE49CFC22C2
:10055800EB9FF5F0EA9E42F0E99D42F0E89C45F0F9
:010568002270
:0C056900E0FCA3E0FDA3E0FEA3E0FF2205
:10057500A8828583F0D083D08212058C12058C1257
:10058500058C12058CE473E493A3C583C5F0C5837C
:10059500C8C582C8F0A3C583C5F0C583C8C582C8D0
:0105A5002233
:1005A600FAE6FB0808E6F925F0F618E6CA3AF62256
:1005B600D083D082F8E4937012740193700DA3A3D4
:1005C60093F8740193F5828883E4737402936860E8
:0605D600EFA3A3A380DFE8
:1005DC00D083D082F8E4937012740193700DA3A3AE
:1005EC0093F8740193F5828883E473740293B5F0E5
:0D05FC00067403936860E9A3A3A3A380D84D
:1026DA00E4FFFE1206EB600C0FEF70010E09E970C1
:0526EA00F20A80EF225E
:10060900E709F608DFFA8046E709F208DFFA803ED3
:1006190088828C83E709F0A3DFFA8032E309F608C0
:10062900DFFA806EE309F208DFFA806688828C833C
:10063900E309F0A3DFFA805A89828A83E0A3F608E6
:10064900DFFA804E89828A83E0A3F208DFFA8042CA
:1006590080D280FA80C680D4805580F280298010AB
:1006690080A680EA809A80A880DA80E280CA802900
:1006790088848C8589828A83E493A30586F0A305FF
:1006890086DFF5DEF3800B89828A83E493A3F6087B
:10069900DFF9ECFAA9F0EDFB2288848C8589828A3E
:1006A90083E0A30586F0A30586DFF6DEF480E389FF
:1006B900828A83E493A3F208DFF980D688F0EF6099
:1006C900010E4E60CD88F0ED2402B4040050C3F54C
:1006D90082EB2402B4040050B923234582239006F7
:0206E900597343
:101A0E0002118FE493A3F8E493A34003F68001F24E
:101A1E0008DFF48029E493A3F85407240CC8C333D9
:101A2E00C4540F4420C8834004F456800146F6DFA8
:101A3E00E4800B0102040810204080902703E47E0E
:101A4E00019360BCA3FF543F30E509541FFEE4939D
:101A5E00A360010ECF54C025E060A840B8E493A364
:101A6E00FAE493A3F8E493A3C8C582C8CAC583CA8F
:101A7E00F0A3C8C582C8CAC583CADFE9DEE780BE47
:0127160000C2
:1006EB00BB010689828A83E0225002E722BBFE020D
:0906FB00E32289828A83E4932240
:00000001FF
